S00E00007061636D616E2E73726563A6
S11300000C9449030C9466030C9466030C946603E5
S11300100C9466030C94A3030C9466030C9466037B
S11300200C9466030C9466030C9466030C946603A8
S11300300C9466030C9466030C9466030C94660398
S11300400C9442100C9466030C9466030C9466039F
S11300500C94620F0C94200F0C9466030C946603AA
S11300600C9466030C9466030C9466030C94660368
S11300700C9466030C9466030C9466031906280614
S113008028062806280628062806280628062806FC
S113009028060E062806960523062806280628069E
S11300A028062806280628062806B705280628064E
S11300B028062806E7052806DA052806280628065D
S11300C02806280628062806AC0528062806280639
S11300D0CD052806C2052806280628061E06280679
S11300E0280628062806280628062806280628069C
S11300F02806280628062806F405280628062806C1
S1130100280628062806280628062806280628067B
S1130110280628062806280628062806280628066B
S11301202806280628062806010628062806280682
S113013028062806A105462D2D2D2D2D2D2D2D2DDE
S11301402D2D2D2D762D762D2D2D2D2D2D2D2D2D49
S11301502D2D2D2D377C2E2E2E2E2E2E2E2E2E2E68
S11301602E2E2E7C207C2E2E2E2E2E2E2E2E2E2E1D
S11301702E2E2E7C7C2E462D2D2D372E462D2D2DCC
S1130180372E7C207C2E462D2D2D372E462D2D2DC1
S1130190372E7C7C2E7C2020207C2E4C2D2D2D4A2D
S11301A02E4C2D4A2E4C2D2D2D4A2E7C2020207C89
S11301B02E7C7C2E7C2020207C2E2E2E2E2E2E2E4D
S11301C02E2E2E2E2E2E2E2E2E2E7C2020207C2ED9
S11301D07C7C2E7C2020207C2E462D2D2D372E46F7
S11301E02D372E462D2D2D372E7C2020207C2E7C45
S11301F07C504C2D2D2D4A2E4C2D2D2D4A2E4C2D20
S11302004A2E4C2D2D2D4A2E4C2D2D2D4A507C7CC2
S11302102E2E2E2E2E2E2E2E2E2E2E2E2E2E2E2EFA
S11302202E2E2E2E2E2E2E2E2E2E2E2E2E7C7C2E4E
S1130230462D2D2D372E46372E462D2D2D2D2D2D89
S11302402D372E46372E462D2D2D372E7C7C2E4CC9
S11302502D2D2D4A2E7C7C2E4C2D2D3720462D2DD8
S11302604A2E7C7C2E4C2D2D2D4A2E7C7C2E2E2E1F
S11302702E2E2E2E7C7C2E2E2E2E7C207C2E2E2E70
S11302802E7C7C2E2E2E2E2E2E2E7C4C2D2D2D2D86
S11302902D372E7C4C2D2D37207C207C20462D2D77
S11302A04A7C2E462D2D2D2D2D4A20202020202025
S11302B07C2E7C462D2D4A204C2D4A204C2D2D374A
S11302C07C2E7C2020202020202020202020207C08
S11302D02E7C7C20202020202020202020207C7C9C
S11302E02E7C2020202020202D2D2D2D2D2D4A2E1A
S11302F04C4A20462D2D2020202D2D37204C4A2ECF
S11303004C2D2D2D2D2D2D202020202020202E2061
S113031020207C202020202020207C2020202E2013
S11303202020202020202D2D2D2D2D2D372E463719
S1130330204C2D2D2D2D2D2D2D4A2046372E462D8A
S11303402D2D2D2D2D2020202020207C2E7C7C2046
S1130350202020202020202020207C7C2E7C202077
S1130360202020202020202020207C2E7C7C204641
S11303702D2D2D2D2D2D2D37207C7C2E7C202020E5
S1130380202020462D2D2D2D2D4A2E4C4A204C2D3B
S11303902D3720462D2D4A204C4A2E4C2D2D2D2D07
S11303A02D377C2E2E2E2E2E2E2E2E2E2E2E2E2E13
S11303B07C207C2E2E2E2E2E2E2E2E2E2E2E2E2ECB
S11303C07C7C2E462D2D2D372E462D2D2D372E7C23
S11303D0207C2E462D2D2D372E462D2D2D372E7C6F
S11303E07C2E4C2D37207C2E4C2D2D2D4A2E4C2D21
S11303F04A2E4C2D2D2D4A2E7C20462D4A2E7C7CB7
S1130400502E2E7C207C2E2E2E2E2E2E2E2E202E66
S11304102E2E2E2E2E2E2E7C207C2E2E507C3E2DEB
S1130420372E7C207C2E46372E462D2D2D2D2D2D1E
S11304302D372E46372E7C207C2E462D3C3E2D4AD1
S11304402E4C2D4A2E7C7C2E4C2D2D3720462D2DC6
S11304504A2E7C7C2E4C2D4A2E4C2D3C7C2E2E2E4E
S11304602E2E2E2E7C7C2E2E2E2E7C207C2E2E2E7E
S11304702E7C7C2E2E2E2E2E2E2E7C7C2E462D2D4A
S11304802D2D2D4A4C2D2D372E7C207C2E462D2DA6
S11304904A4C2D2D2D2D2D372E7C7C2E4C2D2D2D83
S11304A02D2D2D2D2D2D4A2E4C2D4A2E4C2D2D2DFE
S11304B02D2D2D2D2D2D4A2E7C7C2E2E2E2E2E2EA6
S11304C02E2E2E2E2E2E2E2E2E2E2E2E2E2E2E2E48
S11304D02E2E2E2E2E2E2E7C4C2D2D2D2D2D2D2DD3
S11304E02D2D2D2D2D2D2D2D2D2D2D2D2D2D2D2D38
S11304F02D2D2D2D2D2D4A005072657373206120F2
S1130500627574746F6E20746F20737461727420DA
S1130510616761696E0047414D45204F5645520061
S113052050757368206120627574746F6E206F72E9
S1130530206B657920746F20636F6E74696E7565C6
S1130540004C6576656C20636F6D706C6574650036
S113055053747564656E74204E756D6265723A20CD
S11305603434333137393632004353534532303122
S1130570302070726F6A656374206279203C4A751A
S1130580616E20457370617265733E005061632D26
S11305904D616E00FF05FC05F805F405F005EC055A
S11305A0E805E405E005DC056E066A0666066206F3
S11305B05E065A06560652064F064B064706430683
S11305C03E063A06360632062D062906250620067C
S11305D01C06170612060D06080603066492927D91
S11305E06C92926D809EA0C17C92924DE4A2A29DD9
S11305F0182848FF4492926D468A926342FE037C17
S113060092A27D868A92A2C3E0100E10E1C6281041
S113061028C7FC021C02FDF8040204F9FC0202FDD6
S11306208080FE80816492924DFE9098677C828ADD
S11306307C03FE9090617C82827DFE2010FFFE4050
S11306403040FFFE020203FE1028C7040202FD82AE
S1130650FE83FE1010FF7C82925DFE909081FE92DC
S11306609283FE82827D7C828245FE92926D7E9090
S1130670907F1B5B3F32356C001B5B25646D001B58
S11306805B324A001B5B306D001B5B25643B2564B9
S1130690480011241FBECFEFD8E0DEBFCDBF11E06C
S11306A0A0E0B1E0E2E0FAE202C005900D92A83BBE
S11306B0B107D9F723E0A8EBB1E001C01D92A5383A
S11306C0B207E1F70E944F0D0C94FF140C94000044
S11306D0E8E6F0E0808182608083D99AECE6F0E07D
S11306E080818F6080831092B80108958091B80151
S11306F018163CF58091B9016FB7F8949091B80140
S11307009230B4F021E030E091E0F901E754FE4F7B
S11307104081F901E854FE4F40839F5F292F30E068
S11307204091B801042E000C550B241735076CF3C7
S11307309091B80191509093B80166231CF4789479
S113074008958FEF08951F920F920FB60F92112400
S11307502F933F934F935F936F937F938F939F93C5
S1130760EF93FF9343B14F7080E090E0642F70E00B
S11307702091B801243004F59B01082E02C0359560
S113078027950A94E2F720FF17C02091BD0130E0BD
S1130790082E02C0359527950A94E2F720FD0CC077
S11307A0E091B80121E02E0F2093B8010E2E000C29
S11307B0FF0BE754FE4F8083019684309105C1F608
S11307C04093BD01FF91EF919F918F917F916F9124
S11307D05F914F913F912F910F900FBE0F901F90FB
S11307E018956F3039F494EF980F81E0973060F0EA
S11307F080E008956E3039F492EF980F81E09330E1
S113080018F080E0089580E00895CF92DF92EF928F
S1130810FF92413091F028F0423049F0433099F092
S11308205EC0882309F45DC020E09FEF11C08E31C3
S113083009F459C020E091E00BC0662309F455C0C7
S11308402FEF90E005C06E3109F451C021E090E033
S1130850620F890F9091CD01891305C09091CC014D
S1130860691709F446C0A7ECB1E0E3ECF1E090E0CD
S11308702D91821304C02081621709F43CC09F5F4C
S113088031969430A9F7462F50E0282F30E0FA0132
S1130890EE0FFF1FEE0FFF1FEF52FE4FC080D180FF
S11308A0E280F380082E04C0F694E794D794C794AA
S11308B00A94D2F7C0FC21C09FE1949FF001959F58
S11308C0F00D1124E20FF31FEA5CFE4FE491E032D5
S11308D0C1F0EE32B1F0E035A1F08EEF17C08EEF2B
S11308E015C08EEF13C08EEF11C08EEF0FC08EEFC8
S11308F00DC08DEF0BC0892F09C08CEF07C08FEF9F
S113090005C00E94F1038111FACF8BEFFF90EF90A5
S1130910DF90CF900895CF92DF92EF92FF920F93E2
S11309201F93CF93DF93082FF62E0E94F103E82E36
S1130930C0E0D0E010E0CC24C394D12C4C2F6F2D18
S1130940802F0E9405048E3F4CF4C6010C2E02C079
S1130950880F991F0A94E2F7182B0CC0EE2051F06F
S11309608F3F41F4C6010C2E02C0880F991F0A94D0
S1130970E2F7182B2196C430D10501F7812FDF91BE
S1130980CF911F910F91FF90EF90DF90CF9008953A
S113099070E06F5F7F4F90E001960E94E30F81E269
S11309A00E940610E091CB01F0E0EE0FFF1FE55727
S11309B0FE4F81818F9380818F9383E191E09F9398
S11309C08F930E94A2110E94F40F0F900F900F902A
S11309D00F9008950F931F93CF93DF93182F062F33
S11309E0C42FD0E0862F90E0BE016F5F7F4F019649
S11309F00E94E30FE12FF0E0ED56FE4F80810E944C
S1130A000610CC0FDD1FCC0FDD1FCF52DE4F8881C7
S1130A109981AA81BB8104C0B695A79597958795BE
S1130A200A95D2F780FF05C08EE290E00E94DE11A5
S1130A3004C080E290E00E94DE110E94F40FDF9176
S1130A40CF911F910F9108951F93CF93DF93182F88
S1130A50C62FD0E090E0BE016F5F7F4F01960E94E9
S1130A60E30FCC0FDD1FCC0FDD1FCF52DE4F88818B
S1130A709981AA81BB8104C0B695A795979587955E
S1130A801A95D2F780FF05C08EE290E00E94DE1135
S1130A9004C080E290E00E94DE11DF91CF911F91AB
S1130AA008958091CE01089583E08093CE01089546
S1130AB02F923F924F925F926F927F928F929F926A
S1130AC0AF92BF92CF92DF92EF92FF920F931F9358
S1130AD0CF93DF930E94FD0F0E94F40F0E94131026
S1130AE061E070E081E090E00E94E30F0F2EF5E5F5
S1130AF06F2EF1E07F2EF02D0F2EFEE32F2EF1E06E
S1130B003F2EF02D0F2EF3E14F2EF1E05F2EF02D4E
S1130B10B6C0F601849190E0FC01B097ED35F10583
S1130B2008F096C0E25CFF4F0C949A109F928F924B
S1130B305F924F920E94A2110F900F900F900F900E
S1130B408BC0BF92AF925F924F920E94A2110F90FE
S1130B500F900F900F9080C0DF93CF935F924F92CE
S1130B600E94A2110F900F900F900F9075C01F93C9
S1130B700F935F924F920E94A2110F900F900F90CB
S1130B800F906AC0FF92EF925F924F920E94A2115F
S1130B900F900F900F900F905FC08AE291E09F93A7
S1130BA08F935F924F920E94A2110F900F900F901B
S1130BB00F9052C08EE291E09F938F935F924F9279
S1130BC00E94A2110F900F900F900F9045C082E3E6
S1130BD091E09F938F935F924F920E94A2110F9086
S1130BE00F900F900F9038C086E391E09F938F93FE
S1130BF05F924F920E94A2110F900F900F900F904E
S1130C002BC08AE391E09F938F935F924F920E944F
S1130C10A2110F900F900F900F901EC03F922F9231
S1130C205F924F920E94A2110F900F900F900F901D
S1130C3013C080E290E00E94DE110EC08EE290E0CC
S1130C400E94DE1109C08EE290E00E94DE1104C011
S1130C5088E790E00E94DE11FFEFCF1ADF0A6C14E0
S1130C607D0409F056CF8AE090E00E94DE112FE166
S1130C70620E711C86E195E086159705D9F0630133
S1130C809FE1C91AD1080F2EF6E2EF2EF1E0FF2EF4
S1130C90F02D02E211E0CEE1D1E00F2EFAE1AF2E09
S1130CA0F1E0BF2EF02D0F2EF6E18F2EF1E09F2EF6
S1130CB0F02D2FCFC1EDD1E040E050E020E030E056
S1130CC0812C912C54018394DE01188219821A829A
S1130CD01B8280E090E0FC01E20FF31FEA5CFE4F10
S1130CE0E491EE3211F0E035D1F44D905D906D90C9
S1130CF07C90139775016401082E04C0CC0CDD1C94
S1130D00EE1CFF1C0A94D2F7C428D528E628F7283D
S1130D10CD92DD92ED92FC9213974F5F5F4F019657
S1130D208F319105C1F6215E3F4F2496213CE3E0CB
S1130D303E0751F65093D0014093CF018FE080934A
S1130D40CD0187E18093CC0182E08093CB0167E100
S1130D508FE00E94C8040F2EF7ECAF2EF1E0BF2EF7
S1130D60F02D0F2EF3ECCF2EF1E0DF2EF02D0F2E11
S1130D70FFEBEF2EF1E0FF2EF02DDCE0C0E01FE0F2
S1130D8002E0F501D1935F01F60111936F01F701C0
S1130D9001937F01412F6D2F8C2F0E94EA04CF5FB6
S1130DA0DE5FC43071F7DF91CF911F910F91FF90F7
S1130DB0EF90DF90CF90BF90AF909F908F907F90F7
S1130DC06F905F904F903F902F9008950E94580528
S1130DD081E08093BE010895CF92DF92EF92FF925B
S1130DE01F93CF93DF938091BE01882309F402C13E
S1130DF01091CC01D091CD014091CB01612F8D2F69
S1130E000E940504C82F8E3F09F4F6C0612F8D2F70
S1130E100E9424058091CB0181110FC08091CD01E6
S1130E2081508093CD01811125C08091CC018F30F8
S1130E3009F58EE18093CD011DC0823071F480915B
S1130E40CD018F5F8093CD018E31A1F48091CC01CF
S1130E508F3081F41092CD010DC0813031F4809136
S1130E60CC0181508093CC0105C08091CC018F5F6F
S1130E708093CC01CC2384F0EC2FCC0FFF0BED56E8
S1130E80FE4F80810E9406106091CC018091CD01BB
S1130E900E94C80481E0B1C0CC3F09F0A3C0E09136
S1130EA0CC01F0E0EE0FFF1FEE0FFF1FEF52FE4FDD
S1130EB081E090E0A0E0B0E00090CD0104C0880F94
S1130EC0991FAA1FBB1F0A94D2F780959095A095ED
S1130ED0B095408151816281738184239523A62337
S1130EE0B72380839183A283B3838091CF019091B0
S1130EF0D00101979093D0018093CF018AE090E0D4
S1130F000E94660D68E070E085E290E00E94E30FC5
S1130F1082E491E09F938F938BE491E09F938F936E
S1130F200E94A21169E070E085E290E00E94E30F64
S1130F300E947B0D9F938F937F936F9380E591E045
S1130F409F938F930E94A2110E947B0D6B017C01E1
S1130F500E948D0D2DB73EB7265F3F4F0FB6F89414
S1130F603EBF0FBE2DBF6C157D058E059F0520F479
S1130F700E947B0D0E94840D6AE070E085E290E09F
S1130F800E94E30F87E591E00E94E5116BE070E0B9
S1130F9085E290E00E94E30F0E948D0D9F938F9352
S1130FA07F936F9380E591E09F938F930E94A211AA
S1130FB06DE070E085E290E00E94E30F8091D00143
S1130FC08F938091CF018F9383E691E09F938F93CA
S1130FD00E94A2118DB79EB70A960FB6F8949EBFD1
S1130FE00FBE8DBF6091CC018091CD010E94C804D9
S1130FF081E003C080E001C080E0DF91CF911F91C8
S1131000FF90EF90DF90CF9008951F93CF93DF93DD
S11310109091BE019923A1F0C82F1091CC01D091D9
S1131020CD01482F612F8D2F0E9405048E3F51F072
S1131030C093CB01612F8D2F0E94C80481E003C0AF
S113104080E001C080E0DF91CF911F910895FF926D
S11310500F931F93CF93DF939091BE01992309F4CB
S1131060EFC1C82F90E0FC01E953FE4F1081FC0151
S1131070ED53FE4FF080FC01E154FE4FD0816F2D03
S1131080812F0E948B04082F882309F4D9C16F2D66
S1131090812F0E94F103882309F445C101FF43C154
S11310A0A7C10091CD01011BD091CC01DF196F2D97
S11310B0812F0E948B04882309F4C2C1402F002E83
S11310C0000C550B55231CF45195419551092D2FB6
S11310D00D2E000C330B33231CF43195219531096B
S11310E0421753074CF4DD231CF481FF05C080C173
S11310F01D1614F483FD90C1002354F480FD51C1E6
S1131100DD231CF481FF49C173C183FD85C145C141
S113111082FD5AC1DD231CF481FF14C169C183FD22
S11311207BC110C181E090E0AB01082E02C055954F
S113113047950A94E2F740FDA0C0019684309105DA
S113114099F77EC1002E000C110B4D2F50E0C80101
S11311500D2E02C0959587950A94E2F780FD94C000
S1131160DC0FD3702D2F0D2E000C330BC8010D2E68
S113117002C0959587950A94E2F780FD85C02E5F9D
S11311803F4F23703078332334F4215031092C6FCE
S11311903F6F2F5F3F4F022E02C0159507950A94AB
S11311A0E2F700FD6CC09A012E5F3F4F2370307848
S11311B0332334F4215031092C6F3F6F2F5F3F4F9D
S11311C0D22F62C0002E000C110B2091CB01C8015C
S11311D0022E02C0959587950A94E2F780FF02C01B
S11311E0D22F52C00E940D11DC01CB0183709927CC
S11311F0AA27B078BB2354F40197A109B1098C6FD5
S11312009F6FAF6FBF6F0196A11DB11D482F682F4F
S1131210880F770B9B0123703078332334F42150EB
S113122031092C6F3F6F2F5F3F4FC801022E02C060
S1131230959587950A94E2F780FD23C06F5F7F4FF1
S1131240042E000C550B4C5F5F4FCB0183709078DC
S1131250992324F401978C6F9F6F0196282FF8012E
S113126002C0F595E7958A95E2F7E0FD0CC06F5F43
S11312707F4F6417750749F7E3C0D82F05C0D22FF5
S113128003C0D22F01C0D22FDD230CF4D9C00C2F00
S11312900C2E000C110BD801AD53BE4FF801E953CD
S11312A0FE4F6C9180810E942405F801E154FE4FA9
S11312B0D083D130B9F01CF4DD2331F020C0D2301A
S11312C051F0D330B1F01BC0F801E953FE4F8081D7
S11312D08150808314C0F801E953FE4F80818F5FF1
S11312E080830DC0F801ED53FE4F808181508083CF
S11312F006C0F801ED53FE4F80818F5F8083F801B3
S1131300ED53FE4F4081F801E953FE4F6081809117
S1131310CD0168133EC08091CC0148133AC019C076
S11313200E94F40F8DC0C13009F40CCF24F4CC23F7
S113133009F4B7CE85C0C23009F444CFC33009F4F0
S113134001CF7EC0682F082E000C770B80FFEACEF9
S113135028C08091CE0181508093CE014FE06CE093
S11313608C2F0E94EA04F801ED56FE4F80810E9402
S11313700610E801CD53DE4F09531E4F6881F80172
S113138080810E94C8048CE0F80180838FE0888308
S1131390C7CF8C2F0E94EA04C3CF682F880F770B26
S11313A0C1CE0C2F0C2E000C110BD801AD53BE4F27
S11313B0F801E953FE4F6C9180810E942405F801E5
S11313C0E154FE4F108280CF0C2F0C2E000C110B19
S11313D0D801AD53BE4FF801E953FE4F6C918081A3
S11313E00E942405F801E154FE4F82E0808373CF0C
S11313F00C2F0C2E000C110BD801AD53BE4FF8016D
S1131400E953FE4F6C9180810E942405F801E15458
S1131410FE4F81E0808366CF0C2F0C2E000C110B45
S1131420D801AD53BE4FF801E953FE4F6C91808152
S11314300E942405F801E154FE4F83E0808359CFD4
S1131440DF91CF911F910F91FF90089581E09091CA
S1131450BE01911180E0089581E02091CF01309187
S1131460D001232B09F080E0089580E480937C0070
S113147086E880937A000895CF93DF93ECE7F0E059
S113148080818E7F8083EAE7F0E0808180648083BE
S1131490808186FDFDCF80917800909179009093B2
S11314A0550280935402ECE7F0E0808181608083F0
S11314B0EAE7F0E08081806480839081892F8074E2
S11314C096FDFBCF409178005091790050935302E0
S11314D0409352022091540230915502213093E0FE
S11314E0390708F059C0213091E0390708F456C093
S11314F0413093E0590708F053C0413091E0590757
S113150008F450C0D0915102D33031F42238314024
S113151008F451C0C1E030C0D13031F442385240F7
S113152008F049C0CFEF28C0D23031F442385140DE
S113153008F441C0CFEF20C0D430D1F52238324076
S1131540D0F5CFEF19C00E943410AB01BC01552770
S11315506627772780914D0290914E02A0914F0209
S1131560B0915002845D9E4FAF4FBF4F481759074B
S11315706A077B0778F0CD2F0E94341060934D02E8
S113158070934E0280934F0290935002C093510285
S11315908C2F14C08FEF12C0C4E005C0C3E003C099
S11315A0C1E001C0C2E0D0915102CD13E5CFCBCF51
S11315B0DD2321F0C8CFD0915102C5CFDF91CF9167
S11315C0089580E80E94B50F08950F931F93CF9359
S11315D0DF93803190F48B01C82F83E00E94DD0FEC
S11315E08C2F8F700E94DD0FE801085F1F4F8991D7
S11315F00E94DD0FC017D107D1F7DF91CF911F9162
S11316000F91089584E00E94DD0F82E00E94DD0FB7
S113161008958FE00E94DD0F08950E94E10A0E9460
S1131620350A0E94680340E060E07BE480E090E0DB
S11316300E94CD0E0E941C10789408950E94FD0F04
S11316406AE070E08AE090E00E94E30F8CE895E0A5
S11316509F938F930E94B8116CE070E08AE090E051
S11316600E94E30F89E695E09F938F930E94B8113F
S11316706EE070E08AE090E00E94E30F80E595E080
S11316809F938F930E94B8110E94090B0F900F90A3
S11316900F900F900F900F9060EF87E991E00E94F8
S11316A0960D10C02FE789EA93E0215080409040C6
S11316B0E1F700C000000E9476038F3F19F00E94FA
S11316C0090B08950E94A50D8111ECCFE5CF6AE0C6
S11316D070E083E290E00E94E30F81E495E09F9341
S11316E08F930E94B8116BE070E083E290E00E9457
S11316F0E30F80E295E09F938F930E94B8110E94BC
S11317001B0F0F900F900F900F900E9476038F3F46
S113171021F40E94140F8823C1F30E941B0F089523
S11317200E94510518B8813011F488B908958230A7
S113173019F483E088B90895833011F487E088B9F7
S113174008950E94900B6EE070E083E290E00E94A6
S1131750E30F86E195E09F938F930E94B81160E1B7
S113176070E083E290E00E94E30F88EF94E09F939F
S11317708F930E94B8110F900F900F900F900E94BA
S113178076038F3FE1F30895109256020E94E60615
S11317900E945D0D0E9454050E94900B0E947603E6
S11317A00E941B0F08952F923F924F925F926F9267
S11317B07F928F929F92AF92BF92CF92DF92EF92DD
S11317C0FF920F931F93CF93DF93CDB7DEB760974C
S11317D00FB6F894DEBF0FBECDBF0E9434102B01AC
S11317E03C016D877E878F87988B69877A878B8783
S11317F09C876D837E838F83988769837A838B83A9
S11318009C83912C0F2EFFE72F2EF3E03F2EF02D1B
S1131810882483940F2EF9EAAF2EF1E0BF2EF02D29
S11318200EC10E947603182F0E94900B1F3F09F0EF
S11318300FC10E94140F882309F40CC1F1018081A7
S113184091810E946411082F911003C08B3159F4C7
S113185003C1F1E09F1203C08B3529F400C122E0DB
S1131860921609F401C1802F8F7D8E3429F40E94D1
S1131870C40B912C0FEF2EC00F7D003549F58091DC
S11318805602982D811190E090935602811111C057
S113189064E070E085E290E00E94E30F80EA91E06A
S11318A09F938F930E94A2110F900F90912C0FEF92
S11318B011C064E070E085E290E00E94E30FBF9203
S11318C0AF920E94A2110F900F90912C0FEF02C0C3
S11318D0912C0FEF809156028111B1C00E943C0AF5
S11318E0133021F0013411F0833021F480E00E94A0
S11318F005081DC0123021F0073511F0813021F4A4
S1131900882D0E94050813C0113021F0033511F011
S1131910823021F483E00E94050809C0112321F0DC
S1131920043411F0843019F482E00E9405080E9406
S113193034106B017C010E94260A811120C0D3015E
S1131940C20180579E4FAF4FBF4FC816D906EA0653
S1131950FB06A8F00E94EC060E942C0A882369F07A
S11319600E94670B0E9458050E9434102B013C0111
S113197069837A838B839C8302C0260137010E948A
S1131980260A811114C089819A81AB81BC818C554E
S11319909E4FAF4FBF4FC816D906EA06FB0638F074
S11319A080E00E942708C982DA82EB82FC820E94CE
S11319B0260A811114C08D819E81AF81B8858E5312
S11319C09E4FAF4FBF4FC816D906EA06FB0638F044
S11319D0882D0E942708CD82DE82EF82F8860E943D
S11319E0260A811114C089859A85AB85BC858C50E3
S11319F09E4FAF4FBF4FC816D906EA06FB0638F014
S1131A0082E00E942708C986DA86EB86FC860E945B
S1131A10260A811114C08D859E85AF85B889865CA0
S1131A209D4FAF4FBF4FC816D906EA06FB0638F0E4
S1131A3083E00E942708CD86DE86EF86F88A0E941E
S1131A40260A811113C00E9451058111EACE0EC0ED
S1131A500FEF40CF0FEF3ECF982C0FEF3BCF6894A2
S1131A60992491F80FEF36CF912C34CF60960FB6AE
S1131A70F894DEBF0FBECDBFDF91CF911F910F91C0
S1131A80FF90EF90DF90CF90BF90AF909F908F909A
S1131A907F906F905F904F903F902F9008950E9499
S1131AA00D0B0E941E0B0E94C40B0E94D30B0E94BC
S1131AB0A10BF9CF809156020895109267021092FB
S1131AC068021092690210926A02089540916702B6
S1131AD0509168026091690270916A02480F591F1F
S1131AE0611D711D409367025093680260936902FF
S1131AF070936A0208956091670270916802809100
S1131B00690290916A02089560936302709364027B
S1131B1080936502909366020895609163027091C8
S1131B2064028091650290916602089560930401B5
S1131B3090935B0280935A0210925D0210925C02B1
S1131B40109259021092580208950F931F93CF9345
S1131B50DF93CDB7DEB728970FB6F894DEBF0FBE7C
S1131B60CDBFE0915C02F0915D02309781F0149159
S1131B7010FF06C010925D0210925C0200E06BC080
S1131B803196F0935D02E0935C0200E064C0E09162
S1131B905802F0915902309709F449C0CF010196D7
S1131BA09093590280935802E081E1110AC0109287
S1131BB059021092580280E18093570200E010E02D
S1131BC04AC08FE98E0F8A3170F4F0E0EE0FFF1FE8
S1131BD0EA51FB4F8591949190935D0280935C024E
S1131BE000E010E038C08FEB8E0F8A3170F4F0E023
S1131BF0EE0FFF1FEA5DFA4F8591949190935D0279
S1131C0080935C0200E010E026C080ED8E0F8A30E5
S1131C1000F5F0E0EE0FFF1FEC5CFA4F8591949114
S1131C2090935D0280935C0200E010E014C0809108
S1131C305A0290915B0201E0009709F000E0909352
S1131C4059028093580210925B0210925A0210E0DB
S1131C5002C000E010E00E94020B20910401FE018A
S1131C603896CE010196112314F4208301C010820A
S1131C70110F3197E817F907B1F71982BE016F5FA9
S1131C807F4F8FE00E94E50A80915702882389F0F4
S1131C90815080935702002311F0882311F090E0C3
S1131CA003C091E001C091E081E0992329F080E034
S1131CB003C00023A1F3F7CF28960FB6F894DEBF34
S1131CC00FBECDBFDF91CF911F910F910895CF9398
S1131CD0C82F8A3019F48DE00E94670E9FB7907860
S1131CE002C0992329F180916C028F3FD1F3F894BB
S1131CF0E0916B0281E08E0F80936B02F0E0E35978
S1131D00FD4FC08380916C028F5F80936C02809141
S1131D106B028F3F11F410926B02E1ECF0E08081D2
S1131D2080628083992339F0789480E090E005C044
S1131D3081E090E002C080E090E0CF91089580912E
S1131D407E038823E1F32FB72078F89480916C0305
S1131D5030917E0390E0831B91095AF4E0916C0367
S1131D6080917E03F0E0E81BF109E358FC4F808189
S1131D700AC0E0916C0380917E03F0E0E81BF10956
S1131D80E359FC4F808190917E03915090937E03A0
S1131D90222309F0789490E0089510926B02109237
S1131DA06C0210926C0310927E0310927D03409398
S1131DB05E02DC01CB01880F991FAA1FBB1F880F8D
S1131DC0991FAA1FBB1F9C01AD01220F331F441F83
S1131DD0551F60E072E18AE790E00E947B10BA012F
S1131DE0A9014F5F5F4F6F4F7F4FDB01CA011AF4A8
S1131DF00196A11DB11DB595A79597958795019756
S1131E009093C5008093C400E1ECF0E088E1808306
S1131E10808180688083EFE7F3E085E091E093833D
S1131E20828391838083089590917E0381E0911150
S1131E3001C080E0089510926C0310927E0308950F
S1131E401F920F920FB60F9211242F938F939F938B
S1131E50EF93FF9380916C02882329F180916B02A8
S1131E6020916C0290E0821B91095AF4E0916B027C
S1131E7080916C02F0E0E81BF109E459FC4F908179
S1131E800AC0E0916B0280916C02F0E0E81BF1095A
S1131E90E359FD4F908180916C02815080936C02D4
S1131EA09093C60005C0E1ECF0E080818F7D8083D3
S1131EB0FF91EF919F918F912F910F900FBE0F90F3
S1131EC01F9018951F920F920FB60F9211242F9303
S1131ED03F934F935F936F937F938F939F93AF93AE
S1131EE0BF93CF93EF93FF93C091C60080915E029E
S1131EF0882349F080916C028F3F29F060E070E004
S1131F008C2F0E94670E80917E03803120F081E047
S1131F1080937D0318C0CD3009F4CAE0E0916C03CE
S1131F2081E08E0F80936C03F0E0E359FC4FC08393
S1131F3080917E038F5F80937E0380916C03803158
S1131F4011F410926C03FF91EF91CF91BF91AF9177
S1131F509F918F917F916F915F914F913F912F91BD
S1131F600F900FBE0F901F90189594B1906B94B979
S1131F702C9A90E59CBD883021F0803211F082309B
S1131F8019F491E09DBD01C01DBC803269F028F4B4
S1131F90883071F0803161F00EC0803429F08038CF
S1131FA051F48CB581608CBD8CB582608CBD03C04E
S1131FB08CB581608CBD2C9808958EBD0DB407FE40
S1131FC0FDCF8EB508959F938F937F936F9389E888
S1131FD096E09F938F930E94B8110F900F900F90EB
S1131FE00F900F900F90089584E896E09F938F933D
S1131FF00E94B8110F900F9008958FE796E09F9379
S11320008F930E94B8110F900F9008951F928F9391
S113201089E796E09F938F930E94B8110F900F90D9
S11320200F900F90089582E796E09F938F930E94FC
S1132030B8110F900F90089510925F0210926002F1
S1132040109261021092620216BC8CE787BD82E096
S113205084BD83E085BDEEE6F0E08081826080830C
S113206085B3827085BB08952FB7F89460915F02A1
S113207070916002809161029091620222230CF4BB
S1132080789408951F920F920FB60F9211242F93F4
S11320903F934F935F936F937F938F939F93AF93EC
S11320A0BF93EF93FF930E945A0D811113C0809147
S11320B05F0290916002A0916102B0916202019668
S11320C0A11DB11D80935F0290936002A0936102F1
S11320D0B0936202FF91EF91BF91AF919F918F9165
S11320E07F916F915F914F913F912F910F900FBE10
S11320F00F901F901895052E97FB1EF400940E94D4
S1132100921057FD07D00E94A01007FC03D04EF494
S11321100C94921050954095309521953F4F4F4F18
S11321205F4F089590958095709561957F4F8F4F7F
S11321309F4F0895EE0FFF1F0590F491E02D099431
S1132140A1E21A2EAA1BBB1BFD010DC0AA1FBB1FB7
S1132150EE1FFF1FA217B307E407F50720F0A21B29
S1132160B30BE40BF50B661F771F881F991F1A9496
S113217069F760957095809590959B01AC01BD01C0
S1132180CF0108958F929F92AF92BF92CF92DF9228
S1132190EF92FF92CF93DF93EC01688179818A817A
S11321A09B81611571058105910521F464E279ED46
S11321B08BE597E02DE133EF41E050E00E947B1086
S11321C049015A019B01AC01A7EAB1E40E94A6149B
S11321D06B017C01ACEEB4EFA50194010E94B41430
S11321E0DC01CB018C0D9D1DAE1DBF1DB7FF03C0CF
S11321F00197A109B04888839983AA83BB83BC0152
S1132200CD019F77DF91CF91FF90EF90DF90CF903A
S1132210BF90AF909F908F9008958F929F92AF92AE
S1132220BF92CF92DF92EF92FF9260910001709182
S113223001018091020190910301611571058105ED
S1132240910521F464E279ED8BE597E02DE133EF1C
S113225041E050E00E947B1049015A019B01AC010E
S1132260A7EAB1E40E94A6146B017C01ACEEB4EFC2
S1132270A50194010E94B414DC01CB018C0D9D1DB9
S1132280AE1DBF1DB7FF03C00197A109B0488093DD
S1132290000190930101A0930201B0930301BC01DA
S11322A0CD019F77FF90EF90DF90CF90BF90AF90DC
S11322B09F908F9008956093000170930101809323
S11322C00201909303010895CF93DF93EC012B81D6
S11322D020FF33C026FF0AC02F7B2B838E819F8172
S11322E001969F838E838A8190E029C022FF0FC0CC
S11322F0E881F9818081082E000C990B009719F46C
S113230020622B831AC03196F983E8830EC0EA85D4
S1132310FB85099597FF09C02B81019611F080E296
S113232001C080E1822B8B8308C02E813F812F5F07
S11323303F4F3F832E83992702C08FEF9FEFDF919A
S1132340CF910895A0E0B0E0E8EAF1E10C94C9145B
S1132350AE014B5F5F4FFA0161917191AF018091C2
S11323608103909182030E941512E2E00C94E5141B
S1132370A0E0B0E0EEEBF1E10C94C714AE01495FCC
S11323805F4FDA016D917D91AD010FE713E0F80124
S113239082819381DC0113962C9113972860139604
S11323A02C930E941512D8011296ED91FC9113976B
S11323B02381277F2383E4E00C94E3146091810359
S11323C0709182030E940C1408950F931F93CF936E
S11323D0DF93E0918103F0918203238121FF1BC0ED
S11323E08C01D0E0C0E0F80181918F0160918103FC
S11323F070918203DB011896ED91FC911997882363
S113240031F00995892B79F3DFEFCFEFECCF8AE038
S11324100995892B19F08FEF9FEF02C08D2F9C2F08
S1132420DF91CF911F910F910895ABE0B0E0EBE104
S1132430F2E10C94B9146C017B018A01FC0117824E
S11324401682838181FFCCC1CE0101963C01F60145
S11324509381F70193FD859193FF81917F018823F7
S113246009F4BAC1853239F493FD859193FF8191C2
S11324707F01853229F4B60190E00E940C14E7CF65
S1132480912C212C312CFFE1F315D8F08B3279F00B
S113249038F4803279F08332A1F4232D20611DC0F9
S11324A08D3261F0803369F4232D216016C0832DB1
S11324B08260382EE32DE4603E2E2AC0F32DF860AE
S11324C01DC037FC2DC020ED280F2A3040F08E327D
S11324D0B9F436FC81C1232D2064322E19C036FE96
S11324E006C08AE0989E200D1124922E11C0EAE0C5
S11324F02E9E200D1124222EF32DF0623F2E08C0B3
S11325008C3621F4832D8068382E02C0883641F43D
S1132510F70193FD859193FF81917F018111B3CFE1
S1132520982F9F7D9554933028F40C5F1F4F9FE3A1
S113253099830DC0833631F0833771F0833509F008
S113254059C021C0F801808189830E5F1F4F882400
S11325508394912C530113C02801F2E04F0E511CB7
S1132560F801A080B18036FE03C0692D70E002C07E
S11325706FEF7FEFC5010E9401144C018201F32D1E
S1132580FF773F2E16C0280122E0420E511CF801AD
S1132590A080B18036FE03C0692D70E002C06FEFE9
S11325A07FEFC5010E94F6134C01F32DF0683F2E16
S11325B0820133FC1BC0822D90E088169906B0F48A
S11325C0B60180E290E00E940C142A94F4CFF50145
S11325D037FC859137FE81915F01B60190E00E943E
S11325E00C1421102A9421E0821A91088114910478
S11325F071F7E8C0843611F0893641F5F80137FEE9
S113260007C060817181828193810C5F1F4F08C074
S113261060817181072E000C880B990B0E5F1F4F90
S1132620F32DFF763F2E97FF09C090958095709506
S113263061957F4F8F4F9F4FF0683F2E2AE030E027
S1132640A3010E944814882E861845C0853731F4AA
S1132650232D2F7EB22E2AE030E025C0932D997FC2
S1132660B92E8F36C1F018F4883579F0B5C08037AB
S113267019F0883721F0B0C0E92FE061BE2EB4FE16
S11326800DC0FB2DF460BF2E09C034FE0AC0292FF3
S11326902660B22E06C028E030E005C020E130E01C
S11326A002C020E132E0F801B7FE07C06081718109
S11326B0828193810C5F1F4F06C06081718180E02D
S11326C090E00E5F1F4FA3010E944814882E8618C5
S11326D0FB2DFF773F2E36FE0DC0232D2E7FA22E1D
S11326E0891458F434FE0BC032FC09C0832D8E7E4D
S11326F0A82E05C0B82CA32C03C0B82C01C0B92C3B
S1132700A4FE0FC0FE01E80DF11D8081803321F489
S11327109A2D997EA92E09C0A2FE06C0B394B39443
S113272004C08A2D867809F0B394A3FC11C0A0FEDE
S113273006C0B21488F4280C922C9B180EC0B21454
S113274060F4B60180E290E00E940C14B394F7CFD9
S1132750B21418F42B1802C0982C212CA4FE10C01B
S1132760B60180E390E00E940C14A2FE17C0A1FC05
S113277003C088E790E002C088E590E0B6010CC091
S11327808A2D867859F0A1FE02C08BE201C080E256
S1132790A7FC8DE2B60190E00E940C14891438F471
S11327A0B60180E390E00E940C149A94F7CF8A94C7
S11327B0F301E80DF11D8081B60190E00E940C1434
S11327C08110F5CF222009F442CEB60180E290E0D8
S11327D00E940C142A94F6CFF6018681978102C0D8
S11327E08FEF9FEF2B96E2E10C94D514FC0105903A
S11327F0615070400110D8F7809590958E0F9F1FFF
S11328000895FC016150704001900110D8F7809543
S113281090958E0F9F1F08950F931F93CF93DF936F
S1132820FB01238121FD03C08FEF9FEF2CC022FF0A
S113283016C046815781248135814217530744F4D9
S1132840A081B1819D012F5F3F4F318320838C9301
S1132850268137812F5F3F4F3783268314C08B0136
S1132860EC01FB010084F185E02D0995892BE1F64B
S1132870D80116968D919C911797019617969C9363
S11328808E931697CE01DF91CF911F910F910895EA
S1132890FA01AA27283051F1203181F1E8946F938D
S11328A06E7F6E5F7F4F8F4F9F4FAF4FB1E03ED033
S11328B0B4E03CD0670F781F891F9A1FA11D680FD1
S11328C0791F8A1F911DA11D6A0F711D811D911D04
S11328D0A11D20D009F468943F912AE0269F112479
S11328E03019305D3193DEF6CF010895462F4770DD
S11328F0405D4193B3E00FD0C9F7F6CF462F4F7038
S1132900405D4A3318F0495D31FD4052419302D095
S1132910A9F7EACFB4E0A69597958795779567953B
S1132920BA95C9F700976105710508959B01AC013B
S11329300A2E06945795479537952795BA95C9F762
S1132940620F731F841F951FA01D08950E94F01429
S1132950A59F900DB49F900DA49F800D911D1124EF
S11329600895B7FF0C94A6140E94A614821B930B1F
S113297008952F923F924F925F926F927F928F921F
S11329809F92AF92BF92CF92DF92EF92FF920F93FA
S11329901F93CF93DF93CDB7DEB7CA1BDB0B0FB604
S11329A0F894DEBF0FBECDBF09942A8839884888C1
S11329B05F846E847D848C849B84AA84B984C88457
S11329C0DF80EE80FD800C811B81AA81B981CE0F4E
S11329D0D11D0FB6F894DEBF0FBECDBFED01089533
S11329E0A29FB001B39FC001A39F700D811D11244C
S11329F0911DB29F700D811D1124911D0895F894AD
S1052A00FFCF02
S1132A02010000000F0000000300000000670E9F99
S1132A120E0000257300E2948000E2948200E294A6
S1132A228C00E2949000E2949400E2949800E29480
S1132A329C00E294A400E294B400E294AC00E29418
S1132A42BC0053636F72653A200A00253133730068
S1132A522531316C750A00486967682053636F72C7
S1132A62653A00506163646F74732052656D6169E5
S1132A726E696E673A202531316400E197A400E162
S1132A8297A200E197A700E197A3007B017F01834E
S1132A92018701292A2E2D34343331373936320055
S1132AA25061757365207C7C00202020202020202A
S10B2AB2202020202020000058
S9030000FC
