:100000000C943F030C945C030C945C030C945C0311
:100010000C945C030C9499030C945C030C945C03A7
:100020000C945C030C945C030C945C030C945C03D4
:100030000C945C030C945C030C945C030C945C03C4
:100040000C94A20D0C945C030C945C030C945C0364
:100050000C94C20C0C94800C0C945C030C945C0308
:100060000C945C030C945C030C945C030C945C0394
:100070000C945C030C945C030C945C030806170658
:100080001706170617061706170617061706170688
:100090001706FD051706850512061706170617062B
:1000A00017061706170617061706A60517061706DA
:1000B00017061706D6051706C905170617061706E9
:1000C00017061706170617069B05170617061706C5
:1000D000BC051706B1051706170617060D06170605
:1000E0001706170617061706170617061706170628
:1000F0001706170617061706E3051706170617064D
:100100001706170617061706170617061706170607
:1001100017061706170617061706170617061706F7
:100120001706170617061706F0051706170617060F
:10013000170617069005462D2D2D2D2D2D2D2D2D15
:100140002D2D2D2D762D762D2D2D2D2D2D2D2D2D4D
:100150002D2D2D2D377C2E2E2E2E2E2E2E2E2E2E6C
:100160002E2E2E7C207C2E2E2E2E2E2E2E2E2E2E21
:100170002E2E2E7C7C2E462D2D2D372E462D2D2DD0
:10018000372E7C207C2E462D2D2D372E462D2D2DC5
:10019000372E7C7C2E7C2020207C2E4C2D2D2D4A31
:1001A0002E4C2D4A2E4C2D2D2D4A2E7C2020207C8D
:1001B0002E7C7C2E7C2020207C2E2E2E2E2E2E2E51
:1001C0002E2E2E2E2E2E2E2E2E2E7C2020207C2EDD
:1001D0007C7C2E7C2020207C2E462D2D2D372E46FB
:1001E0002D372E462D2D2D372E7C2020207C2E7C49
:1001F0007C504C2D2D2D4A2E4C2D2D2D4A2E4C2D24
:100200004A2E4C2D2D2D4A2E4C2D2D2D4A507C7CC6
:100210002E2E2E2E2E2E2E2E2E2E2E2E2E2E2E2EFE
:100220002E2E2E2E2E2E2E2E2E2E2E2E2E7C7C2E52
:10023000462D2D2D372E46372E462D2D2D2D2D2D8D
:100240002D372E46372E462D2D2D372E7C7C2E4CCD
:100250002D2D2D4A2E7C7C2E4C2D2D3720462D2DDC
:100260004A2E7C7C2E4C2D2D2D4A2E7C7C2E2E2E23
:100270002E2E2E2E7C7C2E2E2E2E7C207C2E2E2E74
:100280002E7C7C2E2E2E2E2E2E2E7C4C2D2D2D2D8A
:100290002D372E7C4C2D2D37207C207C20462D2D7B
:1002A0004A7C2E462D2D2D2D2D4A20202020202029
:1002B0007C2E7C462D2D4A204C2D4A204C2D2D374E
:1002C0007C2E7C2020202020202020202020207C0C
:1002D0002E7C7C20202020202020202020207C7CA0
:1002E0002E7C2020202020202D2D2D2D2D2D4A2E1E
:1002F0004C4A20462D2D2020202D2D37204C4A2ED3
:100300004C2D2D2D2D2D2D202020202020202E2065
:1003100020207C202020202020207C2020202E2017
:100320002020202020202D2D2D2D2D2D372E46371D
:10033000204C2D2D2D2D2D2D2D4A2046372E462D8E
:100340002D2D2D2D2D2020202020207C2E7C7C204A
:10035000202020202020202020207C7C2E7C20207B
:10036000202020202020202020207C2E7C7C204645
:100370002D2D2D2D2D2D2D37207C7C2E7C202020E9
:10038000202020462D2D2D2D2D4A2E4C4A204C2D3F
:100390002D3720462D2D4A204C4A2E4C2D2D2D2D0B
:1003A0002D377C2E2E2E2E2E2E2E2E2E2E2E2E2E17
:1003B0007C207C2E2E2E2E2E2E2E2E2E2E2E2E2ECF
:1003C0007C7C2E462D2D2D372E462D2D2D372E7C27
:1003D000207C2E462D2D2D372E462D2D2D372E7C73
:1003E0007C2E4C2D37207C2E4C2D2D2D4A2E4C2D25
:1003F0004A2E4C2D2D2D4A2E7C20462D4A2E7C7CBB
:10040000502E2E7C207C2E2E2E2E2E2E2E2E202E6A
:100410002E2E2E2E2E2E2E7C207C2E2E507C3E2DEF
:10042000372E7C207C2E46372E462D2D2D2D2D2D22
:100430002D372E46372E7C207C2E462D3C3E2D4AD5
:100440002E4C2D4A2E7C7C2E4C2D2D3720462D2DCA
:100450004A2E7C7C2E4C2D4A2E4C2D3C7C2E2E2E52
:100460002E2E2E2E7C7C2E2E2E2E7C207C2E2E2E82
:100470002E7C7C2E2E2E2E2E2E2E7C7C2E462D2D4E
:100480002D2D2D4A4C2D2D372E7C207C2E462D2DAA
:100490004A4C2D2D2D2D2D372E7C7C2E4C2D2D2D87
:1004A0002D2D2D2D2D2D4A2E4C2D4A2E4C2D2D2D02
:1004B0002D2D2D2D2D2D4A2E7C7C2E2E2E2E2E2EAA
:1004C0002E2E2E2E2E2E2E2E2E2E2E2E2E2E2E2E4C
:1004D0002E2E2E2E2E2E2E7C4C2D2D2D2D2D2D2DD7
:1004E0002D2D2D2D2D2D2D2D2D2D2D2D2D2D2D2D3C
:1004F0002D2D2D2D2D2D4A005072657373206120F6
:10050000627574746F6E20746F20737461727420DE
:10051000616761696E0047414D45204F5645520065
:1005200050757368206120627574746F6E206F72ED
:10053000206B657920746F20636F6E74696E7565CA
:10054000004C6576656C20636F6D706C657465003A
:1005500043535345323031302F37323031207072AF
:100560006F6A656374206279203C4A75616E20452C
:100570007370617265733E005061632D4D616E0052
:10058000EB05E805E405E005DC05D805D405D00554
:10059000CC05C8055A06560652064E064A064606B9
:1005A00042063E063B06370633062F062A06260677
:1005B00022061E061906150611060C060806030675
:1005C000FE05F905F405EF056492927D6C92926D3B
:1005D000809EA0C17C92924DE4A2A29D182848FF63
:1005E0004492926D468A926342FE037C92A27D867B
:1005F0008A92A2C3E0100E10E1C6281028C7FC02A0
:100600001C02FDF8040204F9FC0202FD8080FE8059
:10061000816492924DFE9098677C828A7C03FE9062
:1006200090617C82827DFE2010FFFE403040FFFE04
:10063000020203FE1028C7040202FD82FE83FE10A0
:1006400010FF7C82925DFE909081FE929283FE82EA
:10065000827D7C828245FE92926D7E90907F1B5BB4
:100660003F32356C001B5B25646D001B5B324A001A
:100670001B5B306D001B5B25643B25644800112427
:100680001FBECFEFD8E0DEBFCDBF11E0A0E0B1E0EC
:10069000EAE3F4E202C005900D92A636B107D9F75D
:1006A00023E0A6E6B1E001C01D92A432B207E1F753
:1006B0000E94E20A0C941B120C940000E8E6F0E0A1
:1006C000808182608083D99AECE6F0E080818F603F
:1006D00080831092660108958091660118163CF59A
:1006E000809167016FB7F894909166019230B4F0F1
:1006F00021E030E091E0F901E959FE4F4081F90134
:10070000EA59FE4F40839F5F292F30E040916601F8
:10071000042E000C550B241735076CF390916601DD
:1007200091509093660166231CF4789408958FEF9E
:1007300008951F920F920FB60F9211242F933F939B
:100740004F935F936F937F938F939F93EF93FF9359
:1007500043B14F7080E090E0642F70E0209166011B
:10076000243004F59B01082E02C0359527950A9484
:10077000E2F720FF17C020916B0130E0082E02C085
:10078000359527950A94E2F720FD0CC0E0916601AB
:1007900021E02E0F209366010E2E000CFF0BE9596D
:1007A000FE4F8083019684309105C1F640936B0122
:1007B000FF91EF919F918F917F916F915F914F91F9
:1007C0003F912F910F900FBE0F901F9018956F3093
:1007D00039F494EF980F81E0973060F080E008954D
:1007E0006E3039F492EF980F81E0933018F080E08A
:1007F000089580E00895CF92DF92EF92FF9241300A
:1008000091F028F0423049F0433099F05EC08823DF
:1008100009F45DC020E09FEF11C08E3109F459C08A
:1008200020E091E00BC0662309F455C02FEF90E063
:1008300005C06E3109F451C021E090E0620F890FCC
:1008400090917B01891305C090917A01691709F491
:1008500046C0A5E7B1E0E1E7F1E090E02D91821319
:1008600004C02081621709F43CC09F5F3196943028
:10087000A9F7462F50E0282F30E0FA01EE0FFF1FB6
:10088000EE0FFF1FE258FE4FC080D180E280F38060
:10089000082E04C0F694E794D794C7940A94D2F72C
:1008A000C0FC21C09FE1949FF001959FF00D1124A1
:1008B000E20FF31FEA5CFE4FE491E032C1F0EE324A
:1008C000B1F0E035A1F08EEF17C08EEF15C08EEFBE
:1008D00013C08EEF11C08EEF0FC08EEF0DC08DEFE5
:1008E0000BC0892F09C08CEF07C08FEF05C00E9495
:1008F000E7038111FACF8BEFFF90EF90DF90CF905D
:100900000895CF92DF92EF92FF920F931F93CF93B0
:10091000DF93082FF62E0E94E703E82EC0E0D0E018
:1009200010E0CC24C394D12C4C2F6F2D802F0E942B
:10093000FB038E3F4CF4C6010C2E02C0880F991F9A
:100940000A94E2F7182B0CC0EE2051F08F3F41F4CF
:10095000C6010C2E02C0880F991F0A94E2F7182BCB
:100960002196C430D10501F7812FDF91CF911F91DE
:100970000F91FF90EF90DF90CF90089570E06F5F40
:100980007F4F90E001960E94430D81E20E94660D28
:10099000E0917901F0E0EE0FFF1FEE5AFE4F8181EA
:1009A0008F9380818F9383E191E09F938F930E9437
:1009B000EE0E0E94540D0F900F900F900F9008951F
:1009C0000F931F93CF93DF93182F062FC42FD0E0E0
:1009D000862F90E0BE016F5F7F4F01960E94430D0E
:1009E000E12FF0E0E65AFE4F80810E94660DCC0FA9
:1009F000DD1FCC0FDD1FC258DE4F88819981AA818F
:100A0000BB8104C0B695A795979587950A95D2F7AF
:100A100080FF05C08EE290E00E942A0F04C080E2B1
:100A200090E00E942A0F0E94540DDF91CF911F91F8
:100A30000F9108951F93CF93DF93182FC62FD0E007
:100A400090E0BE016F5F7F4F01960E94430DCC0F77
:100A5000DD1FCC0FDD1FC258DE4F88819981AA812E
:100A6000BB8104C0B695A795979587951A95D2F73F
:100A700080FF05C08EE290E00E942A0F04C080E251
:100A800090E00E942A0FDF91CF911F9108952F923D
:100A90003F924F925F926F927F928F929F92AF920E
:100AA000BF92CF92DF92EF92FF920F931F93CF935B
:100AB000DF930E945D0D0E94540D0E94730D61E052
:100AC00070E081E090E00E94430D0F2EF5E56F2E5F
:100AD000F1E07F2EF02D0F2EFEE32F2EF1E03F2EC2
:100AE000F02D0F2EF3E14F2EF1E05F2EF02DB6C06A
:100AF000F601849190E0FC01B097ED35F10508F026
:100B000096C0E25CFF4F0C94E60D9F928F925F922D
:100B10004F920E94EE0E0F900F900F900F908BC08F
:100B2000BF92AF925F924F920E94EE0E0F900F9085
:100B30000F900F9080C0DF93CF935F924F920E94EF
:100B4000EE0E0F900F900F900F9075C01F930F93A4
:100B50005F924F920E94EE0E0F900F900F900F90A9
:100B60006AC0FF92EF925F924F920E94EE0E0F903A
:100B70000F900F900F905FC08AE291E09F938F9348
:100B80005F924F920E94EE0E0F900F900F900F9079
:100B900052C08EE291E09F938F935F924F920E949A
:100BA000EE0E0F900F900F900F9045C082E391E0F2
:100BB0009F938F935F924F920E94EE0E0F900F9033
:100BC0000F900F9038C086E391E09F938F935F92D0
:100BD0004F920E94EE0E0F900F900F900F902BC02F
:100BE0008AE391E09F938F935F924F920E94EE0E63
:100BF0000F900F900F900F901EC03F922F925F9218
:100C00004F920E94EE0E0F900F900F900F9013C016
:100C100080E290E00E942A0F0EC08EE290E00E94D7
:100C20002A0F09C08EE290E00E942A0F04C088E7D4
:100C300090E00E942A0FFFEFCF1ADF0A6C147D04A8
:100C400009F056CF8AE090E00E942A0F2FE1620E51
:100C5000711C86E195E086159705D9F063019FE147
:100C6000C91AD1080F2EF6E2EF2EF1E0FF2EF02D7B
:100C700002E211E0CEE1D1E00F2EFAE1AF2EF1E079
:100C8000BF2EF02D0F2EF6E18F2EF1E09F2EF02DCE
:100C90002FCFCEE7D1E040E050E020E030E0812CE3
:100CA000912C54018394DE01188219821A821B82CE
:100CB00080E090E0FC01E20FF31FEA5CFE4FE4915C
:100CC000EE3211F0E035D1F44D905D906D907C9056
:100CD000139775016401082E04C0CC0CDD1CEE1CBA
:100CE000FF1C0A94D2F7C428D528E628F728CD920D
:100CF000DD92ED92FC9213974F5F5F4F01968F311B
:100D00009105C1F6215E3F4F2496213CE3E03E076A
:100D100051F650937D0140937C018FE080937B01DD
:100D200087E180937A0182E08093790167E18FE027
:100D30000E94BE040F2EF5E7AF2EF1E0BF2EF02D7E
:100D40000F2EF1E7CF2EF1E0DF2EF02D0F2EFDE676
:100D5000EF2EF1E0FF2EF02DDCE0C0E01FE002E01E
:100D6000F501D1935F01F60111936F01F701019332
:100D70007F01412F6D2F8C2F0E94E004CF5FDE5F3B
:100D8000C43071F7DF91CF911F910F91FF90EF90D9
:100D9000DF90CF90BF90AF909F908F907F906F909B
:100DA0005F904F903F902F9008950E94470581E0FB
:100DB00080936C0108951F93CF93DF9380916C0112
:100DC000882309F44DC010917A01D0917B014091A4
:100DD0007901612F8D2F0E94FB03C82F8E3F09F4EC
:100DE00041C0612F8D2F0E941A05809179018111D8
:100DF00006C080917B01815080937B0115C08230B9
:100E000031F480917B018F5F80937B010DC0813035
:100E100031F480917A01815080937A0105C08091EC
:100E20007A018F5F80937A01CC2394F0EC2FCC0F62
:100E3000FF0BE65AFE4F80810E94660D60917A0199
:100E400080917B010E94BE0410926C0181E00BC076
:100E500060917A0180917B010E94BE0481E003C011
:100E600080E001C080E0DF91CF911F9108951F9332
:100E7000CF93DF9390916C019923A1F0C82F10912B
:100E80007A01D0917B01482F612F8D2F0E94FB03A7
:100E90008E3F51F0C0937901612F8D2F0E94BE04C7
:100EA00081E003C080E001C080E0DF91CF911F911D
:100EB0000895FF920F931F93CF93DF9390916C014E
:100EC000992309F4E2C1C82F90E0FC01EB58FE4FD2
:100ED0001081FC01EF58FE4FF080FC01E359FE4FFA
:100EE000D0816F2D812F0E948104082F882309F45F
:100EF000CCC16F2D812F0E94E703882309F445C1DF
:100F000001FF43C19AC100917B01011BD0917A017D
:100F1000DF196F2D812F0E948104882309F4B5C148
:100F2000402F002E000C550B55231CF45195419574
:100F300051092D2F0D2E000C330B33231CF431954A
:100F400021953109421753074CF4DD231CF481FF2E
:100F500005C073C11D1614F483FD83C1002354F42E
:100F600080FD44C1DD231CF481FF3CC166C183FDCB
:100F700078C138C182FD4DC1DD231CF481FF14C14D
:100F80005CC183FD6EC110C181E090E0AB01082E11
:100F900002C0559547950A94E2F740FDA0C001961E
:100FA0008430910599F771C1002E000C110B4D2F63
:100FB00050E0C8010D2E02C0959587950A94E2F77E
:100FC00080FD94C0DC0FD3702D2F0D2E000C330B41
:100FD000C8010D2E02C0959587950A94E2F780FD11
:100FE00085C02E5F3F4F23703078332334F4215077
:100FF00031092C6F3F6F2F5F3F4F022E02C01595B6
:1010000007950A94E2F700FD6CC09A012E5F3F4FEE
:1010100023703078332334F4215031092C6F3F6F23
:101020002F5F3F4FD22F62C0002E000C110B20917A
:101030007901C801022E02C0959587950A94E2F7BE
:1010400080FF02C0D22F52C00E94590EDC01CB019A
:1010500083709927AA27B078BB2354F40197A1097C
:10106000B1098C6F9F6FAF6FBF6F0196A11DB11D4E
:10107000482F682F880F770B9B012370307833231C
:1010800034F4215031092C6F3F6F2F5F3F4FC8015F
:10109000022E02C0959587950A94E2F780FD23C041
:1010A0006F5F7F4F042E000C550B4C5F5F4FCB01E1
:1010B00083709078992324F401978C6F9F6F019629
:1010C000282FF80102C0F595E7958A95E2F7E0FD33
:1010D0000CC06F5F7F4F6417750749F7D6C0D82FD4
:1010E00005C0D22F03C0D22F01C0D22FDD230CF4B4
:1010F000CCC00C2F0C2E000C110BD801AF58BE4FDA
:10110000F801EB58FE4F6C9180810E941A05F8019E
:10111000E359FE4FD083D130B9F01CF4DD2331F018
:1011200020C0D23051F0D330B1F01BC0F801EB58E1
:10113000FE4F80818150808314C0F801EB58FE4F30
:1011400080818F5F80830DC0F801EF58FE4F808152
:101150008150808306C0F801EF58FE4F80818F5F79
:101160008083F801EF58FE4F4081F801EB58FE4FA5
:10117000608180917B01681331C080917A014813AE
:101180002DC019C00E94540D80C0C13009F40CCF8D
:1011900024F4CC2309F4B7CE78C0C23009F444CF8C
:1011A000C33009F401CF71C0682F082E000C770BF3
:1011B00080FFEACE1BC010926C01F801E65AFE4F88
:1011C00080810E94660DD801AF58BE4FF801EB58E0
:1011D000FE4F6C9180810E94BE04D4CF8C2F0E9460
:1011E000E004D0CF682F880F770BCECE0C2F0C2EBB
:1011F000000C110BD801AF58BE4FF801EB58FE4F51
:101200006C9180810E941A05F801E359FE4F10820B
:101210008DCF0C2F0C2E000C110BD801AF58BE4FE8
:10122000F801EB58FE4F6C9180810E941A05F8017D
:10123000E359FE4F82E0808380CF0C2F0C2E000CF0
:10124000110BD801AF58BE4FF801EB58FE4F6C910F
:1012500080810E941A05F801E359FE4F81E08083E6
:1012600073CF0C2F0C2E000C110BD801AF58BE4FB2
:10127000F801EB58FE4F6C9180810E941A05F8012D
:10128000E359FE4F83E0808366CFDF91CF911F91BA
:101290000F91FF90089581E090916C01911180E091
:1012A000089581E020917C0130917D01232B09F08C
:1012B00080E0089580E80E94150D08950F931F9314
:1012C000CF93DF93803190F48B01C82F83E00E948D
:1012D0003D0D8C2F8F700E943D0DE801085F1F4F60
:1012E00089910E943D0DC017D107D1F7DF91CF91B1
:1012F0001F910F91089584E00E943D0D82E00E94AD
:101300003D0D08958FE00E943D0D08950E945A09F9
:101310000E945E0340E060E07BE480E090E00E9499
:101320002D0C0E947C0D789408950E945D0D6AE05A
:1013300070E08AE090E00E94430D88E795E09F937B
:101340008F930E94040F6CE070E08AE090E00E94AE
:10135000430D80E595E09F938F930E94040F0E94B8
:1013600082090F900F900F900F906FED8EE591E036
:101370000E94F60A10C02FE789EA93E021508040CE
:101380009040E1F700C000000E946C038F3F19F00D
:101390000E94820908950E94050B8111ECCFE5CFD0
:1013A0000E94D5060E94ED0A0E946C030E947B0CED
:1013B00008956AE070E083E290E00E94430D81E4CA
:1013C00095E09F938F930E94040F6BE070E083E29F
:1013D00090E00E94430D80E295E09F938F930E94DE
:1013E000040F0E947B0C0F900F900F900F900E94A3
:1013F0006C038F3F21F40E94740C8823C1F30E9478
:101400007B0C08953F924F925F926F927F928F92E2
:101410009F92AF92BF92CF92DF92EF92FF920F9383
:101420001F93CF93DF930E94940D4B015C012B011E
:101430003C0110E033243A94CEE1D3E001E073C0E4
:101440000E946C038F3F09F07AC00E94740C8823BD
:1014500039F1888199810E94B00E111105C08B313C
:1014600009F467C0832D0AC0113029F48B3509F4C3
:1014700062C0832D03C0123009F05FC0843409F0CC
:1014800067C010E080E00E9437070AC0882319F087
:10149000832D833429F482E00E94370701C010E0D5
:1014A0000E94940D6B017C010E944B0981111EC0AA
:1014B000D501C40180579E4FAF4FBF4FC816D90604
:1014C000EA06FB0698F00E94DB060E945109882379
:1014D00059F00E94D9090E9447050E94940D4B01C2
:1014E0005C012B013C0102C0460157010E944B09DF
:1014F000811119C0D301C2018C509E4FAF4FBF4F15
:10150000C816D906EA06FB0670F080E00E9459076B
:10151000802F0E94590782E00E94590783E00E94B1
:101520005907260137010E944B09882309F488CF07
:1015300016C0102FB5CF12E0B3CF10E0B1CF83307B
:1015400009F4A0CF9FEF980F923008F09FCFA8CF5B
:101550009FEB980F923008F4A2CF10E09ACFDF9162
:10156000CF911F910F91FF90EF90DF90CF90BF90A0
:10157000AF909F908F907F906F905F904F903F9033
:1015800008956EE070E083E290E00E94430D86E1F2
:1015900095E09F938F930E94040F60E170E083E2D7
:1015A00090E00E94430D88EF94E09F938F930E94F8
:1015B000040F0F900F900F900F900E946C038F3FBD
:1015C000E1F308950E9486090E9495090E94D009BE
:1015D0000E94020A0E94C10AF9CF109206021092DC
:1015E0000702109208021092090208956093040104
:1015F0009093FE018093FD01109200021092FF0172
:101600001092FC011092FB0108950F931F93CF934A
:10161000DF93CDB7DEB728970FB6F894DEBF0FBEC5
:10162000CDBFE091FF01F0910002309781F014915D
:1016300010FF06C0109200021092FF0100E06BC084
:101640003196F0930002E093FF0100E064C0E09166
:10165000FB01F091FC01309709F449C0CF010196DC
:101660009093FC018093FB01E081E1110AC010928C
:10167000FC011092FB0180E18093FA0100E010E090
:101680004AC08FE98E0F8A3170F4F0E0EE0FFF1F31
:10169000EE52FB4F85919491909300028093FF014D
:1016A00000E010E038C08FEB8E0F8A3170F4F0E06C
:1016B000EE0FFF1FEE5EFA4F85919491909300021A
:1016C0008093FF0100E010E026C080ED8E0F8A308D
:1016D00000F5F0E0EE0FFF1FE05EFA4F8591949168
:1016E000909300028093FF0100E010E014C080910D
:1016F000FD019091FE0101E0009709F000E0909358
:10170000FC018093FB011092FE011092FD0110E09C
:1017100002C000E010E00E947B0920910401FE015C
:101720003896CE010196112314F4208301C0108253
:10173000110F3197E817F907B1F71982BE016F5FF2
:101740007F4F8FE00E945E098091FA01882389F023
:1017500081508093FA01002311F0882311F090E06A
:1017600003C091E001C091E081E0992329F080E07D
:1017700003C00023A1F3F7CF28960FB6F894DEBF7D
:101780000FBECDBFDF91CF911F910F910895CF93E1
:10179000C82F8A3019F48DE00E94C70B9FB790784C
:1017A00002C0992329F180910B028F3FD1F3F89465
:1017B000E0910A0281E08E0F80930A02F0E0E45F7C
:1017C000FD4FC08380910B028F5F80930B0280914D
:1017D0000A028F3F11F410920A02E1ECF0E08081DE
:1017E00080628083992339F0789480E090E005C08E
:1017F00081E090E002C080E090E0CF910895809178
:101800001D038823E1F32FB72078F89480910B0310
:1018100030911D0390E0831B91095AF4E0910B0372
:1018200080911D03F0E0E81BF109E45EFC4F80812C
:101830000AC0E0910B0380911D03F0E0E81BF10961
:10184000E45FFC4F808190911D03915090931D03A4
:10185000222309F0789490E0089510920A021092E1
:101860000B0210920B0310921D0310921C03409365
:101870000102DC01CB01880F991FAA1FBB1F880F33
:10188000991FAA1FBB1F9C01AD01220F331F441FCC
:10189000551F60E072E18AE790E00E94C70DBA012F
:1018A000A9014F5F5F4F6F4F7F4FDB01CA011AF4F1
:1018B0000196A11DB11DB595A7959795879501979F
:1018C0009093C5008093C400E1ECF0E088E1808350
:1018D000808180688083EEE1F3E085E091E093838E
:1018E000828391838083089590911D0381E09111FB
:1018F00001C080E0089510920B0310921D0308951B
:101900001F920F920FB60F9211242F938F939F93D4
:10191000EF93FF9380910B02882329F180910A02B3
:1019200020910B0290E0821B91095AF4E0910A0287
:1019300080910B02F0E0E81BF109E55FFC4F90811C
:101940000AC0E0910A0280910B02F0E0E81BF10965
:10195000E45FFD4F908180910B02815080930B02D8
:101960009093C60005C0E1ECF0E080818F7D80831C
:10197000FF91EF919F918F912F910F900FBE0F903C
:101980001F9018951F920F920FB60F9211242F934C
:101990003F934F935F936F937F938F939F93AF93F7
:1019A000BF93CF93EF93FF93C091C6008091010244
:1019B000882349F080910B028F3F29F060E070E0AE
:1019C0008C2F0E94C70B80911D03803120F081E095
:1019D00080931C0318C0CD3009F4CAE0E0910B03DA
:1019E00081E08E0F80930B03F0E0E45FFC4FC08337
:1019F00080911D038F5F80931D0380910B038031C5
:101A000011F410920B03FF91EF91CF91BF91AF9121
:101A10009F918F917F916F915F914F913F912F9106
:101A20000F900FBE0F901F90189594B1906B94B9C2
:101A30002C9A90E59CBD883021F0803211F08230E4
:101A400019F491E09DBD01C01DBC803269F028F4FD
:101A5000883071F0803161F00EC0803429F0803818
:101A600051F48CB581608CBD8CB582608CBD03C097
:101A70008CB581608CBD2C9808958EBD0DB407FE89
:101A8000FDCF8EB508959F938F937F936F9385E7D6
:101A900096E09F938F930E94040F0F900F900F90EA
:101AA0000F900F900F90089580E796E09F938F938B
:101AB0000E94040F0F900F9008958BE696E09F937D
:101AC0008F930E94040F0F900F9008951F928F9391
:101AD00085E696E09F938F930E94040F0F900F90DE
:101AE0000F900F9008958EE596E09F938F930E943C
:101AF000040F0F900F9008951092020210920302AB
:101B0000109204021092050216BC8CE787BD82E099
:101B100084BD83E085BDEEE6F0E080818260808355
:101B200085B3827085BB08952FB7F8946091020247
:101B300070910302809104029091050222230CF41B
:101B4000789408951F920F920FB60F9211248F93DD
:101B50009F93AF93BF938091020290910302A09153
:101B60000402B09105020196A11DB11D80930202ED
:101B700090930302A0930402B0930502BF91AF912A
:101B80009F918F910F900FBE0F901F901895052E6B
:101B900097FB1EF400940E94DE0D57FD07D00E94B3
:101BA000EC0D07FC03D04EF40C94DE0D50954095DF
:101BB000309521953F4F4F4F5F4F089590958095F9
:101BC000709561957F4F8F4F9F4F0895EE0FFF1FC8
:101BD0000590F491E02D0994A1E21A2EAA1BBB1BDB
:101BE000FD010DC0AA1FBB1FEE1FFF1FA217B307E9
:101BF000E407F50720F0A21BB30BE40BF50B661FFF
:101C0000771F881F991F1A9469F7609570958095C2
:101C100090959B01AC01BD01CF0108958F929F92D9
:101C2000AF92BF92CF92DF92EF92FF92CF93DF936A
:101C3000EC01688179818A819B816115710581053B
:101C4000910521F464E279ED8BE597E02DE133EF26
:101C500041E050E00E94C70D49015A019B01AC01CF
:101C6000A7EAB1E40E94C2116B017C01ACEEB4EFB3
:101C7000A50194010E94D011DC01CB018C0D9D1DAA
:101C8000AE1DBF1DB7FF03C00197A109B0488883EF
:101C90009983AA83BB83BC01CD019F77DF91CF914C
:101CA000FF90EF90DF90CF90BF90AF909F908F907C
:101CB00008958F929F92AF92BF92CF92DF92EF9250
:101CC000FF92609100017091010180910201909159
:101CD0000301611571058105910521F464E279ED37
:101CE0008BE597E02DE133EF41E050E00E94C70D16
:101CF00049015A019B01AC01A7EAB1E40E94C2115B
:101D00006B017C01ACEEB4EFA50194010E94D011EF
:101D1000DC01CB018C0D9D1DAE1DBF1DB7FF03C0A7
:101D20000197A109B0488093000190930101A0930D
:101D30000201B0930301BC01CD019F77FF90EF90AA
:101D4000DF90CF90BF90AF909F908F900895609359
:101D500000017093010180930201909303010895A3
:101D6000CF93DF93EC012B8120FF33C026FF0AC005
:101D70002F7B2B838E819F8101969F838E838A8107
:101D800090E029C022FF0FC0E881F9818081082EF0
:101D9000000C990B009719F420622B831AC031961E
:101DA000F983E8830EC0EA85FB85099597FF09C092
:101DB0002B81019611F080E201C080E1822B8B83A0
:101DC00008C02E813F812F5F3F4F3F832E8399278D
:101DD00002C08FEF9FEFDF91CF910895A0E0B0E0B8
:101DE000E4EFFEE00C94E511AE014B5F5F4FFA01AA
:101DF00061917191AF0180912003909121030E9424
:101E0000310FE2E00C940112A0E0B0E0EAE0FFE064
:101E10000C94E311AE01495F5F4FDA016D917D9142
:101E2000AD010EE113E0F80182819381DC0113968C
:101E30002C911397286013962C930E94310FD80190
:101E40001296ED91FC9113972381277F2383E4E081
:101E50000C94FF1160912003709121030E942811BE
:101E60000895ABE0B0E0E7E3FFE00C94D5116C011E
:101E70007B018A01FC0117821682838181FFCCC11C
:101E8000CE0101963C01F6019381F70193FD859106
:101E900093FF81917F01882309F4BAC1853239F417
:101EA00093FD859193FF81917F01853229F4B601DD
:101EB00090E00E942811E7CF912C212C312CFFE1DA
:101EC000F315D8F08B3279F038F4803279F0833220
:101ED000A1F4232D20611DC08D3261F0803369F49F
:101EE000232D216016C0832D8260382EE32DE460FF
:101EF0003E2E2AC0F32DF8601DC037FC2DC020ED0A
:101F0000280F2A3040F08E32B9F436FC81C1232DDF
:101F10002064322E19C036FE06C08AE0989E200D3D
:101F20001124922E11C0EAE02E9E200D1124222EA3
:101F3000F32DF0623F2E08C08C3621F4832D80688B
:101F4000382E02C0883641F4F70193FD859193FF46
:101F500081917F018111B3CF982F9F7D955493304C
:101F600028F40C5F1F4F9FE399830DC0833631F037
:101F7000833771F0833509F059C021C0F8018081A1
:101F800089830E5F1F4F88248394912C530113C0C3
:101F90002801F2E04F0E511CF801A080B18036FEFE
:101FA00003C0692D70E002C06FEF7FEFC5010E9492
:101FB0001D114C018201F32DFF773F2E16C0280121
:101FC00022E0420E511CF801A080B18036FE03C011
:101FD000692D70E002C06FEF7FEFC5010E94121102
:101FE0004C01F32DF0683F2E820133FC1BC0822D83
:101FF00090E088169906B0F4B60180E290E00E9465
:1020000028112A94F4CFF50137FC859137FE819190
:102010005F01B60190E00E94281121102A9421E06E
:10202000821A91088114910471F7E8C0843611F086
:10203000893641F5F80137FE07C0608171818281E0
:1020400093810C5F1F4F08C060817181072E000CC7
:10205000880B990B0E5F1F4FF32DFF763F2E97FFD6
:1020600009C090958095709561957F4F8F4F9F4FD8
:10207000F0683F2E2AE030E0A3010E946411882E10
:10208000861845C0853731F4232D2F7EB22E2AE0E5
:1020900030E025C0932D997FB92E8F36C1F018F40A
:1020A000883579F0B5C0803719F0883721F0B0C095
:1020B000E92FE061BE2EB4FE0DC0FB2DF460BF2EF3
:1020C00009C034FE0AC0292F2660B22E06C028E0BF
:1020D00030E005C020E130E002C020E132E0F8014C
:1020E000B7FE07C060817181828193810C5F1F4FB1
:1020F00006C06081718180E090E00E5F1F4FA301F8
:102100000E946411882E8618FB2DFF773F2E36FE25
:102110000DC0232D2E7FA22E891458F434FE0BC03F
:1021200032FC09C0832D8E7EA82E05C0B82CA32CAE
:1021300003C0B82C01C0B92CA4FE0FC0FE01E80DED
:10214000F11D8081803321F49A2D997EA92E09C03A
:10215000A2FE06C0B394B39404C08A2D867809F019
:10216000B394A3FC11C0A0FE06C0B21488F4280CDE
:10217000922C9B180EC0B21460F4B60180E290E07D
:102180000E942811B394F7CFB21418F42B1802C090
:10219000982C212CA4FE10C0B60180E390E00E9490
:1021A0002811A2FE17C0A1FC03C088E790E002C07E
:1021B00088E590E0B6010CC08A2D867859F0A1FE22
:1021C00002C08BE201C080E2A7FC8DE2B60190E084
:1021D0000E942811891438F4B60180E390E00E942F
:1021E00028119A94F7CF8A94F301E80DF11D8081AC
:1021F000B60190E00E9428118110F5CF222009F449
:1022000042CEB60180E290E00E9428112A94F6CFD7
:10221000F6018681978102C08FEF9FEF2B96E2E156
:102220000C94F111FC010590615070400110D8F739
:10223000809590958E0F9F1F0895FC01615070400E
:1022400001900110D8F7809590958E0F9F1F0895EB
:102250000F931F93CF93DF93FB01238121FD03C0D5
:102260008FEF9FEF2CC022FF16C04681578124813B
:1022700035814217530744F4A081B1819D012F5F3E
:102280003F4F318320838C93268137812F5F3F4FCF
:102290003783268314C08B01EC01FB010084F18598
:1022A000E02D0995892BE1F6D80116968D919C9128
:1022B0001797019617969C938E931697CE01DF91F0
:1022C000CF911F910F910895FA01AA27283051F15B
:1022D000203181F1E8946F936E7F6E5F7F4F8F4F57
:1022E0009F4FAF4FB1E03ED0B4E03CD0670F781FB6
:1022F000891F9A1FA11D680F791F8A1F911DA11D9B
:102300006A0F711D811D911DA11D20D009F46894D3
:102310003F912AE0269F11243019305D3193DEF67B
:10232000CF010895462F4770405D4193B3E00FD031
:10233000C9F7F6CF462F4F70405D4A3318F0495D1C
:1023400031FD4052419302D0A9F7EACFB4E0A695FF
:102350009795879577956795BA95C9F70097610521
:10236000710508959B01AC010A2E06945795479577
:1023700037952795BA95C9F7620F731F841F951F6C
:10238000A01D08950E940C12A59F900DB49F900D62
:10239000A49F800D911D11240895B7FF0C94C211C4
:1023A0000E94C211821B930B08952F923F924F926D
:1023B0005F926F927F928F929F92AF92BF92CF92D5
:1023C000DF92EF92FF920F931F93CF93DF93CDB7DE
:1023D000DEB7CA1BDB0B0FB6F894DEBF0FBECDBF56
:1023E00009942A88398848885F846E847D848C8427
:1023F0009B84AA84B984C884DF80EE80FD800C8130
:102400001B81AA81B981CE0FD11D0FB6F894DEBF12
:102410000FBECDBFED010895A29FB001B39FC001D3
:10242000A39F700D811D1124911DB29F700D811D00
:0A2430001124911D0895F894FFCFC8
:10243A00010000000F0000000300000000C70BFFAE
:10244A000B0000257300E2948000E2948200E2947B
:10245A008C00E2949000E2949400E2949800E29452
:10246A009C00E294A400E294B400E294AC00E294EA
:10247A00BC00E197A400E197A200E197A700E197C9
:10248A00A300420146014A014E01292A2E2D50413C
:06249A00434D414E00001D
:00000001FF
