:100000000C9449030C9466030C9466030C946603E9
:100010000C9466030C94A3030C9466030C9466037F
:100020000C9466030C9466030C9466030C946603AC
:100030000C9466030C9466030C9466030C9466039C
:100040000C94D20D0C9466030C9466030C94660316
:100050000C94F20C0C94B00C0C9466030C94660394
:100060000C9466030C9466030C9466030C9466036C
:100070000C9466030C9466030C9466031206210626
:100080002106210621062106210621062106210638
:100090002106070621068F051C06210621062106DA
:1000A00021062106210621062106B005210621068A
:1000B00021062106E0052106D30521062106210699
:1000C0002106210621062106A50521062106210675
:1000D000C6052106BB0521062106210617062106B5
:1000E00021062106210621062106210621062106D8
:1000F0002106210621062106ED05210621062106FD
:1001000021062106210621062106210621062106B7
:1001100021062106210621062106210621062106A7
:100120002106210621062106FA05210621062106BF
:10013000210621069A05462D2D2D2D2D2D2D2D2DF7
:100140002D2D2D2D762D762D2D2D2D2D2D2D2D2D4D
:100150002D2D2D2D377C2E2E2E2E2E2E2E2E2E2E6C
:100160002E2E2E7C207C2E2E2E2E2E2E2E2E2E2E21
:100170002E2E2E7C7C2E462D2D2D372E462D2D2DD0
:10018000372E7C207C2E462D2D2D372E462D2D2DC5
:10019000372E7C7C2E7C2020207C2E4C2D2D2D4A31
:1001A0002E4C2D4A2E4C2D2D2D4A2E7C2020207C8D
:1001B0002E7C7C2E7C2020207C2E2E2E2E2E2E2E51
:1001C0002E2E2E2E2E2E2E2E2E2E7C2020207C2EDD
:1001D0007C7C2E7C2020207C2E462D2D2D372E46FB
:1001E0002D372E462D2D2D372E7C2020207C2E7C49
:1001F0007C504C2D2D2D4A2E4C2D2D2D4A2E4C2D24
:100200004A2E4C2D2D2D4A2E4C2D2D2D4A507C7CC6
:100210002E2E2E2E2E2E2E2E2E2E2E2E2E2E2E2EFE
:100220002E2E2E2E2E2E2E2E2E2E2E2E2E7C7C2E52
:10023000462D2D2D372E46372E462D2D2D2D2D2D8D
:100240002D372E46372E462D2D2D372E7C7C2E4CCD
:100250002D2D2D4A2E7C7C2E4C2D2D3720462D2DDC
:100260004A2E7C7C2E4C2D2D2D4A2E7C7C2E2E2E23
:100270002E2E2E2E7C7C2E2E2E2E7C207C2E2E2E74
:100280002E7C7C2E2E2E2E2E2E2E7C4C2D2D2D2D8A
:100290002D372E7C4C2D2D37207C207C20462D2D7B
:1002A0004A7C2E462D2D2D2D2D4A20202020202029
:1002B0007C2E7C462D2D4A204C2D4A204C2D2D374E
:1002C0007C2E7C2020202020202020202020207C0C
:1002D0002E7C7C20202020202020202020207C7CA0
:1002E0002E7C2020202020202D2D2D2D2D2D4A2E1E
:1002F0004C4A20462D2D2020202D2D37204C4A2ED3
:100300004C2D2D2D2D2D2D202020202020202E2065
:1003100020207C202020202020207C2020202E2017
:100320002020202020202D2D2D2D2D2D372E46371D
:10033000204C2D2D2D2D2D2D2D4A2046372E462D8E
:100340002D2D2D2D2D2020202020207C2E7C7C204A
:10035000202020202020202020207C7C2E7C20207B
:10036000202020202020202020207C2E7C7C204645
:100370002D2D2D2D2D2D2D37207C7C2E7C202020E9
:10038000202020462D2D2D2D2D4A2E4C4A204C2D3F
:100390002D3720462D2D4A204C4A2E4C2D2D2D2D0B
:1003A0002D377C2E2E2E2E2E2E2E2E2E2E2E2E2E17
:1003B0007C207C2E2E2E2E2E2E2E2E2E2E2E2E2ECF
:1003C0007C7C2E462D2D2D372E462D2D2D372E7C27
:1003D000207C2E462D2D2D372E462D2D2D372E7C73
:1003E0007C2E4C2D37207C2E4C2D2D2D4A2E4C2D25
:1003F0004A2E4C2D2D2D4A2E7C20462D4A2E7C7CBB
:10040000502E2E7C207C2E2E2E2E2E2E2E2E202E6A
:100410002E2E2E2E2E2E2E7C207C2E2E507C3E2DEF
:10042000372E7C207C2E46372E462D2D2D2D2D2D22
:100430002D372E46372E7C207C2E462D3C3E2D4AD5
:100440002E4C2D4A2E7C7C2E4C2D2D3720462D2DCA
:100450004A2E7C7C2E4C2D4A2E4C2D3C7C2E2E2E52
:100460002E2E2E2E7C7C2E2E2E2E7C207C2E2E2E82
:100470002E7C7C2E2E2E2E2E2E2E7C7C2E462D2D4E
:100480002D2D2D4A4C2D2D372E7C207C2E462D2DAA
:100490004A4C2D2D2D2D2D372E7C7C2E4C2D2D2D87
:1004A0002D2D2D2D2D2D4A2E4C2D4A2E4C2D2D2D02
:1004B0002D2D2D2D2D2D4A2E7C7C2E2E2E2E2E2EAA
:1004C0002E2E2E2E2E2E2E2E2E2E2E2E2E2E2E2E4C
:1004D0002E2E2E2E2E2E2E7C4C2D2D2D2D2D2D2DD7
:1004E0002D2D2D2D2D2D2D2D2D2D2D2D2D2D2D2D3C
:1004F0002D2D2D2D2D2D4A005072657373206120F6
:10050000627574746F6E20746F20737461727420DE
:10051000616761696E0047414D45204F5645520065
:1005200050757368206120627574746F6E206F72ED
:10053000206B657920746F20636F6E74696E7565CA
:10054000004C6576656C20636F6D706C657465003A
:1005500053747564656E74204E756D6265723A20D1
:100560003434333137393632004353534532303126
:10057000302070726F6A656374206279203C4A751E
:10058000616E20457370617265733E005061632D2A
:100590004D616E00FF05FC05F805F405F005EC055E
:1005A000E805E405E005DC056E066A0666066206F7
:1005B0005E065A06560652064F064B064706430687
:1005C0003E063A06360632062D0629062506200680
:1005D0001C06170612060D06080603066492927D95
:1005E0006C92926D809EA0C17C92924DE4A2A29DDD
:1005F000182848FF4492926D468A926342FE037C1B
:1006000092A27D868A92A2C3E0100E10E1C6281045
:1006100028C7FC021C02FDF8040204F9FC0202FDDA
:100620008080FE80816492924DFE9098677C828AE1
:100630007C03FE9090617C82827DFE2010FFFE4054
:100640003040FFFE020203FE1028C7040202FD82B2
:10065000FE83FE1010FF7C82925DFE909081FE92E0
:100660009283FE82827D7C828245FE92926D7E9094
:10067000907F1B5B3F32356C001B5B25646D001B5C
:100680005B324A001B5B306D001B5B25643B2564BD
:10069000480011241FBECFEFD8E0DEBFCDBF11E070
:1006A000A0E0B1E0EAE9F4E202C005900D92A836BC
:1006B000B107D9F723E0A8E6B1E001C01D92A63248
:1006C000B207E1F70E94120B0C944B120C9400003D
:1006D000E8E6F0E0808182608083D99AECE6F0E081
:1006E00080818F60808310926801089580916801F5
:1006F00018163CF5809169016FB7F89490916801E4
:100700009230B4F021E030E091E0F901E759FE4F7A
:100710004081F901E859FE4F40839F5F292F30E067
:1007200040916801042E000C550B241735076CF31B
:100730009091680191509093680166231CF478941D
:1007400008958FEF08951F920F920FB60F92112404
:100750002F933F934F935F936F937F938F939F93C9
:10076000EF93FF9343B14F7080E090E0642F70E00F
:1007700020916801243004F59B01082E02C03595B4
:1007800027950A94E2F720FF17C020916D0130E011
:10079000082E02C0359527950A94E2F720FD0CC07B
:1007A000E091680121E02E0F209368010E2E000CCD
:1007B000FF0BE759FE4F8083019684309105C1F607
:1007C00040936D01FF91EF919F918F917F916F9178
:1007D0005F914F913F912F910F900FBE0F901F90FF
:1007E00018956F3039F494EF980F81E0973060F0EE
:1007F00080E008956E3039F492EF980F81E09330E5
:1008000018F080E0089580E00895CF92DF92EF9293
:10081000FF92413091F028F0423049F0433099F096
:100820005EC0882309F45DC020E09FEF11C08E31C7
:1008300009F459C020E091E00BC0662309F455C0CB
:100840002FEF90E005C06E3109F451C021E090E037
:10085000620F890F90917D01891305C090917C01F1
:10086000691709F446C0A7E7B1E0E3E7F1E090E0DB
:100870002D91821304C02081621709F43CC09F5F50
:1008800031969430A9F7462F50E0282F30E0FA0136
:10089000EE0FFF1FEE0FFF1FE058FE4FC080D1800C
:1008A000E280F380082E04C0F694E794D794C794AE
:1008B0000A94D2F7C0FC21C09FE1949FF001959F5C
:1008C000F00D1124E20FF31FEA5CFE4FE491E032D9
:1008D000C1F0EE32B1F0E035A1F08EEF17C08EEF2F
:1008E00015C08EEF13C08EEF11C08EEF0FC08EEFCC
:1008F0000DC08DEF0BC0892F09C08CEF07C08FEFA3
:1009000005C00E94F1038111FACF8BEFFF90EF90A9
:10091000DF90CF900895CF92DF92EF92FF920F93E6
:100920001F93CF93DF93082FF62E0E94F103E82E3A
:10093000C0E0D0E010E0CC24C394D12C4C2F6F2D1C
:10094000802F0E9405048E3F4CF4C6010C2E02C07D
:10095000880F991F0A94E2F7182B0CC0EE2051F073
:100960008F3F41F4C6010C2E02C0880F991F0A94D4
:10097000E2F7182B2196C430D10501F7812FDF91C2
:10098000CF911F910F91FF90EF90DF90CF9008953E
:1009900070E06F5F7F4F90E001960E94730D81E2DF
:1009A0000E94960DE0917B01F0E0EE0FFF1FEE5AE2
:1009B000FE4F81818F9380818F9383E191E09F939C
:1009C0008F930E941E0F0E94840D0F900F900F9026
:1009D0000F9008950F931F93CF93DF93182F062F37
:1009E000C42FD0E0862F90E0BE016F5F7F4F01964D
:1009F0000E94730DE12FF0E0E65AFE4F80810E94C5
:100A0000960DCC0FDD1FCC0FDD1FC058DE4F888147
:100A10009981AA81BB8104C0B695A79597958795C2
:100A20000A95D2F780FF05C08EE290E00E945A0F2F
:100A300004C080E290E00E945A0F0E94840DDF9172
:100A4000CF911F910F9108951F93CF93DF93182F8C
:100A5000C62FD0E090E0BE016F5F7F4F01960E94ED
:100A6000730DCC0FDD1FCC0FDD1FC058DE4F88810A
:100A70009981AA81BB8104C0B695A7959795879562
:100A80001A95D2F780FF05C08EE290E00E945A0FBF
:100A900004C080E290E00E945A0FDF91CF911F9135
:100AA00008952F923F924F925F926F927F928F9212
:100AB0009F92AF92BF92CF92DF92EF92FF920F93ED
:100AC0001F93CF93DF930E948D0D0E94840D0E948F
:100AD000A30D61E070E081E090E00E94730D0F2EA5
:100AE000F5E56F2EF1E07F2EF02D0F2EFEE32F2E79
:100AF000F1E03F2EF02D0F2EF3E14F2EF1E05F2EAF
:100B0000F02DB6C0F601849190E0FC01B097ED3570
:100B1000F10508F096C0E25CFF4F0C94160E9F9210
:100B20008F925F924F920E941E0F0F900F900F9026
:100B30000F908BC0BF92AF925F924F920E941E0F98
:100B40000F900F900F900F9080C0DF93CF935F9224
:100B50004F920E941E0F0F900F900F900F9075C034
:100B60001F930F935F924F920E941E0F0F900F9052
:100B70000F900F906AC0FF92EF925F924F920E9487
:100B80001E0F0F900F900F900F905FC08AE291E0C0
:100B90009F938F935F924F920E941E0F0F900F9022
:100BA0000F900F9052C08EE291E09F938F935F92CF
:100BB0004F920E941E0F0F900F900F900F9045C004
:100BC00082E391E09F938F935F924F920E941E0F5A
:100BD0000F900F900F900F9038C086E391E09F9395
:100BE0008F935F924F920E941E0F0F900F900F9065
:100BF0000F902BC08AE391E09F938F935F924F9267
:100C00000E941E0F0F900F900F900F901EC03F92EA
:100C10002F925F924F920E941E0F0F900F900F9095
:100C20000F9013C080E290E00E945A0F0EC08EE237
:100C300090E00E945A0F09C08EE290E00E945A0F85
:100C400004C088E790E00E945A0FFFEFCF1ADF0A36
:100C50006C147D0409F056CF8AE090E00E945A0F90
:100C60002FE1620E711C86E195E086159705D9F09B
:100C700063019FE1C91AD1080F2EF6E2EF2EF1E0D1
:100C8000FF2EF02D02E211E0CEE1D1E00F2EFAE1CD
:100C9000AF2EF1E0BF2EF02D0F2EF6E18F2EF1E0FA
:100CA0009F2EF02D2FCFC0E8D1E040E050E020E0B3
:100CB00030E0812C912C54018394DE01188219823A
:100CC0001A821B8280E090E0FC01E20FF31FEA5CD5
:100CD000FE4FE491EE3211F0E035D1F44D905D908D
:100CE0006D907C90139775016401082E04C0CC0CA4
:100CF000DD1CEE1CFF1C0A94D2F7C428D528E62878
:100D0000F728CD92DD92ED92FC9213974F5F5F4FE3
:100D100001968F319105C1F6215E3F4F2496213C0B
:100D2000E3E03E0751F650937F0140937E018FE050
:100D300080937D0187E180937C0182E080937B0139
:100D400067E18FE00E94C8040F2EF7E7AF2EF1E0B5
:100D5000BF2EF02D0F2EF3E7CF2EF1E0DF2EF02D7A
:100D60000F2EFFE6EF2EF1E0FF2EF02DDCE0C0E0CD
:100D70001FE002E0F501D1935F01F60111936F01CD
:100D8000F70101937F01412F6D2F8C2F0E94EA0400
:100D9000CF5FDE5FC43071F7DF91CF911F910F916C
:100DA000FF90EF90DF90CF90BF90AF909F908F908B
:100DB0007F906F905F904F903F902F9008950E948A
:100DC000510581E080936E0108951F93CF93DF93C7
:100DD00080916E01882309F45EC010917C01D0914E
:100DE0007D0140917B01612F8D2F0E940504C82F4A
:100DF0008E3F09F452C0612F8D2F0E9424058091EF
:100E00007B0181110FC080917D01815080937D0114
:100E1000811125C080917C018F3009F58EE180938E
:100E20007D011DC0823071F480917D018F5F8093C0
:100E30007D018E31A1F480917C018F3081F410927C
:100E40007D010DC0813031F480917C01815080930F
:100E50007C0105C080917C018F5F80937C01CC2355
:100E600094F0EC2FCC0FFF0BE65AFE4F80810E94CE
:100E7000960D60917C0180917D010E94C8041092C2
:100E80006E0181E00BC060917C0180917D010E9428
:100E9000C80481E003C080E001C080E0DF91CF9111
:100EA0001F9108951F93CF93DF9390916E01992323
:100EB000A1F0C82F10917C01D0917D01482F612FA6
:100EC0008D2F0E9405048E3F51F0C0937B01612F4E
:100ED0008D2F0E94C80481E003C080E001C080E043
:100EE000DF91CF911F910895FF920F931F93CF939E
:100EF000DF9390916E01992309F4E2C1C82F90E02D
:100F0000FC01E958FE4F1081FC01ED58FE4FF080C6
:100F1000FC01E159FE4FD0816F2D812F0E948B047F
:100F2000082F882309F4CCC16F2D812F0E94F10373
:100F3000882309F445C101FF43C19AC100917D0195
:100F4000011BD0917C01DF196F2D812F0E948B0432
:100F5000882309F4B5C1402F002E000C550B5523F2
:100F60001CF45195419551092D2F0D2E000C330B7A
:100F700033231CF4319521953109421753074CF462
:100F8000DD231CF481FF05C073C11D1614F483FD1D
:100F900083C1002354F480FD44C1DD231CF481FF90
:100FA0003CC166C183FD78C138C182FD4DC1DD23DE
:100FB0001CF481FF14C15CC183FD6EC110C181E0CE
:100FC00090E0AB01082E02C0559547950A94E2F7D0
:100FD00040FDA0C001968430910599F771C1002EA3
:100FE000000C110B4D2F50E0C8010D2E02C095953D
:100FF00087950A94E2F780FD94C0DC0FD3702D2F03
:101000000D2E000C330BC8010D2E02C0959587954F
:101010000A94E2F780FD85C02E5F3F4F2370307841
:10102000332334F4215031092C6F3F6F2F5F3F4F32
:10103000022E02C0159507950A94E2F700FD6CC0D8
:101040009A012E5F3F4F23703078332334F42150C0
:1010500031092C6F3F6F2F5F3F4FD22F62C0002EA0
:10106000000C110B20917B01C801022E02C0959546
:1010700087950A94E2F780FF02C0D22F52C00E94E7
:10108000890EDC01CB0183709927AA27B078BB2396
:1010900054F40197A109B1098C6F9F6FAF6FBF6FB7
:1010A0000196A11DB11D482F682F880F770B9B015A
:1010B00023703078332334F4215031092C6F3F6F83
:1010C0002F5F3F4FC801022E02C0959587950A9465
:1010D000E2F780FD23C06F5F7F4F042E000C550B9D
:1010E0004C5F5F4FCB0183709078992324F4019774
:1010F0008C6F9F6F0196282FF80102C0F595E79538
:101100008A95E2F7E0FD0CC06F5F7F4F64177507AB
:1011100049F7D6C0D82F05C0D22F03C0D22F01C0A7
:10112000D22FDD230CF4CCC00C2F0C2E000C110B95
:10113000D801AD58BE4FF801E958FE4F6C9180813F
:101140000E942405F801E159FE4FD083D130B9F057
:101150001CF4DD2331F020C0D23051F0D330B1F097
:101160001BC0F801E958FE4F80818150808314C074
:10117000F801E958FE4F80818F5F80830DC0F80130
:10118000ED58FE4F80818150808306C0F801ED58F4
:10119000FE4F80818F5F8083F801ED58FE4F4081C4
:1011A000F801E958FE4F608180917D01681331C0DC
:1011B00080917C0148132DC019C00E94840D80C00D
:1011C000C13009F40CCF24F4CC2309F4B7CE78C095
:1011D000C23009F444CFC33009F401CF71C0682F85
:1011E000082E000C770B80FFEACE1BC010926E0118
:1011F000F801E65AFE4F80810E94960DD801AD5845
:10120000BE4FF801E958FE4F6C9180810E94C804DE
:10121000D4CF8C2F0E94EA04D0CF682F880F770B91
:10122000CECE0C2F0C2E000C110BD801AD58BE4F9A
:10123000F801E958FE4F6C9180810E942405F80165
:10124000E159FE4F10828DCF0C2F0C2E000C110B8C
:10125000D801AD58BE4FF801E958FE4F6C9180811E
:101260000E942405F801E159FE4F82E0808380CF7F
:101270000C2F0C2E000C110BD801AD58BE4FF801ED
:10128000E958FE4F6C9180810E942405F801E159D4
:10129000FE4F81E0808373CF0C2F0C2E000C110BBE
:1012A000D801AD58BE4FF801E958FE4F6C918081CE
:1012B0000E942405F801E159FE4F83E0808366CF48
:1012C000DF91CF911F910F91FF90089581E0909150
:1012D0006E01911180E0089581E020917E013091AE
:1012E0007F01232B09F080E0089580E80E94450DDE
:1012F00008950F931F93CF93DF93803190F48B0168
:10130000C82F83E00E946D0D8C2F8F700E946D0D91
:10131000E801085F1F4F89910E946D0DC017D1072A
:10132000D1F7DF91CF911F910F91089584E00E9432
:101330006D0D82E00E946D0D08958FE00E946D0D8D
:1013400008950E9475090E94680340E060E07BE414
:1013500080E090E00E945D0C0E94AC0D78940895AE
:101360000E948D0D6AE070E08AE090E00E94730DAB
:101370008CE895E09F938F930E94340F6CE070E0AF
:101380008AE090E00E94730D89E695E09F938F9329
:101390000E94340F6EE070E08AE090E00E94730DCE
:1013A00080E595E09F938F930E94340F0E949D09E2
:1013B0000F900F900F900F900F900F9060EF8EE5B1
:1013C00091E00E94260B10C02FE789EA93E021509C
:1013D00080409040E1F700C000000E9476038F3FFC
:1013E00019F00E949D0908950E94350B8111ECCFE0
:1013F000E5CF0E94DF060E941D0B0E9476030E942B
:10140000AB0C08956AE070E083E290E00E94730DF7
:1014100081E495E09F938F930E94340F6BE070E01E
:1014200083E290E00E94730D80E295E09F938F939A
:101430000E94340F0E94AB0C0F900F900F900F90F2
:101440000E9476038F3F21F40E94A40C8823C1F3ED
:101450000E94AB0C08953F924F925F926F927F92E1
:101460008F929F92AF92BF92CF92DF92EF92FF92B4
:101470000F931F93CF93DF930E94C40D4B015C0128
:101480002B013C0100E033243A94C0E2D3E07EC05B
:101490000E947603182F8F3F09F084C00E94A40C8D
:1014A000882389F1888199810E94E00E011105C08D
:1014B0008B3109F471C0832D0AC0013029F48B35BA
:1014C00009F46CC0832D03C0023009F069C0813477
:1014D00009F06BC000E080E00E94520714C000E0F9
:1014E00081E00E9452070FC0113011F0833521F4C2
:1014F00083E00E94520707C0112311F0843419F4CD
:1015000082E00E9452070E94C40D6B017C010E9480
:10151000660981111EC0D501C40180579E4FAF4F8F
:10152000BF4FC816D906EA06FB0698F00E94E506EA
:101530000E946C09882359F00E94020A0E945105FA
:101540000E94C40D4B015C012B013C0102C046010D
:1015500057010E946609811119C0D301C2018C5044
:101560009E4FAF4FBF4FC816D906EA06FB0670F074
:1015700080E00E94740781E00E94740782E00E946C
:10158000740783E00E947407260137010E946609F0
:10159000882309F47DCF13C001E0B5CF02E0B3CFBB
:1015A00000E0B1CF833031F496CF873509F497CF7F
:1015B00000E09ACF823009F493CF832D95CFDF914D
:1015C000CF911F910F91FF90EF90DF90CF90BF9040
:1015D000AF909F908F907F906F905F904F903F90D3
:1015E00008956EE070E083E290E00E94730D86E162
:1015F00095E09F938F930E94340F60E170E083E247
:1016000090E00E94730D88EF94E09F938F930E9467
:10161000340F0F900F900F900F900E9476038F3F22
:10162000E1F308950E94A1090E94B0090E94F909FE
:101630000E942B0A0E94F10AF9CF10920802109220
:10164000090210920A0210920B020895609304019D
:10165000909300028093FF01109202021092010207
:101660001092FE011092FD0108950F931F93CF93E6
:10167000DF93CDB7DEB728970FB6F894DEBF0FBE65
:10168000CDBFE0910102F0910202309781F01491F8
:1016900010FF06C0109202021092010200E06BC01F
:1016A0003196F0930202E093010200E064C0E09101
:1016B000FD01F091FE01309709F449C0CF01019678
:1016C0009093FE018093FD01E081E1110AC0109228
:1016D000FE011092FD0180E18093FC0100E010E02A
:1016E0004AC08FE98E0F8A3170F4F0E0EE0FFF1FD1
:1016F000EA51FB4F859194919093020280930102ED
:1017000000E010E038C08FEB8E0F8A3170F4F0E00B
:10171000EE0FFF1FEA5DFA4F8591949190930202BC
:101720008093010200E010E026C080ED8E0F8A3029
:1017300000F5F0E0EE0FFF1FEC5CFA4F85919491FD
:10174000909302028093010200E010E014C08091A7
:10175000FF019091000201E0009709F000E09093F2
:10176000FE018093FD01109200021092FF0110E033
:1017700002C000E010E00E94960920910401FE01E1
:101780003896CE010196112314F4208301C01082F3
:10179000110F3197E817F907B1F71982BE016F5F92
:1017A0007F4F8FE00E9479098091FC01882389F0A6
:1017B00081508093FC01002311F0882311F090E008
:1017C00003C091E001C091E081E0992329F080E01D
:1017D00003C00023A1F3F7CF28960FB6F894DEBF1D
:1017E0000FBECDBFDF91CF911F910F910895CF9381
:1017F000C82F8A3019F48DE00E94F70B9FB79078BC
:1018000002C0992329F180910D028F3FD1F3F89402
:10181000E0910C0281E08E0F80930C02F0E0E25F19
:10182000FD4FC08380910D028F5F80930D028091E8
:101830000C028F3F11F410920C02E1ECF0E0808179
:1018400080628083992339F0789480E090E005C02D
:1018500081E090E002C080E090E0CF910895809117
:101860001F038823E1F32FB72078F89480910D03AC
:1018700030911F0390E0831B91095AF4E0910D030E
:1018800080911F03F0E0E81BF109E25EFC4F8081CC
:101890000AC0E0910D0380911F03F0E0E81BF109FD
:1018A000E25FFC4F808190911F03915090931F0342
:1018B000222309F0789490E0089510920C0210927F
:1018C0000D0210920D0310921F0310921E034093FD
:1018D0000302DC01CB01880F991FAA1FBB1F880FD1
:1018E000991FAA1FBB1F9C01AD01220F331F441F6C
:1018F000551F60E072E18AE790E00E94F70DBA019F
:10190000A9014F5F5F4F6F4F7F4FDB01CA011AF490
:101910000196A11DB11DB595A7959795879501973E
:101920009093C5008093C400E1ECF0E088E18083EF
:10193000808180688083E0E2F3E085E091E093833A
:10194000828391838083089590911F0381E0911198
:1019500001C080E0089510920D0310921F030895B6
:101960001F920F920FB60F9211242F938F939F9374
:10197000EF93FF9380910D02882329F180910C024F
:1019800020910D0290E0821B91095AF4E0910C0223
:1019900080910D02F0E0E81BF109E35FFC4F9081BC
:1019A0000AC0E0910C0280910D02F0E0E81BF10901
:1019B000E25FFD4F908180910D02815080930D0276
:1019C0009093C60005C0E1ECF0E080818F7D8083BC
:1019D000FF91EF919F918F912F910F900FBE0F90DC
:1019E0001F9018951F920F920FB60F9211242F93EC
:1019F0003F934F935F936F937F938F939F93AF9397
:101A0000BF93CF93EF93FF93C091C60080910302E1
:101A1000882349F080910D028F3F29F060E070E04B
:101A20008C2F0E94F70B80911F03803120F081E002
:101A300080931E0318C0CD3009F4CAE0E0910D0375
:101A400081E08E0F80930D03F0E0E25FFC4FC083D6
:101A500080911F038F5F80931F0380910D0380315E
:101A600011F410920D03FF91EF91CF91BF91AF91BF
:101A70009F918F917F916F915F914F913F912F91A6
:101A80000F900FBE0F901F90189594B1906B94B962
:101A90002C9A90E59CBD883021F0803211F0823084
:101AA00019F491E09DBD01C01DBC803269F028F49D
:101AB000883071F0803161F00EC0803429F08038B8
:101AC00051F48CB581608CBD8CB582608CBD03C037
:101AD0008CB581608CBD2C9808958EBD0DB407FE29
:101AE000FDCF8EB508959F938F937F936F9389E871
:101AF00096E09F938F930E94340F0F900F900F905A
:101B00000F900F900F90089584E896E09F938F9325
:101B10000E94340F0F900F9008958FE796E09F93E7
:101B20008F930E94340F0F900F9008951F928F9300
:101B300089E796E09F938F930E94340F0F900F9048
:101B40000F900F90089582E796E09F938F930E94E5
:101B5000340F0F900F900895109204021092050216
:101B6000109206021092070216BC8CE787BD82E035
:101B700084BD83E085BDEEE6F0E0808182608083F5
:101B800085B3827085BB08952FB7F89460910402E5
:101B900070910502809106029091070222230CF4B5
:101BA000789408951F920F920FB60F9211248F937D
:101BB0009F93AF93BF938091040290910502A091EF
:101BC0000602B09107020196A11DB11D8093040287
:101BD00090930502A0930602B0930702BF91AF91C4
:101BE0009F918F910F900FBE0F901F901895052E0B
:101BF00097FB1EF400940E940E0E57FD07D00E9422
:101C00001C0E07FC03D04EF40C940E0E509540951C
:101C1000309521953F4F4F4F5F4F08959095809598
:101C2000709561957F4F8F4F9F4F0895EE0FFF1F67
:101C30000590F491E02D0994A1E21A2EAA1BBB1B7A
:101C4000FD010DC0AA1FBB1FEE1FFF1FA217B30788
:101C5000E407F50720F0A21BB30BE40BF50B661F9E
:101C6000771F881F991F1A9469F760957095809562
:101C700090959B01AC01BD01CF0108958F929F9279
:101C8000AF92BF92CF92DF92EF92FF92CF93DF930A
:101C9000EC01688179818A819B81611571058105DB
:101CA000910521F464E279ED8BE597E02DE133EFC6
:101CB00041E050E00E94F70D49015A019B01AC013F
:101CC000A7EAB1E40E94F2116B017C01ACEEB4EF23
:101CD000A50194010E940012DC01CB018C0D9D1D19
:101CE000AE1DBF1DB7FF03C00197A109B04888838F
:101CF0009983AA83BB83BC01CD019F77DF91CF91EC
:101D0000FF90EF90DF90CF90BF90AF909F908F901B
:101D100008958F929F92AF92BF92CF92DF92EF92EF
:101D2000FF926091000170910101809102019091F8
:101D30000301611571058105910521F464E279EDD6
:101D40008BE597E02DE133EF41E050E00E94F70D85
:101D500049015A019B01AC01A7EAB1E40E94F211CA
:101D60006B017C01ACEEB4EFA50194010E9400125E
:101D7000DC01CB018C0D9D1DAE1DBF1DB7FF03C047
:101D80000197A109B0488093000190930101A093AD
:101D90000201B0930301BC01CD019F77FF90EF904A
:101DA000DF90CF90BF90AF909F908F9008956093F9
:101DB0000001709301018093020190930301089543
:101DC000CF93DF93EC012B8120FF33C026FF0AC0A5
:101DD0002F7B2B838E819F8101969F838E838A81A7
:101DE00090E029C022FF0FC0E881F9818081082E90
:101DF000000C990B009719F420622B831AC03196BE
:101E0000F983E8830EC0EA85FB85099597FF09C031
:101E10002B81019611F080E201C080E1822B8B833F
:101E200008C02E813F812F5F3F4F3F832E8399272C
:101E300002C08FEF9FEFDF91CF910895A0E0B0E057
:101E4000E4E2FFE00C941512AE014B5F5F4FFA0124
:101E500061917191AF0180912203909123030E94BF
:101E6000610FE2E00C943112A0E0B0E0EAE3FFE0A1
:101E70000C941312AE01495F5F4FDA016D917D91B1
:101E8000AD0100E213E0F80182819381DC01139639
:101E90002C911397286013962C930E94610FD80100
:101EA0001296ED91FC9113972381277F2383E4E021
:101EB0000C942F1260912203709123030E945811F9
:101EC0000895ABE0B0E0E7E6FFE00C9405126C018A
:101ED0007B018A01FC0117821682838181FFCCC1BC
:101EE000CE0101963C01F6019381F70193FD8591A6
:101EF00093FF81917F01882309F4BAC1853239F4B7
:101F000093FD859193FF81917F01853229F4B6017C
:101F100090E00E945811E7CF912C212C312CFFE149
:101F2000F315D8F08B3279F038F4803279F08332BF
:101F3000A1F4232D20611DC08D3261F0803369F43E
:101F4000232D216016C0832D8260382EE32DE4609E
:101F50003E2E2AC0F32DF8601DC037FC2DC020EDA9
:101F6000280F2A3040F08E32B9F436FC81C1232D7F
:101F70002064322E19C036FE06C08AE0989E200DDD
:101F80001124922E11C0EAE02E9E200D1124222E43
:101F9000F32DF0623F2E08C08C3621F4832D80682B
:101FA000382E02C0883641F4F70193FD859193FFE6
:101FB00081917F018111B3CF982F9F7D95549330EC
:101FC00028F40C5F1F4F9FE399830DC0833631F0D7
:101FD000833771F0833509F059C021C0F801808141
:101FE00089830E5F1F4F88248394912C530113C063
:101FF0002801F2E04F0E511CF801A080B18036FE9E
:1020000003C0692D70E002C06FEF7FEFC5010E9431
:102010004D114C018201F32DFF773F2E16C0280190
:1020200022E0420E511CF801A080B18036FE03C0B0
:10203000692D70E002C06FEF7FEFC5010E94421171
:102040004C01F32DF0683F2E820133FC1BC0822D22
:1020500090E088169906B0F4B60180E290E00E9404
:1020600058112A94F4CFF50137FC859137FE819100
:102070005F01B60190E00E94581121102A9421E0DE
:10208000821A91088114910471F7E8C0843611F026
:10209000893641F5F80137FE07C060817181828180
:1020A00093810C5F1F4F08C060817181072E000C67
:1020B000880B990B0E5F1F4FF32DFF763F2E97FF76
:1020C00009C090958095709561957F4F8F4F9F4F78
:1020D000F0683F2E2AE030E0A3010E949411882E80
:1020E000861845C0853731F4232D2F7EB22E2AE085
:1020F00030E025C0932D997FB92E8F36C1F018F4AA
:10210000883579F0B5C0803719F0883721F0B0C034
:10211000E92FE061BE2EB4FE0DC0FB2DF460BF2E92
:1021200009C034FE0AC0292F2660B22E06C028E05E
:1021300030E005C020E130E002C020E132E0F801EB
:10214000B7FE07C060817181828193810C5F1F4F50
:1021500006C06081718180E090E00E5F1F4FA30197
:102160000E949411882E8618FB2DFF773F2E36FE95
:102170000DC0232D2E7FA22E891458F434FE0BC0DF
:1021800032FC09C0832D8E7EA82E05C0B82CA32C4E
:1021900003C0B82C01C0B92CA4FE0FC0FE01E80D8D
:1021A000F11D8081803321F49A2D997EA92E09C0DA
:1021B000A2FE06C0B394B39404C08A2D867809F0B9
:1021C000B394A3FC11C0A0FE06C0B21488F4280C7E
:1021D000922C9B180EC0B21460F4B60180E290E01D
:1021E0000E945811B394F7CFB21418F42B1802C000
:1021F000982C212CA4FE10C0B60180E390E00E9430
:102200005811A2FE17C0A1FC03C088E790E002C0ED
:1022100088E590E0B6010CC08A2D867859F0A1FEC1
:1022200002C08BE201C080E2A7FC8DE2B60190E023
:102230000E945811891438F4B60180E390E00E949E
:1022400058119A94F7CF8A94F301E80DF11D80811B
:10225000B60190E00E9458118110F5CF222009F4B8
:1022600042CEB60180E290E00E9458112A94F6CF47
:10227000F6018681978102C08FEF9FEF2B96E2E1F6
:102280000C942112FC010590615070400110D8F7A8
:10229000809590958E0F9F1F0895FC0161507040AE
:1022A00001900110D8F7809590958E0F9F1F08958B
:1022B0000F931F93CF93DF93FB01238121FD03C075
:1022C0008FEF9FEF2CC022FF16C0468157812481DB
:1022D00035814217530744F4A081B1819D012F5FDE
:1022E0003F4F318320838C93268137812F5F3F4F6F
:1022F0003783268314C08B01EC01FB010084F18538
:10230000E02D0995892BE1F6D80116968D919C91C7
:102310001797019617969C938E931697CE01DF918F
:10232000CF911F910F910895FA01AA27283051F1FA
:10233000203181F1E8946F936E7F6E5F7F4F8F4FF6
:102340009F4FAF4FB1E03ED0B4E03CD0670F781F55
:10235000891F9A1FA11D680F791F8A1F911DA11D3A
:102360006A0F711D811D911DA11D20D009F4689473
:102370003F912AE0269F11243019305D3193DEF61B
:10238000CF010895462F4770405D4193B3E00FD0D1
:10239000C9F7F6CF462F4F70405D4A3318F0495DBC
:1023A00031FD4052419302D0A9F7EACFB4E0A6959F
:1023B0009795879577956795BA95C9F700976105C1
:1023C000710508959B01AC010A2E06945795479517
:1023D00037952795BA95C9F7620F731F841F951F0C
:1023E000A01D08950E943C12A59F900DB49F900DD2
:1023F000A49F800D911D11240895B7FF0C94F21134
:102400000E94F211821B930B08952F923F924F92DC
:102410005F926F927F928F929F92AF92BF92CF9274
:10242000DF92EF92FF920F931F93CF93DF93CDB77D
:10243000DEB7CA1BDB0B0FB6F894DEBF0FBECDBFF5
:1024400009942A88398848885F846E847D848C84C6
:102450009B84AA84B984C884DF80EE80FD800C81CF
:102460001B81AA81B981CE0FD11D0FB6F894DEBFB2
:102470000FBECDBFED010895A29FB001B39FC00173
:10248000A39F700D811D1124911DB29F700D811DA0
:0A2490001124911D0895F894FFCF68
:10249A00010000000F0000000300000000F70B2FEE
:1024AA000C0000257300E2948000E2948200E2941A
:1024BA008C00E2949000E2949400E2949800E294F2
:1024CA009C00E294A400E294B400E294AC00E2948A
:1024DA00BC00E197A400E197A200E197A700E19769
:1024EA00A300420146014A014E01292A2E2D343405
:0824FA0033313739363200009E
:00000001FF
