:100000000C9449030C9466030C9466030C946603E9
:100010000C9466030C94A3030C9466030C9466037F
:100020000C9466030C9466030C9466030C946603AC
:100030000C9466030C9466030C9466030C9466039C
:100040000C943D0F0C9466030C9466030C946603A9
:100050000C945D0E0C941B0E0C9466030C946603BA
:100060000C9466030C9466030C9466030C9466036C
:100070000C9466030C9466030C9466031906280618
:100080002806280628062806280628062806280600
:1000900028060E06280696052306280628062806A2
:1000A00028062806280628062806B7052806280652
:1000B00028062806E7052806DA0528062806280661
:1000C0002806280628062806AC052806280628063D
:1000D000CD052806C2052806280628061E0628067D
:1000E00028062806280628062806280628062806A0
:1000F0002806280628062806F405280628062806C5
:10010000280628062806280628062806280628067F
:10011000280628062806280628062806280628066F
:100120002806280628062806010628062806280686
:1001300028062806A105462D2D2D2D2D2D2D2D2DE2
:100140002D2D2D2D762D762D2D2D2D2D2D2D2D2D4D
:100150002D2D2D2D377C2E2E2E2E2E2E2E2E2E2E6C
:100160002E2E2E7C207C2E2E2E2E2E2E2E2E2E2E21
:100170002E2E2E7C7C2E462D2D2D372E462D2D2DD0
:10018000372E7C207C2E462D2D2D372E462D2D2DC5
:10019000372E7C7C2E7C2020207C2E4C2D2D2D4A31
:1001A0002E4C2D4A2E4C2D2D2D4A2E7C2020207C8D
:1001B0002E7C7C2E7C2020207C2E2E2E2E2E2E2E51
:1001C0002E2E2E2E2E2E2E2E2E2E7C2020207C2EDD
:1001D0007C7C2E7C2020207C2E462D2D2D372E46FB
:1001E0002D372E462D2D2D372E7C2020207C2E7C49
:1001F0007C504C2D2D2D4A2E4C2D2D2D4A2E4C2D24
:100200004A2E4C2D2D2D4A2E4C2D2D2D4A507C7CC6
:100210002E2E2E2E2E2E2E2E2E2E2E2E2E2E2E2EFE
:100220002E2E2E2E2E2E2E2E2E2E2E2E2E7C7C2E52
:10023000462D2D2D372E46372E462D2D2D2D2D2D8D
:100240002D372E46372E462D2D2D372E7C7C2E4CCD
:100250002D2D2D4A2E7C7C2E4C2D2D3720462D2DDC
:100260004A2E7C7C2E4C2D2D2D4A2E7C7C2E2E2E23
:100270002E2E2E2E7C7C2E2E2E2E7C207C2E2E2E74
:100280002E7C7C2E2E2E2E2E2E2E7C4C2D2D2D2D8A
:100290002D372E7C4C2D2D37207C207C20462D2D7B
:1002A0004A7C2E462D2D2D2D2D4A20202020202029
:1002B0007C2E7C462D2D4A204C2D4A204C2D2D374E
:1002C0007C2E7C2020202020202020202020207C0C
:1002D0002E7C7C20202020202020202020207C7CA0
:1002E0002E7C2020202020202D2D2D2D2D2D4A2E1E
:1002F0004C4A20462D2D2020202D2D37204C4A2ED3
:100300004C2D2D2D2D2D2D202020202020202E2065
:1003100020207C202020202020207C2020202E2017
:100320002020202020202D2D2D2D2D2D372E46371D
:10033000204C2D2D2D2D2D2D2D4A2046372E462D8E
:100340002D2D2D2D2D2020202020207C2E7C7C204A
:10035000202020202020202020207C7C2E7C20207B
:10036000202020202020202020207C2E7C7C204645
:100370002D2D2D2D2D2D2D37207C7C2E7C202020E9
:10038000202020462D2D2D2D2D4A2E4C4A204C2D3F
:100390002D3720462D2D4A204C4A2E4C2D2D2D2D0B
:1003A0002D377C2E2E2E2E2E2E2E2E2E2E2E2E2E17
:1003B0007C207C2E2E2E2E2E2E2E2E2E2E2E2E2ECF
:1003C0007C7C2E462D2D2D372E462D2D2D372E7C27
:1003D000207C2E462D2D2D372E462D2D2D372E7C73
:1003E0007C2E4C2D37207C2E4C2D2D2D4A2E4C2D25
:1003F0004A2E4C2D2D2D4A2E7C20462D4A2E7C7CBB
:10040000502E2E7C207C2E2E2E2E2E2E2E2E202E6A
:100410002E2E2E2E2E2E2E7C207C2E2E507C3E2DEF
:10042000372E7C207C2E46372E462D2D2D2D2D2D22
:100430002D372E46372E7C207C2E462D3C3E2D4AD5
:100440002E4C2D4A2E7C7C2E4C2D2D3720462D2DCA
:100450004A2E7C7C2E4C2D4A2E4C2D3C7C2E2E2E52
:100460002E2E2E2E7C7C2E2E2E2E7C207C2E2E2E82
:100470002E7C7C2E2E2E2E2E2E2E7C7C2E462D2D4E
:100480002D2D2D4A4C2D2D372E7C207C2E462D2DAA
:100490004A4C2D2D2D2D2D372E7C7C2E4C2D2D2D87
:1004A0002D2D2D2D2D2D4A2E4C2D4A2E4C2D2D2D02
:1004B0002D2D2D2D2D2D4A2E7C7C2E2E2E2E2E2EAA
:1004C0002E2E2E2E2E2E2E2E2E2E2E2E2E2E2E2E4C
:1004D0002E2E2E2E2E2E2E7C4C2D2D2D2D2D2D2DD7
:1004E0002D2D2D2D2D2D2D2D2D2D2D2D2D2D2D2D3C
:1004F0002D2D2D2D2D2D4A005072657373206120F6
:10050000627574746F6E20746F20737461727420DE
:10051000616761696E0047414D45204F5645520065
:1005200050757368206120627574746F6E206F72ED
:10053000206B657920746F20636F6E74696E7565CA
:10054000004C6576656C20636F6D706C657465003A
:1005500053747564656E74204E756D6265723A20D1
:100560003434333137393632004353534532303126
:10057000302070726F6A656374206279203C4A751E
:10058000616E20457370617265733E005061632D2A
:100590004D616E00FF05FC05F805F405F005EC055E
:1005A000E805E405E005DC056E066A0666066206F7
:1005B0005E065A06560652064F064B064706430687
:1005C0003E063A06360632062D0629062506200680
:1005D0001C06170612060D06080603066492927D95
:1005E0006C92926D809EA0C17C92924DE4A2A29DDD
:1005F000182848FF4492926D468A926342FE037C1B
:1006000092A27D868A92A2C3E0100E10E1C6281045
:1006100028C7FC021C02FDF8040204F9FC0202FDDA
:100620008080FE80816492924DFE9098677C828AE1
:100630007C03FE9090617C82827DFE2010FFFE4054
:100640003040FFFE020203FE1028C7040202FD82B2
:10065000FE83FE1010FF7C82925DFE909081FE92E0
:100660009283FE82827D7C828245FE92926D7E9094
:10067000907F1B5B3F32356C001B5B25646D001B5C
:100680005B324A001B5B306D001B5B25643B2564BD
:10069000480011241FBECFEFD8E0DEBFCDBF11E070
:1006A000A0E0B1E0E0EDF7E202C005900D92A63ABD
:1006B000B107D9F723E0A6EAB1E001C01D92A9363F
:1006C000B207E1F70E944D0C0C94E6130C94000065
:1006D000E8E6F0E0808182608083D99AECE6F0E081
:1006E00080818F6080831092A60108958091A60179
:1006F00018163CF58091A7016FB7F8949091A60168
:100700009230B4F021E030E091E0F901E955FE4F7C
:100710004081F901EA55FE4F40839F5F292F30E069
:100720004091A601042E000C550B241735076CF3DD
:100730009091A60191509093A60166231CF47894A1
:1007400008958FEF08951F920F920FB60F92112404
:100750002F933F934F935F936F937F938F939F93C9
:10076000EF93FF9343B14F7080E090E0642F70E00F
:100770002091A601243004F59B01082E02C0359576
:1007800027950A94E2F720FF17C02091AB0130E0D3
:10079000082E02C0359527950A94E2F720FD0CC07B
:1007A000E091A60121E02E0F2093A6010E2E000C51
:1007B000FF0BE955FE4F8083019684309105C1F609
:1007C0004093AB01FF91EF919F918F917F916F913A
:1007D0005F914F913F912F910F900FBE0F901F90FF
:1007E00018956F3039F494EF980F81E0973060F0EE
:1007F00080E008956E3039F492EF980F81E09330E5
:1008000018F080E0089580E00895CF92DF92EF9293
:10081000FF92413091F028F0423049F0433099F096
:100820005EC0882309F45DC020E09FEF11C08E31C7
:1008300009F459C020E091E00BC0662309F455C0CB
:100840002FEF90E005C06E3109F451C021E090E037
:10085000620F890F9091BB01891305C09091BA0175
:10086000691709F446C0A5EBB1E0E1EBF1E090E0D7
:100870002D91821304C02081621709F43CC09F5F50
:1008800031969430A9F7462F50E0282F30E0FA0136
:10089000EE0FFF1FEE0FFF1FE154FE4FC080D1800F
:1008A000E280F380082E04C0F694E794D794C794AE
:1008B0000A94D2F7C0FC21C09FE1949FF001959F5C
:1008C000F00D1124E20FF31FEA5CFE4FE491E032D9
:1008D000C1F0EE32B1F0E035A1F08EEF17C08EEF2F
:1008E00015C08EEF13C08EEF11C08EEF0FC08EEFCC
:1008F0000DC08DEF0BC0892F09C08CEF07C08FEFA3
:1009000005C00E94F1038111FACF8BEFFF90EF90A9
:10091000DF90CF900895CF92DF92EF92FF920F93E6
:100920001F93CF93DF93082FF62E0E94F103E82E3A
:10093000C0E0D0E010E0CC24C394D12C4C2F6F2D1C
:10094000802F0E9405048E3F4CF4C6010C2E02C07D
:10095000880F991F0A94E2F7182B0CC0EE2051F073
:100960008F3F41F4C6010C2E02C0880F991F0A94D4
:10097000E2F7182B2196C430D10501F7812FDF91C2
:10098000CF911F910F91FF90EF90DF90CF9008953E
:1009900070E06F5F7F4F90E001960E94DE0E81E273
:1009A0000E94010FE091B901F0E0EE0FFF1FEF563A
:1009B000FE4F81818F9380818F9383E191E09F939C
:1009C0008F930E9489100E94EF0E0F900F900F904E
:1009D0000F9008950F931F93CF93DF93182F062F37
:1009E000C42FD0E0862F90E0BE016F5F7F4F01964D
:1009F0000E94DE0EE12FF0E0E756FE4F80810E945C
:100A0000010FCC0FDD1FCC0FDD1FC154DE4F8881DD
:100A10009981AA81BB8104C0B695A79597958795C2
:100A20000A95D2F780FF05C08EE290E00E94C510C3
:100A300004C080E290E00E94C5100E94EF0EDF919A
:100A4000CF911F910F9108951F93CF93DF93182F8C
:100A5000C62FD0E090E0BE016F5F7F4F01960E94ED
:100A6000DE0ECC0FDD1FCC0FDD1FC154DE4F8881A1
:100A70009981AA81BB8104C0B695A7959795879562
:100A80001A95D2F780FF05C08EE290E00E94C51053
:100A900004C080E290E00E94C510DF91CF911F91C9
:100AA00008958091BC01089583E08093BC0108956E
:100AB0002F923F924F925F926F927F928F929F926E
:100AC000AF92BF92CF92DF92EF92FF920F931F935C
:100AD000CF93DF930E94F80E0E94EF0E0E940E0F3C
:100AE00061E070E081E090E00E94DE0E0F2EF5E5FF
:100AF0006F2EF1E07F2EF02D0F2EFEE32F2EF1E072
:100B00003F2EF02D0F2EF3E14F2EF1E05F2EF02D52
:100B1000B6C0F601849190E0FC01B097ED35F10587
:100B200008F096C0E25CFF4F0C94810F9F928F9269
:100B30005F924F920E9489100F900F900F900F902C
:100B40008BC0BF92AF925F924F920E9489100F901C
:100B50000F900F900F9080C0DF93CF935F924F92D2
:100B60000E9489100F900F900F900F9075C01F93E7
:100B70000F935F924F920E9489100F900F900F90E9
:100B80000F906AC0FF92EF925F924F920E9489107D
:100B90000F900F900F900F905FC08AE291E09F93AB
:100BA0008F935F924F920E9489100F900F900F9039
:100BB0000F9052C08EE291E09F938F935F924F927D
:100BC0000E9489100F900F900F900F9045C082E304
:100BD00091E09F938F935F924F920E9489100F90A4
:100BE0000F900F900F9038C086E391E09F938F9302
:100BF0005F924F920E9489100F900F900F900F906C
:100C00002BC08AE391E09F938F935F924F920E9453
:100C100089100F900F900F900F901EC03F922F924F
:100C20005F924F920E9489100F900F900F900F903B
:100C300013C080E290E00E94C5100EC08EE290E0EA
:100C40000E94C51009C08EE290E00E94C51004C049
:100C500088E790E00E94C510FFEFCF1ADF0A6C14FE
:100C60007D0409F056CF8AE090E00E94C5102FE184
:100C7000620E711C86E195E086159705D9F0630137
:100C80009FE1C91AD1080F2EF6E2EF2EF1E0FF2EF8
:100C9000F02D02E211E0CEE1D1E00F2EFAE1AF2E0D
:100CA000F1E0BF2EF02D0F2EF6E18F2EF1E09F2EFA
:100CB000F02D2FCFCFEBD1E040E050E020E030E04E
:100CC000812C912C54018394DE01188219821A829E
:100CD0001B8280E090E0FC01E20FF31FEA5CFE4F14
:100CE000E491EE3211F0E035D1F44D905D906D90CD
:100CF0007C90139775016401082E04C0CC0CDD1C98
:100D0000EE1CFF1C0A94D2F7C428D528E628F72841
:100D1000CD92DD92ED92FC9213974F5F5F4F01965B
:100D20008F319105C1F6215E3F4F2496213CE3E0CF
:100D30003E0751F65093BE014093BD018FE0809372
:100D4000BB0187E18093BA0182E08093B90167E13A
:100D50008FE00E94C8040F2EF5EBAF2EF1E0BF2EFE
:100D6000F02D0F2EF1EBCF2EF1E0DF2EF02D0F2E18
:100D7000FDEAEF2EF1E0FF2EF02DDCE0C0E01FE0F9
:100D800002E0F501D1935F01F60111936F01F701C4
:100D900001937F01412F6D2F8C2F0E94EA04CF5FBA
:100DA000DE5FC43071F7DF91CF911F910F91FF90FB
:100DB000EF90DF90CF90BF90AF909F908F907F90FB
:100DC0006F905F904F903F902F9008950E9458052C
:100DD00081E08093AC010895CF92DF92EF92FF9271
:100DE0001F93CF93DF938091AC01882309F402C154
:100DF0001091BA01D091BB014091B901612F8D2FA3
:100E00000E940504C82F8E3F09F4F6C0612F8D2F74
:100E10000E9424058091B90181110FC08091BB010E
:100E200081508093BB01811125C08091BA018F3020
:100E300009F58EE18093BB011DC0823071F4809171
:100E4000BB018F5F8093BB018E31A1F48091BA0109
:100E50008F3081F41092BB010DC0813031F480914C
:100E6000BA0181508093BA0105C08091BA018F5FA9
:100E70008093BA01CC2384F0EC2FCC0FFF0BE75604
:100E8000FE4F80810E94010F6091BA018091BB01E9
:100E90000E94C80481E0B1C0CC3F09F0A3C0E0913A
:100EA000BA01F0E0EE0FFF1FEE0FFF1FE154FE4FFF
:100EB00081E090E0A0E0B0E00090BB0104C0880FAA
:100EC000991FAA1FBB1F0A94D2F780959095A095F1
:100ED000B095408151816281738184239523A6233B
:100EE000B72380839183A283B3838091BD019091C6
:100EF000BE0101979093BE018093BD018AE090E00E
:100F00000E94610C68E070E087E390E00E94DE0ED2
:100F100082E491E09F938F938BE491E09F938F9372
:100F20000E94891069E070E087E390E00E94DE0E85
:100F30000E94760C9F938F937F936F9380E591E04F
:100F40009F938F930E9489100E94760C6B017C0105
:100F50000E94880C2DB73EB7265F3F4F0FB6F8941E
:100F60003EBF0FBE2DBF6C157D058E059F0520F47D
:100F70000E94760C0E947F0C6AE070E087E390E0AC
:100F80000E94DE0E87E591E00E94CC106BE070E0DD
:100F900087E390E00E94DE0E0E94880C9F938F935F
:100FA0007F936F9383E691E09F938F930E948910C4
:100FB0006FE070E087E390E00E94DE0E8091BE015A
:100FC0008F938091BD018F9389E691E09F938F93DA
:100FD0000E9489108DB79EB70A960FB6F8949EBFEF
:100FE0000FBE8DBF6091BA018091BB010E94C80401
:100FF00081E003C080E001C080E0DF91CF911F91CC
:10100000FF90EF90DF90CF9008951F93CF93DF93E1
:101010009091AC019923A1F0C82F1091BA01D09101
:10102000BB01482F612F8D2F0E9405048E3F51F088
:10103000C093B901612F8D2F0E94C80481E003C0C5
:1010400080E001C080E0DF91CF911F910895FF9271
:101050000F931F93CF93DF939091AC01992309F4E1
:10106000E9C1C82F90E0FC01EB54FE4F1081FC0158
:10107000EF54FE4FF080FC01E355FE4FD0816F2D01
:10108000812F0E948B04082F882309F4D3C16F2D70
:10109000812F0E94F103882309F445C101FF43C158
:1010A000A1C10091BB01011BD091BA01DF196F2DC5
:1010B000812F0E948B04882309F4BCC1402F002E8D
:1010C000000C550B55231CF45195419551092D2FBA
:1010D0000D2E000C330B33231CF43195219531096F
:1010E000421753074CF4DD231CF481FF05C07AC17D
:1010F0001D1614F483FD8AC1002354F480FD4BC1F6
:10110000DD231CF481FF43C16DC183FD7FC13FC15D
:1011100082FD54C1DD231CF481FF14C163C183FD32
:1011200075C110C181E090E0AB01082E02C0559559
:1011300047950A94E2F740FDA0C0019684309105DE
:1011400099F778C1002E000C110B4D2F50E0C8010B
:101150000D2E02C0959587950A94E2F780FD94C004
:10116000DC0FD3702D2F0D2E000C330BC8010D2E6C
:1011700002C0959587950A94E2F780FD85C02E5FA1
:101180003F4F23703078332334F4215031092C6FD2
:101190003F6F2F5F3F4F022E02C0159507950A94AF
:1011A000E2F700FD6CC09A012E5F3F4F237030784C
:1011B000332334F4215031092C6F3F6F2F5F3F4FA1
:1011C000D22F62C0002E000C110B2091B901C80172
:1011D000022E02C0959587950A94E2F780FF02C01F
:1011E000D22F52C00E94F40FDC01CB0183709927EB
:1011F000AA27B078BB2354F40197A109B1098C6FD9
:101200009F6FAF6FBF6F0196A11DB11D482F682F53
:10121000880F770B9B0123703078332334F42150EF
:1012200031092C6F3F6F2F5F3F4FC801022E02C064
:10123000959587950A94E2F780FD23C06F5F7F4FF5
:10124000042E000C550B4C5F5F4FCB0183709078E0
:10125000992324F401978C6F9F6F0196282FF80132
:1012600002C0F595E7958A95E2F7E0FD0CC06F5F47
:101270007F4F6417750749F7DDC0D82F05C0D22FFF
:1012800003C0D22F01C0D22FDD230CF4D3C00C2F0A
:101290000C2E000C110BD801AF54BE4FF801EB54CB
:1012A000FE4F6C9180810E942405F801E355FE4FAA
:1012B000D083D130B9F01CF4DD2331F020C0D2301E
:1012C00051F0D330B1F01BC0F801EB54FE4F8081D8
:1012D0008150808314C0F801EB54FE4F80818F5FF2
:1012E00080830DC0F801EF54FE4F808181508083D0
:1012F00006C0F801EF54FE4F80818F5F8083F801B4
:10130000EF54FE4F4081F801EB54FE4F6081809115
:10131000BB01681338C08091BA01481334C019C0AA
:101320000E94EF0E87C0C13009F40CCF24F4CC2307
:1013300009F4B7CE7FC0C23009F444CFC33009F4FA
:1013400001CF78C0682F082E000C770B80FFEACE03
:1013500022C08091BC0181508093BC014FE06CE0C1
:101360008C2F0E94EA04E801CF54DE4F0B541E4F2D
:101370006881F80180810E94C8048CE0F8018083B4
:101380008FE08883CDCF8C2F0E94EA04C9CF682FCD
:10139000880F770BC7CE0C2F0C2E000C110BD80129
:1013A000AF54BE4FF801EB54FE4F6C9180810E9408
:1013B0002405F801E355FE4F108286CF0C2F0C2E2A
:1013C000000C110BD801AF54BE4FF801EB54FE4F87
:1013D0006C9180810E942405F801E355FE4F82E064
:1013E000808379CF0C2F0C2E000C110BD801AF5439
:1013F000BE4FF801EB54FE4F6C9180810E94240592
:10140000F801E355FE4F81E080836CCF0C2F0C2E4A
:10141000000C110BD801AF54BE4FF801EB54FE4F36
:101420006C9180810E942405F801E355FE4F83E012
:1014300080835FCFDF91CF911F910F91FF9008952F
:1014400081E09091AC01911180E0089581E02091BC
:10145000BD013091BE01232B09F080E0089580E8A2
:101460000E94B00E08950F931F93CF93DF938031A6
:1014700090F48B01C82F83E00E94D80E8C2F8F70C0
:101480000E94D80EE801085F1F4F89910E94D80E74
:10149000C017D107D1F7DF91CF911F910F91089518
:1014A00084E00E94D80E82E00E94D80E08958FE05A
:1014B0000E94D80E08950E942F0A0E94680340E0FF
:1014C00060E07BE480E090E00E94C80D0E94170F6E
:1014D000789408950E94F80E6AE070E08AE090E047
:1014E0000E94DE0E8CE895E09F938F930E949F10E0
:1014F0006CE070E08AE090E00E94DE0E89E695E004
:101500009F938F930E949F106EE070E08AE090E0BE
:101510000E94DE0E80E595E09F938F930E949F10BE
:101520000E94570A0F900F900F900F900F900F90FE
:1015300060EF8DE991E00E94910C10C02FE789EADD
:1015400093E0215080409040E1F700C000000E94ED
:1015500076038F3F19F00E94570A08950E94A00C4D
:101560008111ECCFE5CF6AE070E083E290E00E9469
:10157000DE0E81E495E09F938F930E949F106BE0B5
:1015800070E083E290E00E94DE0E80E295E09F939F
:101590008F930E949F100E94160E0F900F900F9035
:1015A0000F900E9476038F3F21F40E940F0E882334
:1015B000C1F30E94160E08956EE070E083E290E0A1
:1015C0000E94DE0E86E195E09F938F930E949F100C
:1015D00060E170E083E290E00E94DE0E88EF94E02C
:1015E0009F938F930E949F100F900F900F900F90DA
:1015F0000E9476038F3FE1F308950E94510518B8C9
:10160000813011F488B90895823019F483E088B9E3
:101610000895833011F487E088B908950E94E606A2
:101620000E94580C0E9454050E94FD0A0E947603F5
:101630000E94160E08953F924F925F926F927F9292
:101640008F929F92AF92BF92CF92DF92EF92FF92D2
:101650000F931F93CF93DF93CDB7DEB72C970FB6C1
:10166000F894DEBF0FBECDBF0E942F0F4B015C016F
:1016700069877A878B879C876D837E838F83988722
:1016800069837A838B839C832B013C01312C0FEF80
:10169000CEC00E947603182F0E94FD0A1F3F09F05A
:1016A000D6C00E940F0E882309F43FC0E3E6F3E0A2
:1016B000808191810E944B10311005C08B3109F45B
:1016C000BFC0902F0DC0F1E03F1205C08B3509F46B
:1016D000BAC0902F05C092E039121FC0982F802FFA
:1016E000913409F0B7C0312C80E00E9405081DC07C
:1016F000312C81E00E94050818C0113011F093359B
:1017000021F483E00E94050810C0112311F09434E5
:1017100029F482E00E94050808C0312C8F7D8035B5
:1017200021F08E3411F40E940E0B0E942F0F6B01DA
:101730007C010E94200A81111EC0D501C40180577E
:101740009E4FAF4FBF4FC816D906EA06FB0698F06A
:101750000E94EC060E94260A882359F00E94B30AD0
:101760000E9458050E942F0F4B015C012B013C0188
:1017700002C0460157010E94200A811110C0D30106
:10178000C2018C559E4FAF4FBF4FC816D906EA060F
:10179000FB0628F080E00E942708260137010E94FE
:1017A000200A811114C089819A81AB81BC818E533A
:1017B0009E4FAF4FBF4FC816D906EA06FB0638F05A
:1017C00081E00E942708C982DA82EB82FC820E94B3
:1017D000200A811114C08D819E81AF81B8858C5003
:1017E0009E4FAF4FBF4FC816D906EA06FB0638F02A
:1017F00082E00E942708CD82DE82EF82F8860E9476
:10180000200A811114C089859A85AB85BC85865CC8
:101810009D4FAF4FBF4FC816D906EA06FB0638F0FA
:1018200083E00E942708C986DA86EB86FC860E9440
:10183000200A81111AC00E94510581112ACF15C0BA
:101840003324339472CF6894332431F86ECF13303D
:1018500031F44ACF973509F44BCF312C4ECF1230AB
:1018600009F447CF902F802F48CF2C960FB6F894CD
:10187000DEBF0FBECDBFDF91CF911F910F91FF90C3
:10188000EF90DF90CF90BF90AF909F908F907F9020
:101890006F905F904F903F9008950E945B0A0E9466
:1018A0006A0A0E940E0B0E941B0B0E94DC0AF9CFF1
:1018B00010924B0210924C0210924D0210924E0266
:1018C000089540914B0250914C0260914D027091ED
:1018D0004E02480F591F611D711D40934B025093DA
:1018E0004C0260934D0270934E02089560914B023A
:1018F00070914C0280914D0290914E020895609338
:101900004702709348028093490290934A020895D7
:1019100060914702709148028091490290914A0279
:1019200008956093040190933F0280933E021092C9
:1019300041021092400210923D0210923C02089522
:101940000F931F93CF93DF93CDB7DEB728970FB6D2
:10195000F894DEBF0FBECDBFE0914002F09141028E
:10196000309781F0149110FF06C01092410210923E
:10197000400200E06BC03196F0934102E0934002D8
:1019800000E064C0E0913C02F0913D02309709F420
:1019900049C0CF01019690933D0280933C02E081C3
:1019A000E1110AC010923D0210923C0280E1809346
:1019B0003B0200E010E04AC08FE98E0F8A3170F4DC
:1019C000F0E0EE0FFF1FEA51FB4F85919491909349
:1019D00041028093400200E010E038C08FEB8E0F90
:1019E0008A3170F4F0E0EE0FFF1FEA5DFA4F859147
:1019F0009491909341028093400200E010E026C051
:101A000080ED8E0F8A3000F5F0E0EE0FFF1FEC5CEA
:101A1000FA4F85919491909341028093400200E0A7
:101A200010E014C080913E0290913F0201E00097C7
:101A300009F000E090933D0280933C0210923F0237
:101A400010923E0210E002C000E010E00E94500A36
:101A500020910401FE013896CE010196112314F461
:101A6000208301C01082110F3197E817F907B1F7F1
:101A70001982BE016F5F7F4F8FE00E94330A809111
:101A80003B02882389F0815080933B02002311F0B0
:101A9000882311F090E003C091E001C091E081E063
:101AA000992329F080E003C00023A1F3F7CF289603
:101AB0000FB6F894DEBF0FBECDBFDF91CF911F915F
:101AC0000F910895CF93C82F8A3019F48DE00E94AA
:101AD000620D9FB7907802C0992329F1809150023E
:101AE0008F3FD1F3F894E0914F0281E08E0F809305
:101AF0004F02F0E0EF5AFD4FC083809150028F5F9C
:101B00008093500280914F028F3F11F410924F0248
:101B1000E1ECF0E0808180628083992339F0789451
:101B200080E090E005C081E090E002C080E090E0BD
:101B3000CF910895809162038823E1F32FB7207835
:101B4000F894809150033091620390E0831B9109D7
:101B50005AF4E091500380916203F0E0E81BF10930
:101B6000EF59FC4F80810AC0E091500380916203DD
:101B7000F0E0E81BF109EF5AFC4F8081909162037D
:101B8000915090936203222309F0789490E0089595
:101B900010924F0210925002109250031092620362
:101BA0001092610340934202DC01CB01880F991F20
:101BB000AA1FBB1F880F991FAA1FBB1F9C01AD0145
:101BC000220F331F441F551F60E072E18AE790E047
:101BD0000E94620FBA01A9014F5F5F4F6F4F7F4FA5
:101BE000DB01CA011AF40196A11DB11DB595A79597
:101BF0009795879501979093C5008093C400E1EC79
:101C0000F0E088E18083808180688083E3E6F3E010
:101C100085E091E0938382839183808308959091FE
:101C2000620381E0911101C080E008951092500399
:101C30001092620308951F920F920FB60F92112413
:101C40002F938F939F93EF93FF938091500288235C
:101C500029F180914F022091500290E0821B91095E
:101C60005AF4E0914F0280915002F0E0E81BF10934
:101C7000E05BFC4F90810AC0E0914F0280915002DE
:101C8000F0E0E81BF109EF5AFD4F9081809150027E
:101C90008150809350029093C60005C0E1ECF0E0C3
:101CA00080818F7D8083FF91EF919F918F912F9104
:101CB0000F900FBE0F901F9018951F920F920FB6A6
:101CC0000F9211242F933F934F935F936F937F93C2
:101CD0008F939F93AF93BF93CF93EF93FF93C09155
:101CE000C60080914202882349F0809150028F3FC4
:101CF00029F060E070E08C2F0E94620D80916203F9
:101D0000803120F081E08093610318C0CD3009F468
:101D1000CAE0E091500381E08E0F80935003F0E021
:101D2000EF5AFC4FC083809162038F5F8093620300
:101D300080915003803111F410925003FF91EF9184
:101D4000CF91BF91AF919F918F917F916F915F9153
:101D50004F913F912F910F900FBE0F901F901895AC
:101D600094B1906B94B92C9A90E59CBD883021F089
:101D7000803211F0823019F491E09DBD01C01DBC8C
:101D8000803269F028F4883071F0803161F00EC043
:101D9000803429F0803851F48CB581608CBD8CB5CD
:101DA00082608CBD03C08CB581608CBD2C98089579
:101DB0008EBD0DB407FEFDCF8EB508959F938F9312
:101DC0007F936F9389E896E09F938F930E949F1073
:101DD0000F900F900F900F900F900F90089584E840
:101DE00096E09F938F930E949F100F900F900895FD
:101DF0008FE796E09F938F930E949F100F900F9014
:101E000008951F928F9389E796E09F938F930E9486
:101E10009F100F900F900F900F90089582E796E01B
:101E20009F938F930E949F100F900F900895109290
:101E3000430210924402109245021092460216BCD0
:101E40008CE787BD82E084BD83E085BDEEE6F0E0EF
:101E500080818260808385B3827085BB08952FB7AF
:101E6000F8946091430270914402809145029091F0
:101E7000460222230CF4789408951F920F920FB615
:101E80000F9211248F939F93AF93BF93809143023E
:101E900090914402A0914502B09146020196A11D85
:101EA000B11D8093430290934402A0934502B093E6
:101EB0004602BF91AF919F918F910F900FBE0F90EF
:101EC0001F901895052E97FB1EF400940E94790F21
:101ED00057FD07D00E94870F07FC03D04EF40C94E7
:101EE000790F50954095309521953F4F4F4F5F4F5B
:101EF000089590958095709561957F4F8F4F9F4F76
:101F00000895EE0FFF1F0590F491E02D0994A1E2D2
:101F10001A2EAA1BBB1BFD010DC0AA1FBB1FEE1F63
:101F2000FF1FA217B307E407F50720F0A21BB30BAE
:101F3000E40BF50B661F771F881F991F1A9469F72A
:101F400060957095809590959B01AC01BD01CF0186
:101F500008958F929F92AF92BF92CF92DF92EF92AD
:101F6000FF92CF93DF93EC01688179818A819B8115
:101F7000611571058105910521F464E279ED8BE528
:101F800097E02DE133EF41E050E00E94620F4901FC
:101F90005A019B01AC01A7EAB1E40E948D136B01C9
:101FA0007C01ACEEB4EFA50194010E949B13DC010F
:101FB000CB018C0D9D1DAE1DBF1DB7FF03C001974A
:101FC000A109B04888839983AA83BB83BC01CD0152
:101FD0009F77DF91CF91FF90EF90DF90CF90BF90F0
:101FE000AF909F908F9008958F929F92AF92BF92E3
:101FF000CF92DF92EF92FF92609100017091010108
:10200000809102019091030161157105810591058F
:1020100021F464E279ED8BE597E02DE133EF41E0C7
:1020200050E00E94620F49015A019B01AC01A7EAEE
:10203000B1E40E948D136B017C01ACEEB4EFA501FD
:1020400094010E949B13DC01CB018C0D9D1DAE1DE4
:10205000BF1DB7FF03C00197A109B04880930001DD
:1020600090930101A0930201B0930301BC01CD0143
:102070009F77FF90EF90DF90CF90BF90AF909F90B1
:102080008F90089560930001709301018093020185
:10209000909303010895CF93DF93EC012B8120FFF0
:1020A00033C026FF0AC02F7B2B838E819F81019630
:1020B0009F838E838A8190E029C022FF0FC0E88130
:1020C000F9818081082E000C990B009719F4206289
:1020D0002B831AC03196F983E8830EC0EA85FB850D
:1020E000099597FF09C02B81019611F080E201C08C
:1020F00080E1822B8B8308C02E813F812F5F3F4F71
:102100003F832E83992702C08FEF9FEFDF91CF91FE
:102110000895A0E0B0E0EFE8F0E10C94B013AE0158
:102120004B5F5F4FFA0161917191AF01809165033F
:10213000909166030E94FC10E2E00C94CC13A0E0A6
:10214000B0E0E5EAF0E10C94AE13AE01495F5F4FF9
:10215000DA016D917D91AD0103E613E0F801828112
:102160009381DC0113962C911397286013962C937E
:102170000E94FC10D8011296ED91FC9113972381D7
:10218000277F2383E4E00C94CA1360916503709168
:1021900066030E94F31208950F931F93CF93DF936A
:1021A000E0916503F0916603238121FF1BC08C0140
:1021B000D0E0C0E0F80181918F01609165037091DA
:1021C0006603DB011896ED91FC911997882331F095
:1021D0000995892B79F3DFEFCFEFECCF8AE00995F2
:1021E000892B19F08FEF9FEF02C08D2F9C2FDF916D
:1021F000CF911F910F910895ABE0B0E0E2E0F1E1E3
:102200000C94A0136C017B018A01FC0117821682D9
:10221000838181FFCCC1CE0101963C01F6019381FF
:10222000F70193FD859193FF81917F01882309F444
:10223000BAC1853239F493FD859193FF81917F0175
:10224000853229F4B60190E00E94F312E7CF912C79
:10225000212C312CFFE1F315D8F08B3279F038F4D2
:10226000803279F08332A1F4232D20611DC08D329C
:1022700061F0803369F4232D216016C0832D8260C4
:10228000382EE32DE4603E2E2AC0F32DF8601DC0E9
:1022900037FC2DC020ED280F2A3040F08E32B9F4E3
:1022A00036FC81C1232D2064322E19C036FE06C0B3
:1022B0008AE0989E200D1124922E11C0EAE02E9EF5
:1022C000200D1124222EF32DF0623F2E08C08C36F3
:1022D00021F4832D8068382E02C0883641F4F7013E
:1022E00093FD859193FF81917F018111B3CF982F49
:1022F0009F7D9554933028F40C5F1F4F9FE3998383
:102300000DC0833631F0833771F0833509F059C041
:1023100021C0F801808189830E5F1F4F8824839438
:10232000912C530113C02801F2E04F0E511CF8010B
:10233000A080B18036FE03C0692D70E002C06FEF4F
:102340007FEFC5010E94E8124C018201F32DFF7757
:102350003F2E16C0280122E0420E511CF801A08039
:10236000B18036FE03C0692D70E002C06FEF7FEFD1
:10237000C5010E94DD124C01F32DF0683F2E820151
:1023800033FC1BC0822D90E088169906B0F4B6018C
:1023900080E290E00E94F3122A94F4CFF50137FC1A
:1023A000859137FE81915F01B60190E00E94F312A2
:1023B00021102A9421E0821A91088114910471F766
:1023C000E8C0843611F0893641F5F80137FE07C0C0
:1023D00060817181828193810C5F1F4F08C0608191
:1023E0007181072E000C880B990B0E5F1F4FF32D88
:1023F000FF763F2E97FF09C0909580957095619567
:102400007F4F8F4F9F4FF0683F2E2AE030E0A301AF
:102410000E942F13882E861845C0853731F4232D4E
:102420002F7EB22E2AE030E025C0932D997FB92E61
:102430008F36C1F018F4883579F0B5C0803719F0BF
:10244000883721F0B0C0E92FE061BE2EB4FE0DC088
:10245000FB2DF460BF2E09C034FE0AC0292F266070
:10246000B22E06C028E030E005C020E130E002C016
:1024700020E132E0F801B7FE07C0608171818281FE
:1024800093810C5F1F4F06C06081718180E090E0F6
:102490000E5F1F4FA3010E942F13882E8618FB2D5D
:1024A000FF773F2E36FE0DC0232D2E7FA22E8914DE
:1024B00058F434FE0BC032FC09C0832D8E7EA82E4A
:1024C00005C0B82CA32C03C0B82C01C0B92CA4FEA5
:1024D0000FC0FE01E80DF11D8081803321F49A2D9B
:1024E000997EA92E09C0A2FE06C0B394B39404C07D
:1024F0008A2D867809F0B394A3FC11C0A0FE06C013
:10250000B21488F4280C922C9B180EC0B21460F4FC
:10251000B60180E290E00E94F312B394F7CFB214B8
:1025200018F42B1802C0982C212CA4FE10C0B60160
:1025300080E390E00E94F312A2FE17C0A1FC03C04A
:1025400088E790E002C088E590E0B6010CC08A2DD3
:10255000867859F0A1FE02C08BE201C080E2A7FCA0
:102560008DE2B60190E00E94F312891438F4B601AE
:1025700080E390E00E94F3129A94F7CF8A94F301DB
:10258000E80DF11D8081B60190E00E94F3128110E8
:10259000F5CF222009F442CEB60180E290E00E94FD
:1025A000F3122A94F6CFF6018681978102C08FEF4D
:1025B0009FEF2B96E2E10C94BC13FC010590615057
:1025C00070400110D8F7809590958E0F9F1F089549
:1025D000FC016150704001900110D8F780959095F2
:1025E0008E0F9F1F08950F931F93CF93DF93FB01CF
:1025F000238121FD03C08FEF9FEF2CC022FF16C067
:1026000046815781248135814217530744F4A081C4
:10261000B1819D012F5F3F4F318320838C932681B1
:1026200037812F5F3F4F3783268314C08B01EC0126
:10263000FB010084F185E02D0995892BE1F6D80195
:1026400016968D919C911797019617969C938E9351
:102650001697CE01DF91CF911F910F910895FA0146
:10266000AA27283051F1203181F1E8946F936E7FD1
:102670006E5F7F4F8F4F9F4FAF4FB1E03ED0B4E0C2
:102680003CD0670F781F891F9A1FA11D680F791F03
:102690008A1F911DA11D6A0F711D811D911DA11D14
:1026A00020D009F468943F912AE0269F1124301924
:1026B000305D3193DEF6CF010895462F4770405DBF
:1026C0004193B3E00FD0C9F7F6CF462F4F70405D6E
:1026D0004A3318F0495D31FD4052419302D0A9F7C9
:1026E000EACFB4E0A6959795879577956795BA95C3
:1026F000C9F700976105710508959B01AC010A2E89
:1027000006945795479537952795BA95C9F7620F5F
:10271000731F841F951FA01D08950E94D713A59FA6
:10272000900DB49F900DA49F800D911D11240895CC
:10273000B7FF0C948D130E948D13821B930B089589
:102740002F923F924F925F926F927F928F929F92C1
:10275000AF92BF92CF92DF92EF92FF920F931F93AF
:10276000CF93DF93CDB7DEB7CA1BDB0B0FB6F89460
:10277000DEBF0FBECDBF09942A88398848885F84A0
:102780006E847D848C849B84AA84B984C884DF8011
:10279000EE80FD800C811B81AA81B981CE0FD11DF5
:1027A0000FB6F894DEBF0FBECDBFED010895A29F16
:1027B000B001B39FC001A39F700D811D1124911D15
:1027C000B29F700D811D1124911D0895F894FFCFC3
:1027D000010000000F0000000300000000620D9ADD
:1027E0000D0000257300E2948000E2948200E294E0
:1027F0008C00E2949000E2949400E2949800E294B9
:102800009C00E294A400E294B400E294AC00E29450
:10281000BC0053636F72653A200A002531337300A0
:102820002531316C750A00486967682053636F72FF
:10283000653A002531316C7500506163646F7473C3
:102840002052656D61696E696E673A202531316489
:1028500000E197A400E197A200E197A700E197A308
:10286000008101850189018D01292A2E2D343433FF
:0628700031373936320059
:00000001FF
