S00E00007061636D616E2E73726563A6
S11300000C9449030C9466030C9466030C946603E5
S11300100C9466030C94A3030C9466030C9466037B
S11300200C9466030C9466030C9466030C946603A8
S11300300C9466030C9466030C9466030C94660398
S11300400C94480F0C9466030C9466030C9466039A
S11300500C94680E0C94260E0C9466030C946603A0
S11300600C9466030C9466030C9466030C94660368
S11300700C9466030C9466030C9466031906280614
S113008028062806280628062806280628062806FC
S113009028060E062806960523062806280628069E
S11300A028062806280628062806B705280628064E
S11300B028062806E7052806DA052806280628065D
S11300C02806280628062806AC0528062806280639
S11300D0CD052806C2052806280628061E06280679
S11300E0280628062806280628062806280628069C
S11300F02806280628062806F405280628062806C1
S1130100280628062806280628062806280628067B
S1130110280628062806280628062806280628066B
S11301202806280628062806010628062806280682
S113013028062806A105462D2D2D2D2D2D2D2D2DDE
S11301402D2D2D2D762D762D2D2D2D2D2D2D2D2D49
S11301502D2D2D2D377C2E2E2E2E2E2E2E2E2E2E68
S11301602E2E2E7C207C2E2E2E2E2E2E2E2E2E2E1D
S11301702E2E2E7C7C2E462D2D2D372E462D2D2DCC
S1130180372E7C207C2E462D2D2D372E462D2D2DC1
S1130190372E7C7C2E7C2020207C2E4C2D2D2D4A2D
S11301A02E4C2D4A2E4C2D2D2D4A2E7C2020207C89
S11301B02E7C7C2E7C2020207C2E2E2E2E2E2E2E4D
S11301C02E2E2E2E2E2E2E2E2E2E7C2020207C2ED9
S11301D07C7C2E7C2020207C2E462D2D2D372E46F7
S11301E02D372E462D2D2D372E7C2020207C2E7C45
S11301F07C504C2D2D2D4A2E4C2D2D2D4A2E4C2D20
S11302004A2E4C2D2D2D4A2E4C2D2D2D4A507C7CC2
S11302102E2E2E2E2E2E2E2E2E2E2E2E2E2E2E2EFA
S11302202E2E2E2E2E2E2E2E2E2E2E2E2E7C7C2E4E
S1130230462D2D2D372E46372E462D2D2D2D2D2D89
S11302402D372E46372E462D2D2D372E7C7C2E4CC9
S11302502D2D2D4A2E7C7C2E4C2D2D3720462D2DD8
S11302604A2E7C7C2E4C2D2D2D4A2E7C7C2E2E2E1F
S11302702E2E2E2E7C7C2E2E2E2E7C207C2E2E2E70
S11302802E7C7C2E2E2E2E2E2E2E7C4C2D2D2D2D86
S11302902D372E7C4C2D2D37207C207C20462D2D77
S11302A04A7C2E462D2D2D2D2D4A20202020202025
S11302B07C2E7C462D2D4A204C2D4A204C2D2D374A
S11302C07C2E7C2020202020202020202020207C08
S11302D02E7C7C20202020202020202020207C7C9C
S11302E02E7C2020202020202D2D2D2D2D2D4A2E1A
S11302F04C4A20462D2D2020202D2D37204C4A2ECF
S11303004C2D2D2D2D2D2D202020202020202E2061
S113031020207C202020202020207C2020202E2013
S11303202020202020202D2D2D2D2D2D372E463719
S1130330204C2D2D2D2D2D2D2D4A2046372E462D8A
S11303402D2D2D2D2D2020202020207C2E7C7C2046
S1130350202020202020202020207C7C2E7C202077
S1130360202020202020202020207C2E7C7C204641
S11303702D2D2D2D2D2D2D37207C7C2E7C202020E5
S1130380202020462D2D2D2D2D4A2E4C4A204C2D3B
S11303902D3720462D2D4A204C4A2E4C2D2D2D2D07
S11303A02D377C2E2E2E2E2E2E2E2E2E2E2E2E2E13
S11303B07C207C2E2E2E2E2E2E2E2E2E2E2E2E2ECB
S11303C07C7C2E462D2D2D372E462D2D2D372E7C23
S11303D0207C2E462D2D2D372E462D2D2D372E7C6F
S11303E07C2E4C2D37207C2E4C2D2D2D4A2E4C2D21
S11303F04A2E4C2D2D2D4A2E7C20462D4A2E7C7CB7
S1130400502E2E7C207C2E2E2E2E2E2E2E2E202E66
S11304102E2E2E2E2E2E2E7C207C2E2E507C3E2DEB
S1130420372E7C207C2E46372E462D2D2D2D2D2D1E
S11304302D372E46372E7C207C2E462D3C3E2D4AD1
S11304402E4C2D4A2E7C7C2E4C2D2D3720462D2DC6
S11304504A2E7C7C2E4C2D4A2E4C2D3C7C2E2E2E4E
S11304602E2E2E2E7C7C2E2E2E2E7C207C2E2E2E7E
S11304702E7C7C2E2E2E2E2E2E2E7C7C2E462D2D4A
S11304802D2D2D4A4C2D2D372E7C207C2E462D2DA6
S11304904A4C2D2D2D2D2D372E7C7C2E4C2D2D2D83
S11304A02D2D2D2D2D2D4A2E4C2D4A2E4C2D2D2DFE
S11304B02D2D2D2D2D2D4A2E7C7C2E2E2E2E2E2EA6
S11304C02E2E2E2E2E2E2E2E2E2E2E2E2E2E2E2E48
S11304D02E2E2E2E2E2E2E7C4C2D2D2D2D2D2D2DD3
S11304E02D2D2D2D2D2D2D2D2D2D2D2D2D2D2D2D38
S11304F02D2D2D2D2D2D4A005072657373206120F2
S1130500627574746F6E20746F20737461727420DA
S1130510616761696E0047414D45204F5645520061
S113052050757368206120627574746F6E206F72E9
S1130530206B657920746F20636F6E74696E7565C6
S1130540004C6576656C20636F6D706C6574650036
S113055053747564656E74204E756D6265723A20CD
S11305603434333137393632004353534532303122
S1130570302070726F6A656374206279203C4A751A
S1130580616E20457370617265733E005061632D26
S11305904D616E00FF05FC05F805F405F005EC055A
S11305A0E805E405E005DC056E066A0666066206F3
S11305B05E065A06560652064F064B064706430683
S11305C03E063A06360632062D062906250620067C
S11305D01C06170612060D06080603066492927D91
S11305E06C92926D809EA0C17C92924DE4A2A29DD9
S11305F0182848FF4492926D468A926342FE037C17
S113060092A27D868A92A2C3E0100E10E1C6281041
S113061028C7FC021C02FDF8040204F9FC0202FDD6
S11306208080FE80816492924DFE9098677C828ADD
S11306307C03FE9090617C82827DFE2010FFFE4050
S11306403040FFFE020203FE1028C7040202FD82AE
S1130650FE83FE1010FF7C82925DFE909081FE92DC
S11306609283FE82827D7C828245FE92926D7E9090
S1130670907F1B5B3F32356C001B5B25646D001B58
S11306805B324A001B5B306D001B5B25643B2564B9
S1130690480011241FBECFEFD8E0DEBFCDBF11E06C
S11306A0A0E0B1E0E6EEF7E202C005900D92AC3BAB
S11306B0B107D9F723E0ACEBB1E001C01D92AF372D
S11306C0B207E1F70E94580C0C94F1130C9400004B
S11306D0E8E6F0E0808182608083D99AECE6F0E07D
S11306E080818F6080831092BC0108958091BC0149
S11306F018163CF58091BD016FB7F8949091BC0138
S11307009230B4F021E030E091E0F901E354FE4F7F
S11307104081F901E454FE4F40839F5F292F30E06C
S11307204091BC01042E000C550B241735076CF3C3
S11307309091BC0191509093BC0166231CF4789471
S113074008958FEF08951F920F920FB60F92112400
S11307502F933F934F935F936F937F938F939F93C5
S1130760EF93FF9343B14F7080E090E0642F70E00B
S11307702091BC01243004F59B01082E02C035955C
S113078027950A94E2F720FF17C02091C10130E0B9
S1130790082E02C0359527950A94E2F720FD0CC077
S11307A0E091BC0121E02E0F2093BC010E2E000C21
S11307B0FF0BE354FE4F8083019684309105C1F60C
S11307C04093C101FF91EF919F918F917F916F9120
S11307D05F914F913F912F910F900FBE0F901F90FB
S11307E018956F3039F494EF980F81E0973060F0EA
S11307F080E008956E3039F492EF980F81E09330E1
S113080018F080E0089580E00895CF92DF92EF928F
S1130810FF92413091F028F0423049F0433099F092
S11308205EC0882309F45DC020E09FEF11C08E31C3
S113083009F459C020E091E00BC0662309F455C0C7
S11308402FEF90E005C06E3109F451C021E090E033
S1130850620F890F9091D101891305C09091D00145
S1130860691709F446C0ABECB1E0E7ECF1E090E0C5
S11308702D91821304C02081621709F43CC09F5F4C
S113088031969430A9F7462F50E0282F30E0FA0132
S1130890EE0FFF1FEE0FFF1FEB52FE4FC080D18003
S11308A0E280F380082E04C0F694E794D794C794AA
S11308B00A94D2F7C0FC21C09FE1949FF001959F58
S11308C0F00D1124E20FF31FEA5CFE4FE491E032D5
S11308D0C1F0EE32B1F0E035A1F08EEF17C08EEF2B
S11308E015C08EEF13C08EEF11C08EEF0FC08EEFC8
S11308F00DC08DEF0BC0892F09C08CEF07C08FEF9F
S113090005C00E94F1038111FACF8BEFFF90EF90A5
S1130910DF90CF900895CF92DF92EF92FF920F93E2
S11309201F93CF93DF93082FF62E0E94F103E82E36
S1130930C0E0D0E010E0CC24C394D12C4C2F6F2D18
S1130940802F0E9405048E3F4CF4C6010C2E02C079
S1130950880F991F0A94E2F7182B0CC0EE2051F06F
S11309608F3F41F4C6010C2E02C0880F991F0A94D0
S1130970E2F7182B2196C430D10501F7812FDF91BE
S1130980CF911F910F91FF90EF90DF90CF9008953A
S113099070E06F5F7F4F90E001960E94E90E81E264
S11309A00E940C0FE091CF01F0E0EE0FFF1FE9551C
S11309B0FE4F81818F9380818F9383E191E09F9398
S11309C08F930E9494100E94FA0E0F900F900F9034
S11309D00F9008950F931F93CF93DF93182F062F33
S11309E0C42FD0E0862F90E0BE016F5F7F4F019649
S11309F00E94E90EE12FF0E0E155FE4F80810E9454
S1130A000C0FCC0FDD1FCC0FDD1FCB52DE4F8881C6
S1130A109981AA81BB8104C0B695A79597958795BE
S1130A200A95D2F780FF05C08EE290E00E94D010B4
S1130A3004C080E290E00E94D0100E94FA0EDF9180
S1130A40CF911F910F9108951F93CF93DF93182F88
S1130A50C62FD0E090E0BE016F5F7F4F01960E94E9
S1130A60E90ECC0FDD1FCC0FDD1FCB52DE4F88818A
S1130A709981AA81BB8104C0B695A795979587955E
S1130A801A95D2F780FF05C08EE290E00E94D01044
S1130A9004C080E290E00E94D010DF91CF911F91BA
S1130AA008958091D201089583E08093D20108953E
S1130AB02F923F924F925F926F927F928F929F926A
S1130AC0AF92BF92CF92DF92EF92FF920F931F9358
S1130AD0CF93DF930E94030F0E94FA0E0E94190F16
S1130AE061E070E081E090E00E94E90E0F2EF5E5F0
S1130AF06F2EF1E07F2EF02D0F2EFEE32F2EF1E06E
S1130B003F2EF02D0F2EF3E14F2EF1E05F2EF02D4E
S1130B10B6C0F601849190E0FC01B097ED35F10583
S1130B2008F096C0E25CFF4F0C948C0F9F928F925A
S1130B305F924F920E9494100F900F900F900F901D
S1130B408BC0BF92AF925F924F920E9494100F900D
S1130B500F900F900F9080C0DF93CF935F924F92CE
S1130B600E9494100F900F900F900F9075C01F93D8
S1130B700F935F924F920E9494100F900F900F90DA
S1130B800F906AC0FF92EF925F924F920E9494106E
S1130B900F900F900F900F905FC08AE291E09F93A7
S1130BA08F935F924F920E9494100F900F900F902A
S1130BB00F9052C08EE291E09F938F935F924F9279
S1130BC00E9494100F900F900F900F9045C082E3F5
S1130BD091E09F938F935F924F920E9494100F9095
S1130BE00F900F900F9038C086E391E09F938F93FE
S1130BF05F924F920E9494100F900F900F900F905D
S1130C002BC08AE391E09F938F935F924F920E944F
S1130C1094100F900F900F900F901EC03F922F9240
S1130C205F924F920E9494100F900F900F900F902C
S1130C3013C080E290E00E94D0100EC08EE290E0DB
S1130C400E94D01009C08EE290E00E94D01004C02F
S1130C5088E790E00E94D010FFEFCF1ADF0A6C14EF
S1130C607D0409F056CF8AE090E00E94D0102FE175
S1130C70620E711C86E195E086159705D9F0630133
S1130C809FE1C91AD1080F2EF6E2EF2EF1E0FF2EF4
S1130C90F02D02E211E0CEE1D1E00F2EFAE1AF2E09
S1130CA0F1E0BF2EF02D0F2EF6E18F2EF1E09F2EF6
S1130CB0F02D2FCFC5EDD1E040E050E020E030E052
S1130CC0812C912C54018394DE01188219821A829A
S1130CD01B8280E090E0FC01E20FF31FEA5CFE4F10
S1130CE0E491EE3211F0E035D1F44D905D906D90C9
S1130CF07C90139775016401082E04C0CC0CDD1C94
S1130D00EE1CFF1C0A94D2F7C428D528E628F7283D
S1130D10CD92DD92ED92FC9213974F5F5F4F019657
S1130D208F319105C1F6215E3F4F2496213CE3E0CB
S1130D303E0751F65093D4014093D3018FE0809342
S1130D40D10187E18093D00182E08093CF0167E1F4
S1130D508FE00E94C8040F2EFBECAF2EF1E0BF2EF3
S1130D60F02D0F2EF7ECCF2EF1E0DF2EF02D0F2E0D
S1130D70F3ECEF2EF1E0FF2EF02DDCE0C0E01FE0FD
S1130D8002E0F501D1935F01F60111936F01F701C0
S1130D9001937F01412F6D2F8C2F0E94EA04CF5FB6
S1130DA0DE5FC43071F7DF91CF911F910F91FF90F7
S1130DB0EF90DF90CF90BF90AF909F908F907F90F7
S1130DC06F905F904F903F902F9008950E94580528
S1130DD081E08093C2010895CF92DF92EF92FF9257
S1130DE01F93CF93DF938091C201882309F412C12A
S1130DF01091D001D091D1014091CF01612F8D2F5D
S1130E000E940504C82F8E3F09F406C1612F8D2F5F
S1130E100E9424058091CF0181110FC08091D101DE
S1130E2081508093D101811125C08091D0018F30F0
S1130E3009F58EE18093D1011DC0823071F4809157
S1130E40D1018F5F8093D1018E31A1F48091D001C3
S1130E508F3081F41092D1010DC0813031F4809132
S1130E60D00181508093D00105C08091D0018F5F63
S1130E708093D001CC2384F0EC2FCC0FFF0BE155F1
S1130E80FE4F80810E940C0F6091D0018091D101AE
S1130E900E94C80481E0C1C0CC3F09F0B3C0E09116
S1130EA0D001F0E0EE0FFF1FEE0FFF1FEB52FE4FDD
S1130EB081E090E0A0E0B0E00090D10104C0880F90
S1130EC0991FAA1FBB1F0A94D2F780959095A095ED
S1130ED0B095408151816281738184239523A62337
S1130EE0B72380839183A283B3838091D3019091AC
S1130EF0D40101979093D4018093D3018AE090E0C8
S1130F000E946C0C68E070E087E390E00E94E90EB8
S1130F1082E491E09F938F938BE491E09F938F936E
S1130F200E94941069E070E087E390E00E94E90E6B
S1130F300E94810C9F938F937F936F9380E591E040
S1130F409F938F930E9494100E94810C6B017C01EB
S1130F500E94930C2DB73EB7265F3F4F0FB6F8940F
S1130F603EBF0FBE2DBF6C157D058E059F0520F479
S1130F700E94810C0E948A0C6AE070E087E390E092
S1130F800E94E90E87E591E00E94D7106BE070E0C3
S1130F9087E390E00E94E90E0E94930C9F938F9345
S1130FA07F936F9383E691E09F938F930E949410B5
S1130FB06FE070E087E390E00E94E90E8091D40135
S1130FC08F938091D3018F9389E691E09F938F93C0
S1130FD00E94941063E070E087E390E00E94E90EC1
S1130FE08091D2011F928F9381E891E09F938F9318
S1130FF00E9494108DB79EB70E960FB6F8949EBFBC
S11310000FBE8DBF6091D0018091D1010E94C804B0
S113101081E003C080E001C080E0DF91CF911F91A7
S1131020FF90EF90DF90CF9008951F93CF93DF93BD
S11310309091C2019923A1F0C82F1091D001D091B1
S1131040D101482F612F8D2F0E9405048E3F51F04E
S1131050C093CF01612F8D2F0E94C80481E003C08B
S113106080E001C080E0DF91CF911F910895FF924D
S11310700F931F93CF93DF939091C201992309F4A7
S1131080E4C1C82F90E0FC01E553FE4F1081FC0140
S1131090E953FE4FF080FC01ED53FE4FD0816F2DDC
S11310A0812F0E948B04082F882309F4CEC16F2D51
S11310B0812F0E94F103882309F445C101FF43C134
S11310C09CC10091D101011BD091D001DF196F2D7A
S11310D0812F0E948B04882309F4B7C1402F002E6E
S11310E0000C550B55231CF45195419551092D2F96
S11310F00D2E000C330B33231CF43195219531094B
S1131100421753074CF4DD231CF481FF05C075C15D
S11311101D1614F483FD85C1002354F480FD46C1DB
S1131120DD231CF481FF3EC168C183FD7AC13AC14D
S113113082FD4FC1DD231CF481FF14C15EC183FD18
S113114070C110C181E090E0AB01082E02C055953A
S113115047950A94E2F740FDA0C0019684309105BA
S113116099F773C1002E000C110B4D2F50E0C801EC
S11311700D2E02C0959587950A94E2F780FD94C0E0
S1131180DC0FD3702D2F0D2E000C330BC8010D2E48
S113119002C0959587950A94E2F780FD85C02E5F7D
S11311A03F4F23703078332334F4215031092C6FAE
S11311B03F6F2F5F3F4F022E02C0159507950A948B
S11311C0E2F700FD6CC09A012E5F3F4F2370307828
S11311D0332334F4215031092C6F3F6F2F5F3F4F7D
S11311E0D22F62C0002E000C110B2091CF01C80138
S11311F0022E02C0959587950A94E2F780FF02C0FB
S1131200D22F52C00E94FF0FDC01CB0183709927BB
S1131210AA27B078BB2354F40197A109B1098C6FB4
S11312209F6FAF6FBF6F0196A11DB11D482F682F2F
S1131230880F770B9B0123703078332334F42150CB
S113124031092C6F3F6F2F5F3F4FC801022E02C040
S1131250959587950A94E2F780FD23C06F5F7F4FD1
S1131260042E000C550B4C5F5F4FCB0183709078BC
S1131270992324F401978C6F9F6F0196282FF8010E
S113128002C0F595E7958A95E2F7E0FD0CC06F5F23
S11312907F4F6417750749F7D8C0D82F05C0D22FE0
S11312A003C0D22F01C0D22FDD230CF4CEC00C2FEB
S11312B00C2E000C110BD801A953BE4FF801E553B5
S11312C0FE4F6C9180810E942405F801ED53FE4F7E
S11312D0D083D130B9F01CF4DD2331F020C0D230FA
S11312E051F0D330B1F01BC0F801E553FE4F8081BB
S11312F08150808314C0F801E553FE4F80818F5FD5
S113130080830DC0F801E953FE4F808181508083B2
S113131006C0F801E953FE4F80818F5F8083F80196
S1131320E953FE4F4081F801E553FE4F60818091FF
S1131330D101681333C08091D00148132FC019C064
S11313400E94FA0E82C0C13009F40CCF24F4CC23DD
S113135009F4B7CE7AC0C23009F444CFC33009F4DB
S113136001CF73C0682F082E000C770B80FFEACEE4
S11313701DC04FE06CE08C2F0E94EA04E801C953C1
S1131380DE4F05531E4F6881F80180810E94C80416
S11313908CE0F80180838FE08883D2CF8C2F0E9469
S11313A0EA04CECF682F880F770BCCCE0C2F0C2EEF
S11313B0000C110BD801A953BE4FF801E553FE4FA1
S11313C06C9180810E942405F801ED53FE4F108238
S11313D08BCF0C2F0C2E000C110BD801A953BE4F30
S11313E0F801E553FE4F6C9180810E942405F801B9
S11313F0ED53FE4F82E080837ECF0C2F0C2E000C29
S1131400110BD801A953BE4FF801E553FE4F6C915F
S113141080810E942405F801ED53FE4F81E0808312
S113142071CF0C2F0C2E000C110BD801A953BE4FF9
S1131430F801E553FE4F6C9180810E942405F80168
S1131440ED53FE4F83E0808364CFDF91CF911F91F2
S11314500F91FF90089581E09091C201911180E075
S1131460089581E02091D3013091D401232B09F018
S113147080E0089580E80E94BB0E08950F931F93A7
S1131480CF93DF93803190F48B01C82F83E00E94C7
S1131490E30E8C2F8F700E94E30EE801085F1F4F4C
S11314A089910E94E30EC017D107D1F7DF91CF9144
S11314B01F910F91089584E00E94E30E82E00E9440
S11314C0E30E08958FE00E94E30E08950E943A0A05
S11314D00E94680340E060E07BE480E090E00E94CA
S11314E0D30D0E94220F789408950E94030F6AE09E
S11314F070E08AE090E00E94E90E8CE895E09F930A
S11315008F930E94AA106CE070E08AE090E00E9441
S1131510E90E89E695E09F938F930E94AA106EE0EE
S113152070E08AE090E00E94E90E80E595E09F93E8
S11315308F930E94AA100E94620A0F900F900F903E
S11315400F900F900F9060EF83EB91E00E949C0C42
S113155010C02FE789EA93E0215080409040E1F7E2
S113156000C000000E9476038F3F19F00E94620AB7
S113157008950E94AB0C8111ECCFE5CF6AE070E0D6
S113158083E290E00E94E90E81E495E09F938F93BB
S11315900E94AA106BE070E083E290E00E94E90EE2
S11315A080E295E09F938F930E94AA100E94210EDF
S11315B00F900F900F900F900E9476038F3F21F4AD
S11315C00E941A0E8823C1F30E94210E08956EE032
S11315D070E083E290E00E94E90E86E195E09F933B
S11315E08F930E94AA1060E170E083E290E00E9471
S11315F0E90E88EF94E09F938F930E94AA100F90B6
S11316000F900F900F900E9476038F3FE1F308959F
S11316100E94510518B8813011F488B908958230B8
S113162019F483E088B90895833011F487E088B908
S113163008950E94E6060E94630C0E9454050E94CD
S1131640080B0E9476030E94210E08953F924F9248
S11316505F926F927F928F929F92AF92BF92CF923E
S1131660DF92EF92FF920F931F93CF93DF93CDB747
S1131670DEB72C970FB6F894DEBF0FBECDBF0E9425
S11316803A0F4B015C0169877A878B879C876D834E
S11316907E838F83988769837A838B839C832B01D2
S11316A03C01312C0FEFCEC00E947603182F0E940C
S11316B0080B1F3F09F0D6C00E941A0E882309F4B4
S11316C03FC0E9E7F3E0808191810E945610311018
S11316D005C08B3109F4BFC0902F0DC0F1E03F125B
S11316E005C08B3509F4BAC0902F05C092E03912B9
S11316F01FC0982F802F913409F0B7C0312C80E09F
S11317000E9415081DC0312C81E00E94150818C0E4
S1131710113011F0933521F483E00E94150810C0B4
S1131720112311F0943429F482E00E94150808C0B2
S1131730312C8F7D803521F08E3411F40E94190BE9
S11317400E943A0F6B017C010E942B0A81111EC07A
S1131750D501C40180579E4FAF4FBF4FC816D9065D
S1131760EA06FB0698F00E94EC060E94310A8823E0
S113177059F00E94BE0A0E9458050E943A0F4B017C
S11317805C012B013C0102C0460157010E942B0A57
S1131790811110C0D301C2018C559E4FAF4FBF4F72
S11317A0C816D906EA06FB0628F080E00E9437082E
S11317B0260137010E942B0A811114C089819A8164
S11317C0AB81BC818E539E4FAF4FBF4FC816D90615
S11317D0EA06FB0638F081E00E943708C982DA8203
S11317E0EB82FC820E942B0A811114C08D819E81A0
S11317F0AF81B8858C509E4FAF4FBF4FC816D906E6
S1131800EA06FB0638F082E00E943708CD82DE82C9
S1131810EF82F8860E942B0A811114C089859A856B
S1131820AB85BC85865C9D4FAF4FBF4FC816D906AC
S1131830EA06FB0638F083E00E943708C986DA8698
S1131840EB86FC860E942B0A81111AC00E94510566
S113185081112ACF15C03324339472CF6894332472
S113186031F86ECF133031F44ACF973509F44BCFAA
S1131870312C4ECF123009F447CF902F802F48CF10
S11318802C960FB6F894DEBF0FBECDBFDF91CF917B
S11318901F910F91FF90EF90DF90CF90BF90AF908A
S11318A09F908F907F906F905F904F903F9008959E
S11318B00E94660A0E94750A0E94190B0E94260B58
S11318C00E94E70AF9CF109261021092620210920C
S11318D06302109264020895409161025091620281
S11318E06091630270916402480F591F611D711D5C
S11318F040936102509362026093630270936402A6
S113190008956091610270916202809163029091E6
S11319106402089560935D0270935E0280935F0297
S113192090936002089560915D0270915E028091CF
S11319305F029091600208956093040190935502B0
S1131940809354021092570210925602109253023E
S11319501092520208950F931F93CF93DF93CDB744
S1131960DEB728970FB6F894DEBF0FBECDBFE09167
S11319705602F0915702309781F0149110FF06C07F
S1131980109257021092560200E06BC03196F09309
S11319905702E093560200E064C0E0915202F091D5
S11319A05302309709F449C0CF0101969093530232
S11319B080935202E081E1110AC010925302109206
S11319C0520280E18093510200E010E04AC08FE9A6
S11319D08E0F8A3170F4F0E0EE0FFF1FEA51FB4FD7
S11319E085919491909357028093560200E010E001
S11319F038C08FEB8E0F8A3170F4F0E0EE0FFF1FCA
S1131A00EA5DFA4F85919491909357028093560220
S1131A1000E010E026C080ED8E0F8A3000F5F0E083
S1131A20EE0FFF1FEC5CFA4F85919491909357024F
S1131A308093560200E010E014C08091540290910B
S1131A40550201E0009709F000E09093530280935F
S1131A505202109255021092540210E002C000E0AB
S1131A6010E00E945B0A20910401FE013896CE0129
S1131A700196112314F4208301C01082110F3197B1
S1131A80E817F907B1F71982BE016F5F7F4F8FE046
S1131A900E943E0A80915102882389F081508093EC
S1131AA05102002311F0882311F090E003C091E06B
S1131AB001C091E081E0992329F080E003C0002374
S1131AC0A1F3F7CF28960FB6F894DEBF0FBECDBFB3
S1131AD0DF91CF911F910F910895CF93C82F8A3032
S1131AE019F48DE00E946D0D9FB7907802C0992380
S1131AF029F1809166028F3FD1F3F894E091650259
S1131B0081E08E0F80936502F0E0E959FD4FC083B8
S1131B10809166028F5F80936602809165028F3F99
S1131B2011F410926502E1ECF0E080818062808320
S1131B30992339F0789480E090E005C081E090E04A
S1131B4002C080E090E0CF910895809178038823CB
S1131B50E1F32FB72078F8948091660330917803ED
S1131B6090E0831B91095AF4E09166038091780315
S1131B70F0E0E81BF109E958FC4F80810AC0E091CC
S1131B80660380917803F0E0E81BF109E959FC4F02
S1131B90808190917803915090937803222309F0E7
S1131BA0789490E008951092650210926602109263
S1131BB06603109278031092770340935802DC0175
S1131BC0CB01880F991FAA1FBB1F880F991FAA1F3B
S1131BD0BB1F9C01AD01220F331F441F551F60E042
S1131BE072E18AE790E00E946D0FBA01A9014F5F8C
S1131BF05F4F6F4F7F4FDB01CA011AF40196A11D9D
S1131C00B11DB595A7959795879501979093C500B4
S1131C108093C400E1ECF0E088E1808380818068F7
S1131C208083E9E7F3E085E091E093838283918305
S1131C30808308959091780381E0911101C080E040
S1131C400895109266031092780308951F920F92DC
S1131C500FB60F9211242F938F939F93EF93FF93BB
S1131C6080916602882329F18091650220916602A1
S1131C7090E0821B91095AF4E0916502809166021A
S1131C80F0E0E81BF109EA59FC4F90810AC0E091A9
S1131C90650280916602F0E0E81BF109E959FD4F05
S1131CA09081809166028150809366029093C60071
S1131CB005C0E1ECF0E080818F7D8083FF91EF919E
S1131CC09F918F912F910F900FBE0F901F90189599
S1131CD01F920F920FB60F9211242F933F934F939D
S1131CE05F936F937F938F939F93AF93BF93CF93A0
S1131CF0EF93FF93C091C60080915802882349F066
S1131D00809166028F3F29F060E070E08C2F0E9482
S1131D106D0D80917803803120F081E0809377030A
S1131D2018C0CD3009F4CAE0E091660381E08E0F5B
S1131D3080936603F0E0E959FC4FC08380917803F7
S1131D408F5F8093780380916603803111F4109241
S1131D506603FF91EF91CF91BF91AF919F918F91C6
S1131D607F916F915F914F913F912F910F900FBE93
S1131D700F901F90189594B1906B94B92C9A90E59C
S1131D809CBD883021F0803211F0823019F491E04A
S1131D909DBD01C01DBC803269F028F4883071F00B
S1131DA0803161F00EC0803429F0803851F48CB554
S1131DB081608CBD8CB582608CBD03C08CB58160A4
S1131DC08CBD2C9808958EBD0DB407FEFDCF8EB545
S1131DD008959F938F937F936F9389E896E09F93E1
S1131DE08F930E94AA100F900F900F900F900F9056
S1131DF00F90089584E896E09F938F930E94AA1011
S1131E000F900F9008958FE796E09F938F930E9411
S1131E10AA100F900F9008951F928F9389E796E070
S1131E209F938F930E94AA100F900F900F900F9082
S1131E30089582E796E09F938F930E94AA100F90D3
S1131E400F9008951092590210925A0210925B0258
S1131E5010925C0216BC8CE787BD82E084BD83E0EF
S1131E6085BDEEE6F0E080818260808385B3827078
S1131E7085BB08952FB7F8946091590270915A0266
S1131E8080915B0290915C0222230CF47894089573
S1131E901F920F920FB60F9211248F939F93AF93BB
S1131EA0BF938091590290915A02A0915B02B09124
S1131EB05C020196A11DB11D8093590290935A02B0
S1131EC0A0935B02B0935C02BF91AF919F918F91FD
S1131ED00F900FBE0F901F901895052E97FB1EF4C0
S1131EE000940E94840F57FD07D00E94920F07FCB4
S1131EF003D04EF40C94840F509540953095219561
S1131F003F4F4F4F5F4F0895909580957095619521
S1131F107F4F8F4F9F4F0895EE0FFF1F0590F49151
S1131F20E02D0994A1E21A2EAA1BBB1BFD010DC0D2
S1131F30AA1FBB1FEE1FFF1FA217B307E407F50775
S1131F4020F0A21BB30BE40BF50B661F771F881F51
S1131F50991F1A9469F760957095809590959B01E7
S1131F60AC01BD01CF0108958F929F92AF92BF92B1
S1131F70CF92DF92EF92FF92CF93DF93EC016881CF
S1131F8079818A819B81611571058105910521F40F
S1131F9064E279ED8BE597E02DE133EF41E050E029
S1131FA00E946D0F49015A019B01AC01A7EAB1E4FB
S1131FB00E9498136B017C01ACEEB4EFA50194016F
S1131FC00E94A613DC01CB018C0D9D1DAE1DBF1D0F
S1131FD0B7FF03C00197A109B04888839983AA83F6
S1131FE0BB83BC01CD019F77DF91CF91FF90EF9030
S1131FF0DF90CF90BF90AF909F908F9008958F9275
S11320009F92AF92BF92CF92DF92EF92FF92609134
S11320100001709101018091020190910301611509
S113202071058105910521F464E279ED8BE597E072
S11320302DE133EF41E050E00E946D0F49015A0158
S11320409B01AC01A7EAB1E40E9498136B017C01E7
S1132050ACEEB4EFA50194010E94A613DC01CB0100
S11320608C0D9D1DAE1DBF1DB7FF03C00197A109B7
S1132070B0488093000190930101A0930201B093B2
S11320800301BC01CD019F77FF90EF90DF90CF90CB
S1132090BF90AF909F908F900895609300017093CC
S11320A0010180930201909303010895CF93DF937C
S11320B0EC012B8120FF33C026FF0AC02F7B2B832A
S11320C08E819F8101969F838E838A8190E029C0AF
S11320D022FF0FC0E881F9818081082E000C990B42
S11320E0009719F420622B831AC03196F983E88390
S11320F00EC0EA85FB85099597FF09C02B810196DF
S113210011F080E201C080E1822B8B8308C02E8114
S11321103F812F5F3F4F3F832E83992702C08FEF6C
S11321209FEFDF91CF910895A0E0B0E0EAE9F0E1FC
S11321300C94BB13AE014B5F5F4FFA016191719137
S1132140AF0180917B0390917C030E940711E2E030
S11321500C94D713A0E0B0E0E0EBF0E10C94B913D9
S1132160AE01495F5F4FDA016D917D91AD0109E7E1
S113217013E0F80182819381DC0113962C9113976B
S1132180286013962C930E940711D8011296ED91A2
S1132190FC9113972381277F2383E4E00C94D513C8
S11321A060917B0370917C030E94FE1208950F934B
S11321B01F93CF93DF93E0917B03F0917C03238102
S11321C021FF1BC08C01D0E0C0E0F80181918F0198
S11321D060917B0370917C03DB011896ED91FC9177
S11321E01997882331F00995892B79F3DFEFCFEF25
S11321F0ECCF8AE00995892B19F08FEF9FEF02C08D
S11322008D2F9C2FDF91CF911F910F910895ABE0FB
S1132210B0E0EDE0F1E10C94AB136C017B018A01B9
S1132220FC0117821682838181FFCCC1CE01019605
S11322303C01F6019381F70193FD859193FF819110
S11322407F01882309F4BAC1853239F493FD85915D
S113225093FF81917F01853229F4B60190E00E94B9
S1132260FE12E7CF912C212C312CFFE1F315D8F08D
S11322708B3279F038F4803279F08332A1F4232D53
S113228020611DC08D3261F0803369F4232D2160FB
S113229016C0832D8260382EE32DE4603E2E2AC0C2
S11322A0F32DF8601DC037FC2DC020ED280F2A3017
S11322B040F08E32B9F436FC81C1232D2064322ED5
S11322C019C036FE06C08AE0989E200D1124922E75
S11322D011C0EAE02E9E200D1124222EF32DF0626F
S11322E03F2E08C08C3621F4832D8068382E02C01E
S11322F0883641F4F70193FD859193FF81917F0125
S11323008111B3CF982F9F7D9554933028F40C5F9F
S11323101F4F9FE399830DC0833631F0833771F0EB
S1132320833509F059C021C0F801808189830E5F8B
S11323301F4F88248394912C530113C02801F2E089
S11323404F0E511CF801A080B18036FE03C0692DE8
S113235070E002C06FEF7FEFC5010E94F3124C01E1
S11323608201F32DFF773F2E16C0280122E0420E92
S1132370511CF801A080B18036FE03C0692D70E0C5
S113238002C06FEF7FEFC5010E94E8124C01F32DEC
S1132390F0683F2E820133FC1BC0822D90E088162A
S11323A09906B0F4B60180E290E00E94FE122A94ED
S11323B0F4CFF50137FC859137FE81915F01B601B9
S11323C090E00E94FE1221102A9421E0821A9108C2
S11323D08114910471F7E8C0843611F0893641F50F
S11323E0F80137FE07C060817181828193810C5F9F
S11323F01F4F08C060817181072E000C880B990B58
S11324000E5F1F4FF32DFF763F2E97FF09C0909567
S11324108095709561957F4F8F4F9F4FF0683F2E49
S11324202AE030E0A3010E943A13882E861845C0A2
S1132430853731F4232D2F7EB22E2AE030E025C0DB
S1132440932D997FB92E8F36C1F018F4883579F021
S1132450B5C0803719F0883721F0B0C0E92FE061AA
S1132460BE2EB4FE0DC0FB2DF460BF2E09C034FE99
S11324700AC0292F2660B22E06C028E030E005C02D
S113248020E130E002C020E132E0F801B7FE07C0ED
S113249060817181828193810C5F1F4F06C06081CE
S11324A0718180E090E00E5F1F4FA3010E943A13F8
S11324B0882E8618FB2DFF773F2E36FE0DC0232D68
S11324C02E7FA22E891458F434FE0BC032FC09C0AE
S11324D0832D8E7EA82E05C0B82CA32C03C0B82C47
S11324E001C0B92CA4FE0FC0FE01E80DF11D8081CE
S11324F0803321F49A2D997EA92E09C0A2FE06C02C
S1132500B394B39404C08A2D867809F0B394A3FCE1
S113251011C0A0FE06C0B21488F4280C922C9B189B
S11325200EC0B21460F4B60180E290E00E94FE1284
S1132530B394F7CFB21418F42B1802C0982C212CA2
S1132540A4FE10C0B60180E390E00E94FE12A2FE39
S113255017C0A1FC03C088E790E002C088E590E0C2
S1132560B6010CC08A2D867859F0A1FE02C08BE218
S113257001C080E2A7FC8DE2B60190E00E94FE1249
S1132580891438F4B60180E390E00E94FE129A9414
S1132590F7CF8A94F301E80DF11D8081B60190E034
S11325A00E94FE128110F5CF222009F442CEB6011A
S11325B080E290E00E94FE122A94F6CFF601868112
S11325C0978102C08FEF9FEF2B96E2E10C94C71323
S11325D0FC010590615070400110D8F780959095EA
S11325E08E0F9F1F0895FC016150704001900110EF
S11325F0D8F7809590958E0F9F1F08950F931F9382
S1132600CF93DF93FB01238121FD03C08FEF9FEF65
S11326102CC022FF16C04681578124813581421780
S1132620530744F4A081B1819D012F5F3F4F318353
S113263020838C93268137812F5F3F4F37832683F6
S113264014C08B01EC01FB010084F185E02D099598
S1132650892BE1F6D80116968D919C9117970196D6
S113266017969C938E931697CE01DF91CF911F916D
S11326700F910895FA01AA27283051F1203181F1F0
S1132680E8946F936E7F6E5F7F4F8F4F9F4FAF4F76
S1132690B1E03ED0B4E03CD0670F781F891F9A1F89
S11326A0A11D680F791F8A1F911DA11D6A0F711D3D
S11326B0811D911DA11D20D009F468943F912AE049
S11326C0269F11243019305D3193DEF6CF01089531
S11326D0462F4770405D4193B3E00FD0C9F7F6CF62
S11326E0462F4F70405D4A3318F0495D31FD40522A
S11326F0419302D0A9F7EACFB4E0A69597958795C0
S113270077956795BA95C9F700976105710508959E
S11327109B01AC010A2E069457954795379527954A
S1132720BA95C9F7620F731F841F951FA01D0895E2
S11327300E94E213A59F900DB49F900DA49F800D5D
S1132740911D11240895B7FF0C9498130E949813B7
S1132750821B930B08952F923F924F925F926F9238
S11327607F928F929F92AF92BF92CF92DF92EF921D
S1132770FF920F931F93CF93DF93CDB7DEB7CA1B9E
S1132780DB0B0FB6F894DEBF0FBECDBF09942A88C9
S1132790398848885F846E847D848C849B84AA8471
S11327A0B984C884DF80EE80FD800C811B81AA81FE
S11327B0B981CE0FD11D0FB6F894DEBF0FBECDBFC9
S11327C0ED010895A29FB001B39FC001A39F700DB6
S11327D0811D1124911DB29F700D811D1124911D25
S10927E00895F894FFCFF8
S11327E6010000000F00000003000000006D0DA5AD
S11327F60D0000257300E2948000E2948200E294C6
S11328068C00E2949000E2949400E2949800E2949E
S11328169C00E294A400E294B400E294AC00E29436
S1132826BC0053636F72653A200A00253133730086
S11328362531316C750A00486967682053636F72E5
S1132846653A002531316C7500506163646F7473A9
S11328562052656D61696E696E673A20253131646F
S1132866004C697665732052656D61696E696E67A1
S11328763A202531316400E197A400E197A200E1F2
S113288697A700E197A30097019B019F01A3012944
S10F28962A2E2D34343331373936320009
S9030000FC
