S00E00007061636D616E2E73726563A6
S11300000C9449030C9466030C9466030C946603E5
S11300100C9466030C94A3030C9466030C9466037B
S11300200C9466030C9466030C9466030C946603A8
S11300300C9466030C9466030C9466030C94660398
S11300400C9413130C9466030C9466030C946603CB
S11300500C9433120C94F1110C9466030C94660303
S11300600C9466030C9466030C9466030C94660368
S11300700C9466030C9466030C946603640673067E
S113008073067306730673067306730673067306A4
S1130090730659067306E1056E0673067306730646
S11300A073067306730673067306020673067306F5
S11300B07306730632067306250673067306730603
S11300C07306730673067306F705730673067306E1
S11300D0180673060D06730673067306690673061F
S11300E07306730673067306730673067306730644
S11300F073067306730673063F0673067306730668
S11301007306730673067306730673067306730623
S11301107306730673067306730673067306730613
S113012073067306730673064C067306730673062A
S113013073067306EC05462D2D2D2D2D2D2D2D2DFD
S11301402D2D2D2D762D762D2D2D2D2D2D2D2D2D49
S11301502D2D2D2D377C2E2E2E2E2E2E2E2E2E2E68
S11301602E2E2E7C207C2E2E2E2E2E2E2E2E2E2E1D
S11301702E2E2E7C7C2E462D2D2D372E462D2D2DCC
S1130180372E7C207C2E462D2D2D372E462D2D2DC1
S1130190372E7C7C2E7C2020207C2E4C2D2D2D4A2D
S11301A02E4C2D4A2E4C2D2D2D4A2E7C2020207C89
S11301B02E7C7C2E7C2020207C2E2E2E2E2E2E2E4D
S11301C02E2E2E2E2E2E2E2E2E2E7C2020207C2ED9
S11301D07C7C2E7C2020207C2E462D2D2D372E46F7
S11301E02D372E462D2D2D372E7C2020207C2E7C45
S11301F07C504C2D2D2D4A2E4C2D2D2D4A2E4C2D20
S11302004A2E4C2D2D2D4A2E4C2D2D2D4A507C7CC2
S11302102E2E2E2E2E2E2E2E2E2E2E2E2E2E2E2EFA
S11302202E2E2E2E2E2E2E2E2E2E2E2E2E7C7C2E4E
S1130230462D2D2D372E46372E462D2D2D2D2D2D89
S11302402D372E46372E462D2D2D372E7C7C2E4CC9
S11302502D2D2D4A2E7C7C2E4C2D2D3720462D2DD8
S11302604A2E7C7C2E4C2D2D2D4A2E7C7C2E2E2E1F
S11302702E2E2E2E7C7C2E2E2E2E7C207C2E2E2E70
S11302802E7C7C2E2E2E2E2E2E2E7C4C2D2D2D2D86
S11302902D372E7C4C2D2D37207C207C20462D2D77
S11302A04A7C2E462D2D2D2D2D4A20202020202025
S11302B07C2E7C462D2D4A204C2D4A204C2D2D374A
S11302C07C2E7C2020202020202020202020207C08
S11302D02E7C7C20202020202020202020207C7C9C
S11302E02E7C2020202020202D2D2D2D2D2D4A2E1A
S11302F04C4A20462D2D2020202D2D37204C4A2ECF
S11303004C2D2D2D2D2D2D202020202020202E2061
S113031020207C202020202020207C2020202E2013
S11303202020202020202D2D2D2D2D2D372E463719
S1130330204C2D2D2D2D2D2D2D4A2046372E462D8A
S11303402D2D2D2D2D2020202020207C2E7C7C2046
S1130350202020202020202020207C7C2E7C202077
S1130360202020202020202020207C2E7C7C204641
S11303702D2D2D2D2D2D2D37207C7C2E7C202020E5
S1130380202020462D2D2D2D2D4A2E4C4A204C2D3B
S11303902D3720462D2D4A204C4A2E4C2D2D2D2D07
S11303A02D377C2E2E2E2E2E2E2E2E2E2E2E2E2E13
S11303B07C207C2E2E2E2E2E2E2E2E2E2E2E2E2ECB
S11303C07C7C2E462D2D2D372E462D2D2D372E7C23
S11303D0207C2E462D2D2D372E462D2D2D372E7C6F
S11303E07C2E4C2D37207C2E4C2D2D2D4A2E4C2D21
S11303F04A2E4C2D2D2D4A2E7C20462D4A2E7C7CB7
S1130400502E2E7C207C2E2E2E2E2E2E2E2E202E66
S11304102E2E2E2E2E2E2E7C207C2E2E507C3E2DEB
S1130420372E7C207C2E46372E462D2D2D2D2D2D1E
S11304302D372E46372E7C207C2E462D3C3E2D4AD1
S11304402E4C2D4A2E7C7C2E4C2D2D3720462D2DC6
S11304504A2E7C7C2E4C2D4A2E4C2D3C7C2E2E2E4E
S11304602E2E2E2E7C7C2E2E2E2E7C207C2E2E2E7E
S11304702E7C7C2E2E2E2E2E2E2E7C7C2E462D2D4A
S11304802D2D2D4A4C2D2D372E7C207C2E462D2DA6
S11304904A4C2D2D2D2D2D372E7C7C2E4C2D2D2D83
S11304A02D2D2D2D2D2D4A2E4C2D4A2E4C2D2D2DFE
S11304B02D2D2D2D2D2D4A2E7C7C2E2E2E2E2E2EA6
S11304C02E2E2E2E2E2E2E2E2E2E2E2E2E2E2E2E48
S11304D02E2E2E2E2E2E2E7C4C2D2D2D2D2D2D2DD3
S11304E02D2D2D2D2D2D2D2D2D2D2D2D2D2D2D2D38
S11304F02D2D2D2D2D2D4A005072657373206120F2
S1130500627574746F6E20746F20737461727420DA
S1130510616761696E0047414D45204F5645520061
S113052050757368206120627574746F6E206F72E9
S1130530206B657920746F20636F6E74696E7565C6
S1130540004C6576656C20636F6D706C6574650036
S113055053747564656E74204E756D6265723A20CD
S11305603434333137393632004353534532303122
S1130570302070726F6A656374206279203C4A751A
S1130580616E20457370617265733E005061632D26
S11305904D616E00FF05FC05F805F405F005EC055A
S11305A0E805E405E005DC056E066A0666066206F3
S11305B05E065A06560652064F064B064706430683
S11305C03E063A06360632062D062906250620067C
S11305D01C06170612060D06080603066492927D91
S11305E06C92926D809EA0C17C92924DE4A2A29DD9
S11305F0182848FF4492926D468A926342FE037C17
S113060092A27D868A92A2C3E0100E10E1C6281041
S113061028C7FC021C02FDF8040204F9FC0202FDD6
S11306208080FE80816492924DFE9098677C828ADD
S11306307C03FE9090617C82827DFE2010FFFE4050
S11306403040FFFE020203FE1028C7040202FD82AE
S1130650FE83FE1010FF7C82925DFE909081FE92DC
S11306609283FE82827D7C828245FE92926D7E9090
S1130670907F1B5B3F32356C001B5B25646D001B58
S11306805B324A001B5B306D001B5B25643B2564B9
S1130690480011241FBECFEFD8E0DEBFCDBF11E06C
S11306A0A0E0B1E0E4EAFFE202C005900D92A23CB2
S11306B0B107D9F724E0A2ECB1E001C01D92AE303D
S11306C0B207E1F70E9420100C94D0170C9400009C
S11306D0E8E6F0E0808182608083D99AECE6F0E07D
S11306E080818F6080831092C20108958091C2013D
S11306F018163CF58091C3016FB7F8949091C2012C
S11307009230B4F021E030E091E0F901ED53FE4F76
S11307104081F901EE53FE4F40839F5F292F30E063
S11307204091C201042E000C550B241735076CF3BD
S11307309091C20191509093C20166231CF4789465
S113074008958FEF08951F920F920FB60F92112400
S11307502F933F934F935F936F937F938F939F93C5
S1130760EF93FF9343B14F7080E090E0642F70E00B
S11307702091C201243004F59B01082E02C0359556
S113078027950A94E2F720FF17C02091C70130E0B3
S1130790082E02C0359527950A94E2F720FD0CC077
S11307A0E091C20121E02E0F2093C2010E2E000C15
S11307B0FF0BED53FE4F8083019684309105C1F603
S11307C04093C701FF91EF919F918F917F916F911A
S11307D05F914F913F912F910F900FBE0F901F90FB
S11307E018956F3039F494EF980F81E0973060F0EA
S11307F080E008956E3039F492EF980F81E09330E1
S113080018F080E0089580E00895CF92DF92EF928F
S1130810FF92413091F028F0423049F0433099F092
S113082073C0882309F472C020E09FEF11C08E3199
S113083009F46EC020E091E00BC0662309F46AC09D
S11308402FEF90E005C06E3109F466C021E090E01E
S1130850620F890F9091D701891305C09091D60139
S1130860691709F45BC0A1EDB1E0EDECF1E090E0B3
S11308702D91821304C02081621709F451C09F5F37
S113088031969430A9F7462F50E0282F30E0FA0132
S1130890EE0FFF1FEE0FFF1FE65AFD4FC080D18001
S11308A0E280F380082E04C0F694E794D794C794AA
S11308B00A94D2F7C0FC36C0FA01EE0FFF1FEE0F08
S11308C0FF1FE252FE4FC080D180E280F380082EE9
S11308D004C0F694E794D794C7940A94D2F7C0FC62
S11308E023C09FE1949FF001959FF00D1124E20F26
S11308F0F31FEA5CFE4FE491E032D1F0EE32C1F036
S1130900E035B1F08EEF19C08EEF17C08EEF15C031
S11309108EEF13C08EEF11C08EEF0FC08DEF0DC0A0
S1130920892F0BC08CEF09C089EF07C08FEF05C07A
S11309300E94F1038111FACF8BEFFF90EF90DF90CB
S1130940CF900895CF92DF92EF92FF920F931F936F
S1130950CF93DF93082FF62E0E94F103E82EC0E018
S1130960D0E010E0CC24C394D12C4C2F6F2D802FD9
S11309700E9405048E3F4CF4C6010C2E02C0880F61
S1130980991F0A94E2F7182B0CC0EE2051F08F3F08
S113099041F4C6010C2E02C0880F991F0A94E2F795
S11309A0182B2196C430D10501F7812FDF91CF9107
S11309B01F910F91FF90EF90DF90CF90089570E01A
S11309C06F5F7F4F90E001960E94B41281E20E9413
S11309D0D712E091D501F0E0EE0FFF1FEA56FE4F6B
S11309E081818F9380818F9383E191E09F938F9393
S11309F00E9473140E94C5120F900F900F900F90D5
S1130A0008950F931F93CF93DF93182F062FC42FAE
S1130A10D0E0862F90E0BE016F5F7F4F01960E9469
S1130A20B412E12FF0E0E256FE4F80810E94D7120B
S1130A30FE01EE0FFF1FEE0FFF1FE65AFD4F8081F0
S1130A409181A281B381002E04C0B695A795979594
S1130A5087950A94D2F780FF05C08EE290E00E9449
S1130A60AF141CC0CC0FDD1FCC0FDD1FC252DE4FF4
S1130A7088819981AA81BB8104C0B695A795979571
S1130A8087950A95D2F780FF05C080E590E00E9423
S1130A90AF1404C080E290E00E94AF140E94C5121B
S1130AA0DF91CF911F910F9108951F93CF93DF93FF
S1130AB0182FC62FD0E090E0BE016F5F7F4F0196E4
S1130AC00E94B412FE01EE0FFF1FEE0FFF1FE65A45
S1130AD0FD4F80819181A281B381012E04C0B6951E
S1130AE0A795979587950A94D2F780FF05C08EE263
S1130AF090E00E94AF141CC0CC0FDD1FCC0FDD1F93
S1130B00C252DE4F88819981AA81BB8104C0B69507
S1130B10A795979587951A95D2F780FF05C080E52C
S1130B2090E00E94AF1404C080E290E00E94AF14F1
S1130B30DF91CF911F9108958091DB01089583E0A7
S1130B408093DB0108952F923F924F925F926F92B0
S1130B507F928F929F92AF92BF92CF92DF92EF9249
S1130B60FF920F931F93CF93DF930E94CE120E94A4
S1130B70C5120E94E41261E070E081E090E00E94FE
S1130B80B4120F2EF5E56F2EF1E07F2EF02D0F2E0F
S1130B90FEE32F2EF1E03F2EF02D0F2EF3E14F2E2A
S1130BA0F1E05F2EF02DB6C0F601849190E0FC01D7
S1130BB0B097ED35F10508F096C0E25CFF4F0C9458
S1130BC06B139F928F925F924F920E9473140F90B7
S1130BD00F900F900F908BC0BF92AF925F924F9285
S1130BE00E9473140F900F900F900F9080C0DF93AA
S1130BF0CF935F924F920E9473140F900F900F90B7
S1130C000F9075C01F930F935F924F920E947314BD
S1130C100F900F900F900F906AC0FF92EF925F9227
S1130C204F920E9473140F900F900F900F905FC01B
S1130C308AE291E09F938F935F924F920E94731484
S1130C400F900F900F900F9052C08EE291E09F93FF
S1130C508F935F924F920E9473140F900F900F9096
S1130C600F9045C082E391E09F938F935F924F92E0
S1130C700E9473140F900F900F900F9038C086E36A
S1130C8091E09F938F935F924F920E9473140F9001
S1130C900F900F900F902BC08AE391E09F938F9356
S1130CA05F924F920E9473140F900F900F900F90C9
S1130CB01EC03F922F925F924F920E9473140F9026
S1130CC00F900F900F9013C080E290E00E94AF1439
S1130CD00EC080E590E00E94AF1409C08EE290E05F
S1130CE00E94AF1404C088E790E00E94AF14FFEFA5
S1130CF0CF1ADF0A6C147D0409F056CF8AE090E025
S1130D000E94AF142FE1620E711C86E195E08615F6
S1130D109705D9F063019FE1C91AD1080F2EF6E2B5
S1130D20EF2EF1E0FF2EF02D02E211E0CEE1D1E052
S1130D300F2EFAE1AF2EF1E0BF2EF02D0F2EF6E1CB
S1130D408F2EF1E09F2EF02D2FCF0AE512E06EEDED
S1130D5071E040E050E020E030E0C12CD12C76017D
S1130D60C394D801F8011082118212821382EB011C
S1130D70188219821A821B8280E090E0FC01E20F43
S1130D80F31FEA5CFE4FE491EE32D9F44D905D908E
S1130D906D907C90139746015701082E04C0880C6F
S1130DA0991CAA1CBB1C0A94D2F784289528A6284F
S1130DB0B7288D929D92AD92BC9213974F5F5F4F6F
S1130DC018C0E035B1F4488059806A807B804601C0
S1130DD05701082E04C0880C991CAA1CBB1C0A9439
S1130DE0D2F784289528A628B72888829982AA82CF
S1130DF0BB8201968F31910509F0C0CF215E3F4F30
S1130E000C5F1F4F6C5F7F4F213CF3E03F0709F0FD
S1130E10A8CF5093DD014093DC018FE08093D7018C
S1130E2087E18093D60182E08093D50167E18FE06A
S1130E300E94DF040F2EF1EDAF2EF1E0BF2EF02D56
S1130E400F2EFDECCF2EF1E0DF2EF02D0F2EF9EC5E
S1130E50EF2EF1E0FF2EF02DDCE0C0E01FE002E019
S1130E60F501D1935F01F60111936F01F70101932D
S1130E707F01412F6D2F8C2F0E940105CF5FDE5F14
S1130E80C43071F7DF91CF911F910F91FF90EF90D4
S1130E90DF90CF90BF90AF909F908F907F906F9096
S1130EA05F904F903F902F9008950E94A30581E09A
S1130EB08093C8010895CF92DF92EF92FF920F932F
S1130EC01F93CF93DF938091C801882309F487C2CD
S1130ED01091D601D091D7014091D501612F8D2F6A
S1130EE00E940504C82F8E3F09F47BC2612F8D2F09
S1130EF00E9455058091D50181110FC08091D701C1
S1130F0081508093D701811125C08091D6018F3003
S1130F1009F58EE18093D7011DC0823071F4809170
S1130F20D7018F5F8093D7018E31A1F48091D601D0
S1130F308F3081F41092D7010DC0813031F480914B
S1130F40D60181508093D60105C08091D6018F5F70
S1130F508093D601CC230CF4EFC08091DA01811187
S1130F603AC00C2F0C2E000C110BF801E256FE4F68
S1130F7080810E94D7126091D6018091D7010E948E
S1130F80DF048091DB0181508093DB0165E070E038
S1130F9085E290E00E94B4128091DB011F928F934E
S1130FA082E491E09F938F930E947314F801EF52AF
S1130FB0FE4F8CE08083F801E353FE4F8FE0808383
S1130FC04FE06CE08C2F0E9401050F900F900F9062
S1130FD00F9081E007C2813009F0AEC08C2F0C2E37
S1130FE0000C990BFC01EF52FE4F2CE02083FC0116
S1130FF0E353FE4F2FE020834FE06CE08C2F0E94E0
S113100001058091D8019091D9018130910571F445
S113101088EC90E00E9437108091D8019091D9011A
S113102001969093D9018093D80128C0823091050C
S113103071F480E991E00E9437108091D801909179
S1131040D90101969093D9018093D80117C08330B8
S1131050910571F480E293E00E9437108091D801E9
S11310609091D90101969093D9018093D80106C03B
S1131070049721F480E496E00E94371068E070E061
S113108085E290E00E94B4128DE491E09F938F93E7
S113109086E591E09F938F930E94731469E070E05A
S11310A085E290E00E94B4120E944C109F938F93AB
S11310B07F936F938BE591E09F938F930E947314BA
S11310C00E944C106B017C010E945E102DB73EB74C
S11310D0265F3F4F0FB6F8943EBF0FBE2DBF6C1571
S11310E07D058E059F0520F40E944C100E9455102A
S11310F06AE070E085E290E00E94B41282E691E03A
S11311000E94B6146BE070E085E290E00E94B41295
S11311100E945E109F938F937F936F938BE591E072
S11311209F938F930E9473140F900F900F900F90C2
S11311300F900F9081E056C1CC3F09F0B4C0E0910C
S1131140D601F0E0EE0FFF1FEE0FFF1FE65AFD4F32
S113115081E090E0A0E0B0E00090D70104C0880FE7
S1131160991FAA1FBB1F0A94D2F780959095A0954A
S1131170B095408151816281738184239523A62394
S1131180B72380839183A283B3838091DC01909100
S1131190DD0101979093DD018093DC018AE090E00A
S11311A00E94371068E070E085E290E00E94B4127B
S11311B08DE491E09F938F9386E591E09F938F93C5
S11311C00E94731469E070E085E290E00E94B4121A
S11311D00E944C109F938F937F936F938BE591E0C4
S11311E09F938F930E9473140E944C106B017C0197
S11311F00E945E102DB73EB7265F3F4F0FB6F8949E
S11312003EBF0FBE2DBF6C157D058E059F0520F4D6
S11312100E944C100E9455106AE070E085E290E054
S11312200E94B41282E691E00E94B6146BE070E072
S113123085E290E00E94B4120E945E109F938F9307
S11312407F936F938BE591E09F938F930E94731428
S11312506DE070E085E290E00E94B4128091DD01BF
S11312608F938091DC018F938EE691E09F938F930F
S11312700E94731465E070E085E290E00E94B4126D
S11312808091DB011F928F9382E491E09F938F936F
S11312900E9473148DB79EB70E960FB6F8949EBF36
S11312A00FBE8DBF94C0C93F09F091C0E091D60133
S11312B0F0E0EE0FFF1FEE0FFF1FE252FE4F81E042
S11312C090E0A0E0B0E00090D70104C0880F991F1F
S11312D0AA1FBB1F0A94D2F780959095A095B0954C
S11312E0408151816281738184239523A623B7238E
S11312F080839183A283B38382E390E00E943710BA
S113130068E070E085E290E00E94B4128DE491E020
S11313109F938F9386E591E09F938F930E9473141C
S113132069E070E085E290E00E94B4120E944C10E3
S11313309F938F937F936F938BE591E09F938F930C
S11313400E9473140E944C106B017C010E945E1079
S11313502DB73EB7265F3F4F0FB6F8943EBF0FBE82
S11313602DBF6C157D058E059F0520F40E944C1041
S11313700E9455106AE070E085E290E00E94B41289
S113138082E691E00E94B6146BE070E085E290E0A2
S11313900E94B4120E945E109F938F937F936F9369
S11313A08BE591E09F938F930E94731481E0809367
S11313B0DA0181E090E09093D9018093D8010E94F2
S11313C005130F900F900F900F900F900F90609156
S11313D0D6018091D7010E94DF0481E003C080E040
S11313E001C080E0DF91CF911F910F91FF90EF90AA
S11313F0DF90CF9008951F93CF93DF939091C8010E
S11314009923A1F0C82F1091D601D091D701482F6C
S1131410612F8D2F0E9405048E3F51F0C093D5019A
S1131420612F8D2F0E94DF0481E003C080E001C0A2
S113143080E0DF91CF911F910895CF92DF92EF92D8
S1131440FF920F931F93CF93DF939091C801992339
S113145009F4C4C2C82F90E0FC01EF52FE4F108182
S1131460FC01E353FE4FF080FC01E753FE4FD081B3
S11314706F2D812F0E94A204082F882309F4AEC285
S11314806F2D812F0E94F103882309F439C201FFD3
S113149037C27CC20091D701011BD091D601DF195C
S11314A06F2D812F0E94A204882309F497C2402F34
S11314B0002E000C550B55231CF4519541955109F0
S11314C02D2F0D2E000C330B33231CF43195219555
S11314D03109421753074CF4DD231CF481FF05C086
S11314E055C21D1614F483FD65C2002354F480FD17
S11314F026C2DD231CF481FF1EC248C283FD5AC2EA
S11315001AC282FD2FC2DD231CF481FF08C23EC231
S113151083FD50C204C281E090E0AB01082E02C0FA
S1131520559547950A94E2F740FDA0C00196843092
S1131530910599F753C2002E000C110B4D2F50E06A
S1131540C8010D2E02C0959587950A94E2F780FD97
S113155094C0DC0FD3702D2F0D2E000C330BC8015B
S11315600D2E02C0959587950A94E2F780FD85C0FB
S11315702E5F3F4F23703078332334F421503109E8
S11315802C6F3F6F2F5F3F4F022E02C015950795BA
S11315900A94E2F700FD6CC09A012E5F3F4F23705E
S11315A03078332334F4215031092C6F3F6F2F5F8F
S11315B03F4FD22F62C0002E000C110B2091D50199
S11315C0C801022E02C0959587950A94E2F780FF20
S11315D002C0D22F52C00E94DE13DC01CB01837003
S11315E09927AA27B078BB2354F40197A109B1091C
S11315F08C6F9F6FAF6FBF6F0196A11DB11D482FF8
S1131600682F880F770B9B0123703078332334F4D1
S1131610215031092C6F3F6F2F5F3F4FC801022EBD
S113162002C0959587950A94E2F780FD23C06F5F09
S11316307F4F042E000C550B4C5F5F4FCB01837022
S11316409078992324F401978C6F9F6F0196282F2B
S1131650F80102C0F595E7958A95E2F7E0FD0CC024
S11316606F5F7F4F6417750749F7B8C1D82F05C05E
S1131670D22F03C0D22F01C0D22FDD230CF4AEC170
S11316800C2F0C2E000C110BD801A353BE4FF801E4
S1131690EF52FE4F6C9180810E945505F801E7538B
S11316A0FE4FD083D130B9F01CF4DD2331F020C0DB
S11316B0D23051F0D330B1F01BC0F801EF52FE4FDD
S11316C080818150808314C0F801EF52FE4F8081E5
S11316D08F5F80830DC0F801E353FE4F80818150FA
S11316E0808306C0F801E353FE4F80818F5F8083BF
S11316F0F801E353FE4F4081F801EF52FE4F608141
S11317008091D7016813F6C08091D6014813F2C0C6
S11317100DC18091DB0181508093DB0165E070E0B5
S113172085E290E00E94B4128091DB011F928F93B6
S113173082E491E09F938F930E947314F801E25620
S1131740FE4F80810E94D712980123533E4F7901A6
S11317500F521E4FF9016081F80180810E94DF045D
S11317608CE0F80180838FE0F70180834FE06CE028
S11317708C2F0E9401050F900F900F900F90BDC009
S1131780813009F0B7C0F801E256FE4F80810E9413
S1131790D712980123533E4F79010F521E4FF9017E
S11317A06081F80180810E94DF048CE0F80180836D
S11317B08FE0F70180834FE06CE08C2F0E940105DD
S11317C08091D8019091D9018130910571F488EC10
S11317D090E00E9437108091D8019091D901019630
S11317E09093D9018093D80128C08230910571F477
S11317F080E991E00E9437108091D8019091D9013D
S113180001969093D9018093D80117C08330910534
S113181071F480E293E00E9437108091D801909196
S1131820D90101969093D9018093D80106C00497F9
S113183021F480E496E00E94371068E070E085E2CD
S113184090E00E94B4128DE491E09F938F9386E51B
S113185091E09F938F930E94731469E070E085E296
S113186090E00E94B4120E944C109F938F937F9338
S11318706F938BE591E09F938F930E9473140E9462
S11318804C106B017C010E945E102DB73EB7265FA1
S11318903F4F0FB6F8943EBF0FBE2DBF6C157D05AC
S11318A08E059F0520F40E944C100E9455106AE09A
S11318B070E085E290E00E94B41282E691E00E941A
S11318C0B6146BE070E085E290E00E94B4120E94CE
S11318D05E109F938F937F936F938BE591E09F931B
S11318E08F930E9473140F900F900F900F900F908E
S11318F00F9003C08C2F0E9401050E94C5126EC078
S1131900C13009F418CE24F4CC2309F4C3CD66C045
S1131910C23009F450CEC33009F40DCE5FC0682F35
S1131920082E000C770B80FFF6CD09C08091DA01F8
S1131930811126CFEECE682F880F770BECCD0C2FBC
S11319400C2E000C110BD801A353BE4FF801EF521B
S1131950FE4F6C9180810E945505F801E753FE4FBC
S11319601082ABCE0C2F0C2E000C110BD801A353FC
S1131970BE4FF801EF52FE4F6C9180810E945505D5
S1131980F801E753FE4F82E080839ECE0C2F0C2E8D
S1131990000C110BD801A353BE4FF801EF52FE4FB8
S11319A06C9180810E945505F801E753FE4F81E058
S11319B0808391CE0C2F0C2E000C110BD801A35355
S11319C0BE4FF801EF52FE4F6C9180810E94550585
S11319D0F801E753FE4F83E0808384CEDF91CF91FB
S11319E01F910F91FF90EF90DF90CF90089581E0C9
S11319F09091C801911180E0089581E02091DC016B
S1131A003091DD01232B09F080E0089580E4809378
S1131A107C0086E880937A000895CF93DF93ECE707
S1131A20F0E080818E7F8083EAE7F0E0808180644B
S1131A308083808186FDFDCF80917800909179002C
S1131A409093DE028093DD02ECE7F0E08081816018
S1131A508083EAE7F0E08081806480839081892F2D
S1131A60807496FDFBCF409178005091790050939B
S1131A70DC024093DB022091DD023091DE02213052
S1131A8093E0390708F059C0213091E0390708F490
S1131A9056C0413093E0590708F053C0413091E0FB
S1131AA0590708F450C0D091DA02D33031F4223807
S1131AB0314008F451C0CFEF30C0D13031F4423856
S1131AC0524008F049C0CFEF28C0D23031F4423838
S1131AD0514008F441C0CFEF20C0D430D1F52238B2
S1131AE03240D0F5CFEF19C00E940513AB01BC0101
S1131AF05527662777278091D6029091D702A09127
S1131B00D802B091D902845D9E4FAF4FBF4F4817A2
S1131B1059076A077B0778F0CD2F0E94051360935D
S1131B20D6027093D7028093D8029093D902C093BF
S1131B30DA028C2F14C08FEF12C0C4E005C0C3E0DA
S1131B4003C0C1E001C0C2E0D091DA02CD13E5CFF9
S1131B50CBCFDD2321F0C8CFD091DA02C5CFDF91FE
S1131B60CF91089580E80E94861208950F931F93E1
S1131B70CF93DF93803190F48B01C82F83E00E94D0
S1131B80AE128C2F8F700E94AE12E801085F1F4FB7
S1131B9089910E94AE12C017D107D1F7DF91CF917E
S1131BA01F910F91089584E00E94AE1282E00E947A
S1131BB0AE1208958FE00E94AE1208950E94B20DF5
S1131BC00E94060D0E94680340E060E07BE480E030
S1131BD090E00E949E110E94ED12789408950E9454
S1131BE0CE126AE070E08AE090E00E94B4128CE8C1
S1131BF095E09F938F930E9489146CE070E08AE0D3
S1131C0090E00E94B41289E695E09F938F930E941E
S1131C1089146EE070E08AE090E00E94B41280E5DE
S1131C2095E09F938F930E9489140E94DA0D0F9080
S1131C300F900F900F900F900F9060EF82EA91E059
S1131C400E94671010C02FE789EA93E0215080407A
S1131C509040E1F700C000000E9476038F3F19F026
S1131C600E94DA0D08950E9476108111ECCFE5CF21
S1131C706AE070E083E290E00E94B41281E495E0AF
S1131C809F938F930E9489146BE070E083E290E04D
S1131C900E94B41280E295E09F938F930E9489146E
S1131CA00E94EC110F900F900F900F900E947603FA
S1131CB08F3F21F40E94E5118823C1F30E94EC11A7
S1131CC008950E949C0518B8813011F488B90895CC
S1131CD0823019F483E088B90895833011F487E0E1
S1131CE088B908950E94610E6EE070E083E290E08E
S1131CF00E94B41286E195E09F938F930E94891409
S1131D0060E170E083E290E00E94B41288EF94E016
S1131D109F938F930E9489140F900F900F900F90B0
S1131D200E9476038F3FE1F308951092DF020E9430
S1131D3055070E942E100E949F050E94610E0E946A
S1131D4076030E94EC1108952F923F924F925F9276
S1131D506F927F928F929F92AF92BF92CF92DF92B7
S1131D60EF92FF920F931F93CF93DF93CDB7DEB71C
S1131D7060970FB6F894DEBF0FBECDBF0E94051367
S1131D802B013C016D877E878F87988B69877A87C3
S1131D908B879C876D837E838F83988769837A83FF
S1131DA08B839C83912C0F2EF8E02F2EF4E03F2E92
S1131DB0F02D882483940F2EF4EBAF2EF1E0BF2E88
S1131DC0F02D0EC10E947603182F0E94610E1F3F52
S1131DD009F00FC10E94E511882309F40CC1F10137
S1131DE0808191810E943514082F911003C08B319A
S1131DF059F403C1F1E09F1203C08B3529F400C1EB
S1131E0022E0921609F401C1802F8F7D8E3429F4CB
S1131E100E94950E912C0FEF2EC00F7D003549F5D1
S1131E208091DF02982D811190E09093DF0281115F
S1131E3011C064E070E085E290E00E94B4128BEA85
S1131E4091E09F938F930E9473140F900F90912CA5
S1131E500FEF11C064E070E085E290E00E94B412DC
S1131E60BF92AF920E9473140F900F90912C0FEFBA
S1131E7002C0912C0FEF8091DF028111B1C00E944A
S1131E800D0D133021F0013411F0833021F480E082
S1131E900E94FB091DC0123021F0073511F081307A
S1131EA021F4882D0E94FB0913C0113021F0033561
S1131EB011F0823021F483E00E94FB0909C0112350
S1131EC021F0043411F0843019F482E00E94FB09FB
S1131ED00E9405136B017C010E94F70C811120C044
S1131EE0D301C20180579E4FAF4FBF4FC816D906CA
S1131EF0EA06FB06A8F00E945B070E94FD0C8823FB
S1131F0069F00E94380E0E94A3050E9405132B015C
S1131F103C0169837A838B839C8302C02601370149
S1131F200E94F70C811114C089819A81AB81BC8114
S1131F308C559E4FAF4FBF4FC816D906EA06FB0615
S1131F4038F080E00E941D0AC982DA82EB82FC82AA
S1131F500E94F70C811114C08D819E81AF81B885D8
S1131F608E539E4FAF4FBF4FC816D906EA06FB06E5
S1131F7038F0882D0E941D0ACD82DE82EF82F88619
S1131F800E94F70C811114C089859A85AB85BC85A4
S1131F908C509E4FAF4FBF4FC816D906EA06FB06BA
S1131FA038F082E00E941D0AC986DA86EB86FC8638
S1131FB00E94F70C811114C08D859E85AF85B88968
S1131FC0865C9D4FAF4FBF4FC816D906EA06FB0685
S1131FD038F083E00E941D0ACD86DE86EF86F88AFB
S1131FE00E94F70C811113C00E949C058111EACE56
S1131FF00EC00FEF40CF0FEF3ECF982C0FEF3BCF2B
S11320006894992491F80FEF36CF912C34CF6096D1
S11320100FB6F894DEBF0FBECDBFDF91CF911F91F5
S11320200F91FF90EF90DF90CF90BF90AF909F9073
S11320308F907F906F905F904F903F902F90089576
S11320400E94DE0D0E94EF0D0E94950E0E94A40EC8
S11320500E94720EF9CF8091DF0208951092F0026F
S11320601092F1021092F2021092F302089540913C
S1132070F0025091F1026091F2027091F302480F64
S1132080591F611D711D4093F0025093F10260933A
S1132090F2027093F30208956091F0027091F102DC
S11320A08091F2029091F30208956093EC02709390
S11320B0ED028093EE029093EF0208956091EC029A
S11320C07091ED028091EE029091EF020895609379
S11320D004019093E4028093E3021092E6021092CA
S11320E0E5021092E2021092E10208950F931F9309
S11320F0CF93DF93CDB7DEB728970FB6F894DEBF42
S11321000FBECDBFE091E502F091E602309781F079
S1132110149110FF06C01092E6021092E50200E04E
S11321206BC03196F093E602E093E50200E064C0F0
S1132130E091E102F091E202309709F449C0CF0145
S113214001969093E2028093E102E081E1110AC0DA
S11321501092E2021092E10280E18093E00200E03A
S113216010E04AC08FE98E0F8A3170F4F0E0EE0F70
S1132170FF1FEA51FB4F859194919093E60280935F
S1132180E50200E010E038C08FEB8E0F8A3170F466
S1132190F0E0EE0FFF1FEA5DFA4F85919491909362
S11321A0E6028093E50200E010E026C080ED8E0F89
S11321B08A3000F5F0E0EE0FFF1FEC5CFA4F8591DA
S11321C094919093E6028093E50200E010E014C03D
S11321D08091E3029091E40201E0009709F000E0AD
S11321E09093E2028093E1021092E4021092E302DF
S11321F010E002C000E010E00E94D30D2091040121
S1132200FE013896CE010196112314F4208301C0F7
S11322101082110F3197E817F907B1F71982BE013F
S11322206F5F7F4F8FE00E94B60D8091E00288239C
S113223089F081508093E002002311F0882311F08B
S113224090E003C091E001C091E081E0992329F07E
S113225080E003C00023A1F3F7CF28960FB6F894CB
S1132260DEBF0FBECDBFDF91CF911F910F910895B7
S1132270CF93C82F8A3019F48DE00E9438119FB78C
S1132280907802C0992329F18091F5028F3FD1F310
S1132290F894E091F40281E08E0F8093F402F0E070
S11322A0EA50FD4FC0838091F5028F5F8093F50261
S11322B08091F4028F3F11F41092F402E1ECF0E00B
S11322C0808180628083992339F0789480E090E063
S11322D005C081E090E002C080E090E0CF910895D5
S11322E0809107048823E1F32FB72078F894809134
S11322F0F5033091070490E0831B91095AF4E091AF
S1132300F50380910704F0E0E81BF109EA5FFB4F55
S113231080810AC0E091F50380910704F0E0E81B96
S1132320F109EA50FC4F80819091070491509093F9
S11323300704222309F0789490E008951092F4029F
S11323401092F5021092F5031092070410920604FD
S11323504093E702DC01CB01880F991FAA1FBB1F22
S1132360880F991FAA1FBB1F9C01AD01220F331FA9
S1132370441F551F60E072E18AE790E00E944C130D
S1132380BA01A9014F5F5F4F6F4F7F4FDB01CA0155
S11323901AF40196A11DB11DB595A795979587953A
S11323A001979093C5008093C400E1ECF0E088E1CC
S11323B08083808180688083E8E0F4E085E091E0B8
S11323C0938382839183808308959091070481E0AD
S11323D0911101C080E008951092F5031092070452
S11323E008951F920F920FB60F9211242F938F937B
S11323F09F93EF93FF938091F502882329F18091B5
S1132400F4022091F50290E0821B91095AF4E091C4
S1132410F4028091F502F0E0E81BF109EB50FC4F67
S113242090810AC0E091F4028091F502F0E0E81B8B
S1132430F109EA50FD4F90818091F502815080931B
S1132440F5029093C60005C0E1ECF0E080818F7D39
S11324508083FF91EF919F918F912F910F900FBEE9
S11324600F901F9018951F920F920FB60F92112480
S11324702F933F934F935F936F937F938F939F9388
S1132480AF93BF93CF93EF93FF93C091C600809116
S1132490E702882349F08091F5028F3F29F060E03C
S11324A070E08C2F0E94381180910704803120F055
S11324B081E08093060418C0CD3009F4CAE0E091AD
S11324C0F50381E08E0F8093F503F0E0EA50FC4FB2
S11324D0C083809107048F5F809307048091F50384
S11324E0803111F41092F503FF91EF91CF91BF91D8
S11324F0AF919F918F917F916F915F914F913F9198
S11325002F910F900FBE0F901F90189594B1906B60
S113251094B92C9A90E59CBD883021F0803211F05A
S1132520823019F491E09DBD01C01DBC803269F078
S113253028F4883071F0803161F00EC0803429F0C5
S1132540803851F48CB581608CBD8CB582608CBDB3
S113255003C08CB581608CBD2C9808958EBD0DB4DC
S113256007FEFDCF8EB508959F938F937F936F934E
S113257089E896E09F938F930E9489140F900F909F
S11325800F900F900F900F90089584E896E09F931A
S11325908F930E9489140F900F9008958FE796E00F
S11325A09F938F930E9489140F900F9008951F9208
S11325B08F9389E796E09F938F930E9489140F90DD
S11325C00F900F900F90089582E796E09F938F935A
S11325D00E9489140F900F9008951092E8021092AF
S11325E0E9021092EA021092EB0216BC8CE787BD56
S11325F082E084BD83E085BDEEE6F0E08081826008
S1132600808385B3827085BB08952FB7F894609159
S1132610E8027091E9028091EA029091EB02222390
S11326200CF4789408951F920F920FB60F92112410
S11326302F933F934F935F936F937F938F939F93C6
S1132640AF93BF93EF93FF930E942B10811113C09C
S11326508091E8029091E902A091EA02B091EB0224
S11326600196A11DB11D8093E8029093E902A09305
S1132670EA02B093EB02FF91EF91BF91AF919F916A
S11326808F917F916F915F914F913F912F910F9017
S11326900FBE0F901F901895052E97FB1EF4009403
S11326A00E94631357FD07D00E94711307FC03D0E7
S11326B04EF40C94631350954095309521953F4FFB
S11326C04F4F5F4F089590958095709561957F4F1A
S11326D08F4F9F4F0895EE0FFF1F0590F491E02D4B
S11326E00994A1E21A2EAA1BBB1BFD010DC0AA1F4F
S11326F0BB1FEE1FFF1FA217B307E407F50720F067
S1132700A21BB30BE40BF50B661F771F881F991FE1
S11327101A9469F760957095809590959B01AC012A
S1132720BD01CF0108958F929F92AF92BF92CF9235
S1132730DF92EF92FF92CF93DF93EC01688179816E
S11327408A819B81611571058105910521F464E2FB
S113275079ED8BE597E02DE133EF41E050E00E9405
S11327604C1349015A019B01AC01A7EAB1E40E9450
S113277077176B017C01ACEEB4EFA50194010E94C4
S11327808517DC01CB018C0D9D1DAE1DBF1DB7FF50
S113279003C00197A109B04888839983AA83BB83A6
S11327A0BC01CD019F77DF91CF91FF90EF90DF9037
S11327B0CF90BF90AF909F908F9008958F929F92EB
S11327C0AF92BF92CF92DF92EF92FF92609100019D
S11327D070910101809102019091030161157105CD
S11327E08105910521F464E279ED8BE597E02DE113
S11327F033EF41E050E00E944C1349015A019B0120
S1132800AC01A7EAB1E40E9477176B017C01ACEE3E
S1132810B4EFA50194010E948517DC01CB018C0D56
S11328209D1DAE1DBF1DB7FF03C00197A109B04890
S11328308093000190930101A0930201B0930301DE
S1132840BC01CD019F77FF90EF90DF90CF90BF90B8
S1132850AF909F908F900895609300017093010151
S113286080930201909303010895CF93DF93EC01C9
S11328702B8120FF33C026FF0AC02F7B2B838E8140
S11328809F8101969F838E838A8190E029C022FFD5
S11328900FC0E881F9818081082E000C990B009704
S11328A019F420622B831AC03196F983E8830EC091
S11328B0EA85FB85099597FF09C02B81019611F0E4
S11328C080E201C080E1822B8B8308C02E813F818E
S11328D02F5F3F4F3F832E83992702C08FEF9FEFD7
S11328E0DF91CF910895A0E0B0E0E9E7F4E10C9422
S11328F09A17AE014B5F5F4FFA0161917191AF017D
S113290080910A0490910B040E94E614E2E00C9476
S1132910B617A0E0B0E0EFE8F4E10C949817AE012C
S1132920495F5F4FDA016D917D91AD0108E014E0DC
S1132930F80182819381DC0113962C91139728600E
S113294013962C930E94E614D8011296ED91FC91F3
S113295013972381277F2383E4E00C94B4176091B9
S11329600A0470910B040E94DD1608950F931F93BF
S1132970CF93DF93E0910A04F0910B04238121FFAC
S11329801BC08C01D0E0C0E0F80181918F016091FF
S11329900A0470910B04DB011896ED91FC911997D0
S11329A0882331F00995892B79F3DFEFCFEFECCF52
S11329B08AE00995892B19F08FEF9FEF02C08D2FC4
S11329C09C2FDF91CF911F910F910895ABE0B0E060
S11329D0ECEEF4E10C948A176C017B018A01FC0192
S11329E017821682838181FFCCC1CE0101963C01FE
S11329F0F6019381F70193FD859193FF81917F0106
S1132A00882309F4BAC1853239F493FD859193FF83
S1132A1081917F01853229F4B60190E00E94DD1690
S1132A20E7CF912C212C312CFFE1F315D8F08B3218
S1132A3079F038F4803279F08332A1F4232D2061C7
S1132A401DC08D3261F0803369F4232D216016C0DE
S1132A50832D8260382EE32DE4603E2E2AC0F32DB0
S1132A60F8601DC037FC2DC020ED280F2A3040F03F
S1132A708E32B9F436FC81C1232D2064322E19C064
S1132A8036FE06C08AE0989E200D1124922E11C0B5
S1132A90EAE02E9E200D1124222EF32DF0623F2E0B
S1132AA008C08C3621F4832D8068382E02C0883605
S1132AB041F4F70193FD859193FF81917F01811189
S1132AC0B3CF982F9F7D9554933028F40C5F1F4FFC
S1132AD09FE399830DC0833631F0833771F08335DA
S1132AE009F059C021C0F801808189830E5F1F4F0E
S1132AF088248394912C530113C02801F2E04F0ED3
S1132B00511CF801A080B18036FE03C0692D70E02D
S1132B1002C06FEF7FEFC5010E94D2164C01820103
S1132B20F32DFF773F2E16C0280122E0420E511CE0
S1132B30F801A080B18036FE03C0692D70E002C0A8
S1132B406FEF7FEFC5010E94C7164C01F32DF068AB
S1132B503F2E820133FC1BC0822D90E0881699061B
S1132B60B0F4B60180E290E00E94DD162A94F4CF1E
S1132B70F50137FC859137FE81915F01B60190E044
S1132B800E94DD1621102A9421E0821A91088114F2
S1132B90910471F7E8C0843611F0893641F5F801E3
S1132BA037FE07C060817181828193810C5F1F4F62
S1132BB008C060817181072E000C880B990B0E5F91
S1132BC01F4FF32DFF763F2E97FF09C090958095F8
S1132BD0709561957F4F8F4F9F4FF0683F2E2AE08D
S1132BE030E0A3010E941917882E861845C0853746
S1132BF031F4232D2F7EB22E2AE030E025C0932D10
S1132C00997FB92E8F36C1F018F4883579F0B5C0A4
S1132C10803719F0883721F0B0C0E92FE061BE2E6B
S1132C20B4FE0DC0FB2DF460BF2E09C034FE0AC0F3
S1132C30292F2660B22E06C028E030E005C020E12E
S1132C4030E002C020E132E0F801B7FE07C0608145
S1132C507181828193810C5F1F4F06C060817181F5
S1132C6080E090E00E5F1F4FA3010E941917882E89
S1132C708618FB2DFF773F2E36FE0DC0232D2E7FA9
S1132C80A22E891458F434FE0BC032FC09C0832DE3
S1132C908E7EA82E05C0B82CA32C03C0B82C01C06E
S1132CA0B92CA4FE0FC0FE01E80DF11D8081803314
S1132CB021F49A2D997EA92E09C0A2FE06C0B394D0
S1132CC0B39404C08A2D867809F0B394A3FC11C090
S1132CD0A0FE06C0B21488F4280C922C9B180EC0D7
S1132CE0B21460F4B60180E290E00E94DD16B39461
S1132CF0F7CFB21418F42B1802C0982C212CA4FE80
S1132D0010C0B60180E390E00E94DD16A2FE17C059
S1132D10A1FC03C088E790E002C088E590E0B6011A
S1132D200CC08A2D867859F0A1FE02C08BE201C046
S1132D3080E2A7FC8DE2B60190E00E94DD168914C2
S1132D4038F4B60180E390E00E94DD169A94F7CF40
S1132D508A94F301E80DF11D8081B60190E00E9490
S1132D60DD168110F5CF222009F442CEB60180E2AF
S1132D7090E00E94DD162A94F6CFF60186819781B1
S1132D8002C08FEF9FEF2B96E2E10C94A617FC0193
S1132D900590615070400110D8F7809590958E0F82
S1132DA09F1F0895FC016150704001900110D8F7F5
S1132DB0809590958E0F9F1F08950F931F93CF9327
S1132DC0DF93FB01238121FD03C08FEF9FEF2CC014
S1132DD022FF16C04681578124813581421753074B
S1132DE044F4A081B1819D012F5F3F4F3183208343
S1132DF08C93268137812F5F3F4F3783268314C0FE
S1132E008B01EC01FB010084F185E02D0995892BF0
S1132E10E1F6D80116968D919C9117970196179615
S1132E209C938E931697CE01DF91CF911F910F91B2
S1132E300895FA01AA27283051F1203181F1E8944C
S1132E406F936E7F6E5F7F4F8F4F9F4FAF4FB1E099
S1132E503ED0B4E03CD0670F781F891F9A1FA11D94
S1132E60680F791F8A1F911DA11D6A0F711D811D95
S1132E70911DA11D20D009F468943F912AE0269F5A
S1132E8011243019305D3193DEF6CF010895462FB9
S1132E904770405D4193B3E00FD0C9F7F6CF462F9A
S1132EA04F70405D4A3318F0495D31FD4052419303
S1132EB002D0A9F7EACFB4E0A695979587957795C0
S1132EC06795BA95C9F700976105710508959B0147
S1132ED0AC010A2E06945795479537952795BA95D0
S1132EE0C9F7620F731F841F951FA01D08950E94C8
S1132EF0C117A59F900DB49F900DA49F800D911DA7
S1132F0011240895B7FF0C9477170E947717821B3A
S1132F10930B08952F923F924F925F926F927F92FC
S1132F208F929F92AF92BF92CF92DF92EF92FF92D5
S1132F300F931F93CF93DF93CDB7DEB7CA1BDB0B81
S1132F400FB6F894DEBF0FBECDBF09942A88398826
S1132F5048885F846E847D848C849B84AA84B9842D
S1132F60C884DF80EE80FD800C811B81AA81B98139
S1132F70CE0FD11D0FB6F894DEBF0FBECDBFED014D
S1132F800895A29FB001B39FC001A39F700D811D3E
S1132F901124911DB29F700D811D1124911D08955E
S1072FA0F894FFCFCF
S1132FA4010000000F00000003000000003811704D
S1132FB4110000257300E2948000E2948200E294FC
S1132FC48C00E2949000E2949400E2949800E294D9
S1132FD49C00E294A400E294B400E294AC00E29471
S1132FE4BC004C697665733A202535640053636FDD
S1132FF472653A200A0025313373002531316C752A
S11330040A00486967682053636F72653A00506127
S113301463646F74732052656D61696E696E673A97
S1133024202531316400E197A400E197A200E197DF
S1133034A700E197A30086018A018E019201292A3F
S11330442E2D34343331373936320050617573657B
S1133054207C7C00202020202020202020202020D0
S1053064200046
S9030000FC
