:100000000C9449030C9466030C9466030C946603E9
:100010000C9466030C94A3030C9466030C9466037F
:100020000C9466030C9466030C9466030C946603AC
:100030000C9466030C9466030C9466030C9466039C
:100040000C941B0F0C9466030C9466030C946603CB
:100050000C943B0E0C94F90D0C9466030C946603FF
:100060000C9466030C9466030C9466030C9466036C
:100070000C9466030C9466030C9466031206210626
:100080002106210621062106210621062106210638
:100090002106070621068F051C06210621062106DA
:1000A00021062106210621062106B005210621068A
:1000B00021062106E0052106D30521062106210699
:1000C0002106210621062106A50521062106210675
:1000D000C6052106BB0521062106210617062106B5
:1000E00021062106210621062106210621062106D8
:1000F0002106210621062106ED05210621062106FD
:1001000021062106210621062106210621062106B7
:1001100021062106210621062106210621062106A7
:100120002106210621062106FA05210621062106BF
:10013000210621069A05462D2D2D2D2D2D2D2D2DF7
:100140002D2D2D2D762D762D2D2D2D2D2D2D2D2D4D
:100150002D2D2D2D377C2E2E2E2E2E2E2E2E2E2E6C
:100160002E2E2E7C207C2E2E2E2E2E2E2E2E2E2E21
:100170002E2E2E7C7C2E462D2D2D372E462D2D2DD0
:10018000372E7C207C2E462D2D2D372E462D2D2DC5
:10019000372E7C7C2E7C2020207C2E4C2D2D2D4A31
:1001A0002E4C2D4A2E4C2D2D2D4A2E7C2020207C8D
:1001B0002E7C7C2E7C2020207C2E2E2E2E2E2E2E51
:1001C0002E2E2E2E2E2E2E2E2E2E7C2020207C2EDD
:1001D0007C7C2E7C2020207C2E462D2D2D372E46FB
:1001E0002D372E462D2D2D372E7C2020207C2E7C49
:1001F0007C504C2D2D2D4A2E4C2D2D2D4A2E4C2D24
:100200004A2E4C2D2D2D4A2E4C2D2D2D4A507C7CC6
:100210002E2E2E2E2E2E2E2E2E2E2E2E2E2E2E2EFE
:100220002E2E2E2E2E2E2E2E2E2E2E2E2E7C7C2E52
:10023000462D2D2D372E46372E462D2D2D2D2D2D8D
:100240002D372E46372E462D2D2D372E7C7C2E4CCD
:100250002D2D2D4A2E7C7C2E4C2D2D3720462D2DDC
:100260004A2E7C7C2E4C2D2D2D4A2E7C7C2E2E2E23
:100270002E2E2E2E7C7C2E2E2E2E7C207C2E2E2E74
:100280002E7C7C2E2E2E2E2E2E2E7C4C2D2D2D2D8A
:100290002D372E7C4C2D2D37207C207C20462D2D7B
:1002A0004A7C2E462D2D2D2D2D4A20202020202029
:1002B0007C2E7C462D2D4A204C2D4A204C2D2D374E
:1002C0007C2E7C2020202020202020202020207C0C
:1002D0002E7C7C20202020202020202020207C7CA0
:1002E0002E7C2020202020202D2D2D2D2D2D4A2E1E
:1002F0004C4A20462D2D2020202D2D37204C4A2ED3
:100300004C2D2D2D2D2D2D202020202020202E2065
:1003100020207C202020202020207C2020202E2017
:100320002020202020202D2D2D2D2D2D372E46371D
:10033000204C2D2D2D2D2D2D2D4A2046372E462D8E
:100340002D2D2D2D2D2020202020207C2E7C7C204A
:10035000202020202020202020207C7C2E7C20207B
:10036000202020202020202020207C2E7C7C204645
:100370002D2D2D2D2D2D2D37207C7C2E7C202020E9
:10038000202020462D2D2D2D2D4A2E4C4A204C2D3F
:100390002D3720462D2D4A204C4A2E4C2D2D2D2D0B
:1003A0002D377C2E2E2E2E2E2E2E2E2E2E2E2E2E17
:1003B0007C207C2E2E2E2E2E2E2E2E2E2E2E2E2ECF
:1003C0007C7C2E462D2D2D372E462D2D2D372E7C27
:1003D000207C2E462D2D2D372E462D2D2D372E7C73
:1003E0007C2E4C2D37207C2E4C2D2D2D4A2E4C2D25
:1003F0004A2E4C2D2D2D4A2E7C20462D4A2E7C7CBB
:10040000502E2E7C207C2E2E2E2E2E2E2E2E202E6A
:100410002E2E2E2E2E2E2E7C207C2E2E507C3E2DEF
:10042000372E7C207C2E46372E462D2D2D2D2D2D22
:100430002D372E46372E7C207C2E462D3C3E2D4AD5
:100440002E4C2D4A2E7C7C2E4C2D2D3720462D2DCA
:100450004A2E7C7C2E4C2D4A2E4C2D3C7C2E2E2E52
:100460002E2E2E2E7C7C2E2E2E2E7C207C2E2E2E82
:100470002E7C7C2E2E2E2E2E2E2E7C7C2E462D2D4E
:100480002D2D2D4A4C2D2D372E7C207C2E462D2DAA
:100490004A4C2D2D2D2D2D372E7C7C2E4C2D2D2D87
:1004A0002D2D2D2D2D2D4A2E4C2D4A2E4C2D2D2D02
:1004B0002D2D2D2D2D2D4A2E7C7C2E2E2E2E2E2EAA
:1004C0002E2E2E2E2E2E2E2E2E2E2E2E2E2E2E2E4C
:1004D0002E2E2E2E2E2E2E7C4C2D2D2D2D2D2D2DD7
:1004E0002D2D2D2D2D2D2D2D2D2D2D2D2D2D2D2D3C
:1004F0002D2D2D2D2D2D4A005072657373206120F6
:10050000627574746F6E20746F20737461727420DE
:10051000616761696E0047414D45204F5645520065
:1005200050757368206120627574746F6E206F72ED
:10053000206B657920746F20636F6E74696E7565CA
:10054000004C6576656C20636F6D706C657465003A
:1005500053747564656E74204E756D6265723A20D1
:100560003434333137393632004353534532303126
:10057000302070726F6A656374206279203C4A751E
:10058000616E20457370617265733E005061632D2A
:100590004D616E00FF05FC05F805F405F005EC055E
:1005A000E805E405E005DC056E066A0666066206F7
:1005B0005E065A06560652064F064B064706430687
:1005C0003E063A06360632062D0629062506200680
:1005D0001C06170612060D06080603066492927D95
:1005E0006C92926D809EA0C17C92924DE4A2A29DDD
:1005F000182848FF4492926D468A926342FE037C1B
:1006000092A27D868A92A2C3E0100E10E1C6281045
:1006100028C7FC021C02FDF8040204F9FC0202FDDA
:100620008080FE80816492924DFE9098677C828AE1
:100630007C03FE9090617C82827DFE2010FFFE4054
:100640003040FFFE020203FE1028C7040202FD82B2
:10065000FE83FE1010FF7C82925DFE909081FE92E0
:100660009283FE82827D7C828245FE92926D7E9094
:10067000907F1B5B3F32356C001B5B25646D001B5C
:100680005B324A001B5B306D001B5B25643B2564BD
:10069000480011241FBECFEFD8E0DEBFCDBF11E070
:1006A000A0E0B1E0ECE8F7E202C005900D92A43AB8
:1006B000B107D9F723E0A4EAB1E001C01D92A63644
:1006C000B207E1F70E942B0C0C94C4130C940000A9
:1006D000E8E6F0E0808182608083D99AECE6F0E081
:1006E00080818F6080831092A40108958091A4017D
:1006F00018163CF58091A5016FB7F8949091A4016C
:100700009230B4F021E030E091E0F901EB55FE4F7A
:100710004081F901EC55FE4F40839F5F292F30E067
:100720004091A401042E000C550B241735076CF3DF
:100730009091A40191509093A40166231CF47894A5
:1007400008958FEF08951F920F920FB60F92112404
:100750002F933F934F935F936F937F938F939F93C9
:10076000EF93FF9343B14F7080E090E0642F70E00F
:100770002091A401243004F59B01082E02C0359578
:1007800027950A94E2F720FF17C02091A90130E0D5
:10079000082E02C0359527950A94E2F720FD0CC07B
:1007A000E091A40121E02E0F2093A4010E2E000C55
:1007B000FF0BEB55FE4F8083019684309105C1F607
:1007C0004093A901FF91EF919F918F917F916F913C
:1007D0005F914F913F912F910F900FBE0F901F90FF
:1007E00018956F3039F494EF980F81E0973060F0EE
:1007F00080E008956E3039F492EF980F81E09330E5
:1008000018F080E0089580E00895CF92DF92EF9293
:10081000FF92413091F028F0423049F0433099F096
:100820005EC0882309F45DC020E09FEF11C08E31C7
:1008300009F459C020E091E00BC0662309F455C0CB
:100840002FEF90E005C06E3109F451C021E090E037
:10085000620F890F9091B901891305C09091B80179
:10086000691709F446C0A3EBB1E0EFEAF1E090E0CC
:100870002D91821304C02081621709F43CC09F5F50
:1008800031969430A9F7462F50E0282F30E0FA0136
:10089000EE0FFF1FEE0FFF1FE454FE4FC080D1800C
:1008A000E280F380082E04C0F694E794D794C794AE
:1008B0000A94D2F7C0FC21C09FE1949FF001959F5C
:1008C000F00D1124E20FF31FEA5CFE4FE491E032D9
:1008D000C1F0EE32B1F0E035A1F08EEF17C08EEF2F
:1008E00015C08EEF13C08EEF11C08EEF0FC08EEFCC
:1008F0000DC08DEF0BC0892F09C08CEF07C08FEFA3
:1009000005C00E94F1038111FACF8BEFFF90EF90A9
:10091000DF90CF900895CF92DF92EF92FF920F93E6
:100920001F93CF93DF93082FF62E0E94F103E82E3A
:10093000C0E0D0E010E0CC24C394D12C4C2F6F2D1C
:10094000802F0E9405048E3F4CF4C6010C2E02C07D
:10095000880F991F0A94E2F7182B0CC0EE2051F073
:100960008F3F41F4C6010C2E02C0880F991F0A94D4
:10097000E2F7182B2196C430D10501F7812FDF91C2
:10098000CF911F910F91FF90EF90DF90CF9008953E
:1009900070E06F5F7F4F90E001960E94BC0E81E295
:1009A0000E94DF0EE091B701F0E0EE0FFF1FE1576C
:1009B000FE4F81818F9380818F9383E191E09F939C
:1009C0008F930E9467100E94CD0E0F900F900F9092
:1009D0000F9008950F931F93CF93DF93182F062F37
:1009E000C42FD0E0862F90E0BE016F5F7F4F01964D
:1009F0000E94BC0EE12FF0E0E956FE4F80810E947C
:100A0000DF0ECC0FDD1FCC0FDD1FC454DE4F8881FD
:100A10009981AA81BB8104C0B695A79597958795C2
:100A20000A95D2F780FF05C08EE290E00E94A310E5
:100A300004C080E290E00E94A3100E94CD0EDF91DE
:100A4000CF911F910F9108951F93CF93DF93182F8C
:100A5000C62FD0E090E0BE016F5F7F4F01960E94ED
:100A6000BC0ECC0FDD1FCC0FDD1FC454DE4F8881C0
:100A70009981AA81BB8104C0B695A7959795879562
:100A80001A95D2F780FF05C08EE290E00E94A31075
:100A900004C080E290E00E94A310DF91CF911F91EB
:100AA00008952F923F924F925F926F927F928F9212
:100AB0009F92AF92BF92CF92DF92EF92FF920F93ED
:100AC0001F93CF93DF930E94D60E0E94CD0E0E94FB
:100AD000EC0E61E070E081E090E00E94BC0E0F2E11
:100AE000F5E56F2EF1E07F2EF02D0F2EFEE32F2E79
:100AF000F1E03F2EF02D0F2EF3E14F2EF1E05F2EAF
:100B0000F02DB6C0F601849190E0FC01B097ED3570
:100B1000F10508F096C0E25CFF4F0C945F0F9F92C6
:100B20008F925F924F920E9467100F900F900F90DC
:100B30000F908BC0BF92AF925F924F920E9467104E
:100B40000F900F900F900F9080C0DF93CF935F9224
:100B50004F920E9467100F900F900F900F9075C0EA
:100B60001F930F935F924F920E9467100F900F9008
:100B70000F900F906AC0FF92EF925F924F920E9487
:100B800067100F900F900F900F905FC08AE291E076
:100B90009F938F935F924F920E9467100F900F90D8
:100BA0000F900F9052C08EE291E09F938F935F92CF
:100BB0004F920E9467100F900F900F900F9045C0BA
:100BC00082E391E09F938F935F924F920E94671010
:100BD0000F900F900F900F9038C086E391E09F9395
:100BE0008F935F924F920E9467100F900F900F901B
:100BF0000F902BC08AE391E09F938F935F924F9267
:100C00000E9467100F900F900F900F901EC03F92A0
:100C10002F925F924F920E9467100F900F900F904B
:100C20000F9013C080E290E00E94A3100EC08EE2ED
:100C300090E00E94A31009C08EE290E00E94A310F1
:100C400004C088E790E00E94A310FFEFCF1ADF0AEC
:100C50006C147D0409F056CF8AE090E00E94A31046
:100C60002FE1620E711C86E195E086159705D9F09B
:100C700063019FE1C91AD1080F2EF6E2EF2EF1E0D1
:100C8000FF2EF02D02E211E0CEE1D1E00F2EFAE1CD
:100C9000AF2EF1E0BF2EF02D0F2EF6E18F2EF1E0FA
:100CA0009F2EF02D2FCFCCEBD1E040E050E020E0A4
:100CB00030E0812C912C54018394DE01188219823A
:100CC0001A821B8280E090E0FC01E20FF31FEA5CD5
:100CD000FE4FE491EE3211F0E035D1F44D905D908D
:100CE0006D907C90139775016401082E04C0CC0CA4
:100CF000DD1CEE1CFF1C0A94D2F7C428D528E62878
:100D0000F728CD92DD92ED92FC9213974F5F5F4FE3
:100D100001968F319105C1F6215E3F4F2496213C0B
:100D2000E3E03E0751F65093BB014093BA018FE0D8
:100D30008093B90187E18093B80182E08093B70185
:100D400067E18FE00E94C8040F2EF3EBAF2EF1E0B5
:100D5000BF2EF02D0F2EFFEACF2EF1E0DF2EF02D6B
:100D60000F2EFBEAEF2EF1E0FF2EF02DDCE0C0E0CD
:100D70001FE002E0F501D1935F01F60111936F01CD
:100D8000F70101937F01412F6D2F8C2F0E94EA0400
:100D9000CF5FDE5FC43071F7DF91CF911F910F916C
:100DA000FF90EF90DF90CF90BF90AF909F908F908B
:100DB0007F906F905F904F903F902F9008950E948A
:100DC000510581E08093AA010895CF92DF92EF92BE
:100DD000FF921F93CF93DF938091AA01882309F498
:100DE00004C11091B801D091B9014091B701612FB0
:100DF0008D2F0E940504C82F8E3F09F4F8C0612F83
:100E00008D2F0E9424058091B70181110FC0809120
:100E1000B90181508093B901811125C08091B80139
:100E20008F3009F58EE18093B9011DC0823071F4D5
:100E30008091B9018F5F8093B9018E31A1F48091C7
:100E4000B8018F3081F41092B9010DC0813031F4B6
:100E50008091B80181508093B80105C08091B8019C
:100E60008F5F8093B801CC2394F0EC2FCC0FFF0B55
:100E7000E956FE4F80810E94DF0E6091B80180919B
:100E8000B9010E94C8041092AA0181E0B1C0CC3F10
:100E900009F0A3C0E091B801F0E0EE0FFF1FEE0FE4
:100EA000FF1FE454FE4F81E090E0A0E0B0E000902E
:100EB000B90104C0880F991FAA1FBB1F0A94D2F75B
:100EC00080959095A095B095408151816281738104
:100ED00084239523A623B72380839183A283B3839E
:100EE0008091BA019091BB0101979093BB018093CF
:100EF000BA018AE090E00E943F0C68E070E087E36E
:100F000090E00E94BC0E82E491E09F938F938BE46B
:100F100091E09F938F930E94671069E070E087E3F0
:100F200090E00E94BC0E0E94540C9F938F937F937D
:100F30006F9380E591E09F938F930E9467100E94CA
:100F4000540C6B017C010E94660C2DB73EB7265FE6
:100F50003F4F0FB6F8943EBF0FBE2DBF6C157D05F9
:100F60008E059F0520F40E94540C0E945D0C6AE0DF
:100F700070E087E390E00E94BC0E87E591E00E945C
:100F8000AA106BE070E087E390E00E94BC0E0E9424
:100F9000660C9F938F937F936F9383E691E09F936B
:100FA0008F930E9467106FE070E082E390E00E94F0
:100FB000BC0E8091BB018F938091BA018F9389E61B
:100FC00091E09F938F930E9467108DB79EB70A960A
:100FD0000FB6F8949EBF0FBE8DBF6091B80180918F
:100FE000B9010E94C80481E003C080E001C080E034
:100FF000DF91CF911F91FF90EF90DF90CF900895F8
:101000001F93CF93DF939091AA019923A1F0C82F4A
:101010001091B801D091B901482F612F8D2F0E94F6
:1010200005048E3F51F0C093B701612F8D2F0E94B0
:10103000C80481E003C080E001C080E0DF91CF916F
:101040001F910895FF920F931F93CF93DF93909179
:10105000AA01992309F4E2C1C82F90E0FC01ED54E4
:10106000FE4F1081FC01E155FE4FF080FC01E5557B
:10107000FE4FD0816F2D812F0E948B04082F882373
:1010800009F4CCC16F2D812F0E94F103882309F44C
:1010900045C101FF43C19AC10091B901011BD09123
:1010A000B801DF196F2D812F0E948B04882309F46A
:1010B000B5C1402F002E000C550B55231CF4519543
:1010C000419551092D2F0D2E000C330B33231CF4A9
:1010D000319521953109421753074CF4DD231CF457
:1010E00081FF05C073C11D1614F483FD83C1002365
:1010F00054F480FD44C1DD231CF481FF3CC166C172
:1011000083FD78C138C182FD4DC1DD231CF481FF10
:1011100014C15CC183FD6EC110C181E090E0AB01E0
:10112000082E02C0559547950A94E2F740FDA0C0ED
:1011300001968430910599F771C1002E000C110BB6
:101140004D2F50E0C8010D2E02C0959587950A9449
:10115000E2F780FD94C0DC0FD3702D2F0D2E000C14
:10116000330BC8010D2E02C0959587950A94E2F7BE
:1011700080FD85C02E5F3F4F23703078332334F4D9
:10118000215031092C6F3F6F2F5F3F4F022E02C05D
:10119000159507950A94E2F700FD6CC09A012E5F41
:1011A0003F4F23703078332334F4215031092C6FB2
:1011B0003F6F2F5F3F4FD22F62C0002E000C110BEC
:1011C0002091B701C801022E02C0959587950A9417
:1011D000E2F780FF02C0D22F52C00E94D20FDC0182
:1011E000CB0183709927AA27B078BB2354F40197C9
:1011F000A109B1098C6F9F6FAF6FBF6F0196A11DE1
:10120000B11D482F682F880F770B9B012370307812
:10121000332334F4215031092C6F3F6F2F5F3F4F40
:10122000C801022E02C0959587950A94E2F780FDC9
:1012300023C06F5F7F4F042E000C550B4C5F5F4F38
:10124000CB0183709078992324F401978C6F9F6F62
:101250000196282FF80102C0F595E7958A95E2F7E7
:10126000E0FD0CC06F5F7F4F6417750749F7D6C06C
:10127000D82F05C0D22F03C0D22F01C0D22FDD231B
:101280000CF4CCC00C2F0C2E000C110BD801A15566
:10129000BE4FF801ED54FE4F6C9180810E942405F1
:1012A000F801E555FE4FD083D130B9F01CF4DD23B1
:1012B00031F020C0D23051F0D330B1F01BC0F80172
:1012C000ED54FE4F80818150808314C0F801ED54AD
:1012D000FE4F80818F5F80830DC0F801E155FE4F86
:1012E00080818150808306C0F801E155FE4F8081E6
:1012F0008F5F8083F801E155FE4F4081F801ED5486
:10130000FE4F60818091B901681331C08091B801AE
:1013100048132DC019C00E94CD0E80C0C13009F401
:101320000CCF24F4CC2309F4B7CE78C0C23009F432
:1013300044CFC33009F401CF71C0682F082E000CD0
:10134000770B80FFEACE1BC01092AA01F801E95684
:10135000FE4F80810E94DF0ED801A155BE4FF801DB
:10136000ED54FE4F6C9180810E94C804D4CF8C2F25
:101370000E94EA04D0CF682F880F770BCECE0C2FB7
:101380000C2E000C110BD801A155BE4FF801ED54E5
:10139000FE4F6C9180810E942405F801E555FE4FB7
:1013A00010828DCF0C2F0C2E000C110BD801A155E3
:1013B000BE4FF801ED54FE4F6C9180810E942405D0
:1013C000F801E555FE4F82E0808380CF0C2F0C2E74
:1013D000000C110BD801A155BE4FF801ED54FE4F82
:1013E0006C9180810E942405F801E555FE4F81E053
:1013F000808373CF0C2F0C2E000C110BD801A1553C
:10140000BE4FF801ED54FE4F6C9180810E9424057F
:10141000F801E555FE4F83E0808366CFDF91CF91E1
:101420001F910F91FF90089581E09091AA01911171
:1014300080E0089581E02091BA013091BB01232B17
:1014400009F080E0089580E80E948E0E08950F93C1
:101450001F93CF93DF93803190F48B01C82F83E0EB
:101460000E94B60E8C2F8F700E94B60EE801085FA6
:101470001F4F89910E94B60EC017D107D1F7DF9197
:10148000CF911F910F91089584E00E94B60E82E0E3
:101490000E94B60E08958FE00E94B60E08950E9435
:1014A000230A0E94680340E060E07BE480E090E073
:1014B0000E94A60D0E94F50E789408950E94D60E03
:1014C0006AE070E08AE090E00E94BC0E8CE895E053
:1014D0009F938F930E947D106CE070E08AE090E013
:1014E0000E94BC0E89E695E09F938F930E947D1029
:1014F0006EE070E08AE090E00E94BC0E80E595E02E
:101500009F938F930E947D100E944B0A0F900F9023
:101510000F900F900F900F9060EF8BE991E00E9479
:101520006F0C10C02FE789EA93E021508040904073
:10153000E1F700C000000E9476038F3F19F00E947F
:101540004B0A08950E947E0C8111ECCFE5CF0E94DA
:10155000DF060E94360C0E94360C0E9476030E9421
:10156000F40D08956AE070E083E290E00E94BC0E02
:1015700081E495E09F938F930E947D106BE070E073
:1015800083E290E00E94BC0E80E295E09F938F93EF
:101590000E947D100E94F40D0F900F900F900F90FD
:1015A0000E9476038F3F21F40E94ED0D8823C1F342
:1015B0000E94F40D08953F924F925F926F927F9236
:1015C0008F929F92AF92BF92CF92DF92EF92FF9253
:1015D0000F931F93CF93DF93CDB7DEB72C970FB642
:1015E000F894DEBF0FBECDBF0E940D0F4B015C0112
:1015F00069877A878B879C876D837E838F839887A3
:1016000069837A838B839C832B013C01312C0FEF00
:10161000CCC00E947603182F8F3F09F0D3C00E94E0
:10162000ED0D882309F43FC0E0E6F3E0808191816D
:101630000E942910311005C08B3109F4BCC0902FD5
:101640000DC0F1E03F1205C08B3509F4B7C0902FF3
:1016500005C092E03912C4C0982F802F913409F050
:10166000B4C0312C80E00E9400081DC0312C81E004
:101670000E94000818C0113011F0933521F483E066
:101680000E94000810C0112311F0943421F482E06C
:101690000E94000808C08F7D803529F01F7D1E3410
:1016A00011F40E94A70A0E940D0F6B017C010E9499
:1016B000140A81111EC0D501C40180579E4FAF4F3F
:1016C000BF4FC816D906EA06FB0698F00E94E50649
:1016D0000E941A0A882359F00E94B20A0E945105FA
:1016E0000E940D0F4B015C012B013C0102C0460121
:1016F00057010E94140A811110C0D301C2018C55F8
:101700009E4FAF4FBF4FC816D906EA06FB0628F01A
:1017100080E00E942208260137010E94140A8111EC
:1017200014C089819A81AB81BC818E539E4FAF4F8B
:10173000BF4FC816D906EA06FB0638F081E00E94C2
:101740002208C982DA82EB82FC820E94140A81118B
:1017500014C08D819E81AF81B8858C509E4FAF4F54
:10176000BF4FC816D906EA06FB0638F082E00E9491
:101770002208CD82DE82EF82F8860E94140A81114F
:1017800014C089859A85AB85BC85865C9D4FAF4F1B
:10179000BF4FC816D906EA06FB0638F083E00E9460
:1017A0002208C986DA86EB86FC860E94140A882302
:1017B00009F42FCF17C03324339475CF68943324A2
:1017C00031F871CF833031F44DCF973509F44ECFD6
:1017D000312C51CF823009F44ACF902F802F4BCF3C
:1017E000312C61CF2C960FB6F894DEBF0FBECDBF63
:1017F000DF91CF911F910F91FF90EF90DF90CF90ED
:10180000BF90AF909F908F907F906F905F904F9020
:101810003F9008956EE070E083E290E00E94BC0E7D
:1018200086E195E09F938F930E947D1060E170E0C8
:1018300083E290E00E94BC0E88EF94E09F938F9328
:101840000E947D100F900F900F900F900E947603D2
:101850008F3FE1F308950E944F0A0E945E0A0E94A2
:10186000A70A0E94DB0A0E940A0CF9CF10924802D4
:101870001092490210924A0210924B020895409130
:1018800048025091490260914A0270914B02480F00
:10189000591F611D711D4093480250934902609386
:1018A0004A0270934B020895609148027091490278
:1018B00080914A0290914B02089560934402709384
:1018C0004502809346029093470208956091440236
:1018D000709145028091460290914702089560936D
:1018E000040190933C0280933B0210923E021092BE
:1018F0003D0210923A021092390208950F931F93FD
:10190000CF93DF93CDB7DEB728970FB6F894DEBF3D
:101910000FBECDBFE0913D02F0913E02309781F0C5
:10192000149110FF06C010923E0210923D0200E09A
:101930006BC03196F0933E02E0933D0200E064C03C
:10194000E0913902F0913A02309709F449C0CF0191
:10195000019690933A0280933902E081E1110AC026
:1019600010923A021092390280E18093380200E02E
:1019700010E04AC08FE98E0F8A3170F4F0E0EE0F6C
:10198000FF1FEA51FB4F8591949190933E02809303
:101990003D0200E010E038C08FEB8E0F8A3170F40A
:1019A000F0E0EE0FFF1FEA5DFA4F8591949190935E
:1019B0003E0280933D0200E010E026C080ED8E0FD5
:1019C0008A3000F5F0E0EE0FFF1FEC5CFA4F8591D6
:1019D000949190933E0280933D0200E010E014C089
:1019E00080913B0290913C0201E0009709F000E0F9
:1019F00090933A028093390210923C0210923B027B
:101A000010E002C000E010E00E94440A20910401AE
:101A1000FE013896CE010196112314F4208301C0F3
:101A20001082110F3197E817F907B1F71982BE013B
:101A30006F5F7F4F8FE00E94270A809138028823D2
:101A400089F0815080933802002311F0882311F02F
:101A500090E003C091E001C091E081E0992329F07A
:101A600080E003C00023A1F3F7CF28960FB6F894C7
:101A7000DEBF0FBECDBFDF91CF911F910F910895B3
:101A8000CF93C82F8A3019F48DE00E94400D9FB784
:101A9000907802C0992329F180914D028F3FD1F3B4
:101AA000F894E0914C0281E08E0F80934C02F0E0BC
:101AB000E25BFD4FC08380914D028F5F80934D02AA
:101AC00080914C028F3F11F410924C02E1ECF0E057
:101AD000808180628083992339F0789480E090E05F
:101AE00005C081E090E002C080E090E0CF910895D1
:101AF00080915F038823E1F32FB72078F8948091D9
:101B00004D0330915F0390E0831B91095AF4E091FB
:101B10004D0380915F03F0E0E81BF109E25AFC4FAE
:101B200080810AC0E0914D0380915F03F0E0E81BE3
:101B3000F109E25BFC4F808190915F03915090939B
:101B40005F03222309F0789490E0089510924C02EC
:101B500010924D0210924D0310925F0310925E039B
:101B600040933F02DC01CB01880F991FAA1FBB1FC6
:101B7000880F991FAA1FBB1F9C01AD01220F331FA5
:101B8000441F551F60E072E18AE790E00E94400F19
:101B9000BA01A9014F5F5F4F6F4F7F4FDB01CA0151
:101BA0001AF40196A11DB11DB595A7959795879536
:101BB00001979093C5008093C400E1ECF0E088E1C8
:101BC0008083808180688083E0E6F3E085E091E0B7
:101BD0009383828391838083089590915F0381E052
:101BE000911101C080E0089510924D0310925F039F
:101BF00008951F920F920FB60F9211242F938F9377
:101C00009F93EF93FF9380914D02882329F1809158
:101C10004C0220914D0290E0821B91095AF4E09110
:101C20004C0280914D02F0E0E81BF109E35BFC4FB0
:101C300090810AC0E0914C0280914D02F0E0E81BD7
:101C4000F109E25BFD4F908180914D0281508093BC
:101C50004D029093C60005C0E1ECF0E080818F7DDD
:101C60008083FF91EF919F918F912F910F900FBEE5
:101C70000F901F9018951F920F920FB60F9211247C
:101C80002F933F934F935F936F937F938F939F9384
:101C9000AF93BF93CF93EF93FF93C091C600809112
:101CA0003F02882349F080914D028F3F29F060E088
:101CB00070E08C2F0E94400D80915F03803120F0F6
:101CC00081E080935E0318C0CD3009F4CAE0E09152
:101CD0004D0381E08E0F80934D03F0E0E25BFC4FFB
:101CE000C08380915F038F5F80935F0380914D037A
:101CF000803111F410924D03FF91EF91CF91BF917C
:101D0000AF919F918F917F916F915F914F913F9193
:101D10002F910F900FBE0F901F90189594B1906B5C
:101D200094B92C9A90E59CBD883021F0803211F056
:101D3000823019F491E09DBD01C01DBC803269F074
:101D400028F4883071F0803161F00EC0803429F0C1
:101D5000803851F48CB581608CBD8CB582608CBDAF
:101D600003C08CB581608CBD2C9808958EBD0DB4D8
:101D700007FEFDCF8EB508959F938F937F936F934A
:101D800089E896E09F938F930E947D100F900F90AB
:101D90000F900F900F900F90089584E896E09F9316
:101DA0008F930E947D100F900F9008958FE796E01B
:101DB0009F938F930E947D100F900F9008951F9214
:101DC0008F9389E796E09F938F930E947D100F90E9
:101DD0000F900F900F90089582E796E09F938F9356
:101DE0000E947D100F900F90089510924002109263
:101DF0004102109242021092430216BC8CE787BD4A
:101E000082E084BD83E085BDEEE6F0E08081826003
:101E1000808385B3827085BB08952FB7F894609155
:101E2000400270914102809142029091430222232C
:101E30000CF4789408951F920F920FB60F9211240C
:101E40008F939F93AF93BF938091400290914102F3
:101E5000A0914202B09143020196A11DB11D809351
:101E6000400290934102A0934202B0934302BF917B
:101E7000AF919F918F910F900FBE0F901F9018956B
:101E8000052E97FB1EF400940E94570F57FD07D0B4
:101E90000E94650F07FC03D04EF40C94570F509529
:101EA0004095309521953F4F4F4F5F4F0895909546
:101EB0008095709561957F4F8F4F9F4F0895EE0FDE
:101EC000FF1F0590F491E02D0994A1E21A2EAA1BA0
:101ED000BB1BFD010DC0AA1FBB1FEE1FFF1FA217DA
:101EE000B307E407F50720F0A21BB30BE40BF50BD7
:101EF000661F771F881F991F1A9469F76095709560
:101F0000809590959B01AC01BD01CF0108958F9202
:101F10009F92AF92BF92CF92DF92EF92FF92CF93B8
:101F2000DF93EC01688179818A819B81611571055C
:101F30008105910521F464E279ED8BE597E02DE1CF
:101F400033EF41E050E00E94400F49015A019B01EC
:101F5000AC01A7EAB1E40E946B136B017C01ACEE0B
:101F6000B4EFA50194010E947913DC01CB018C0D23
:101F70009D1DAE1DBF1DB7FF03C00197A109B0484D
:101F800088839983AA83BB83BC01CD019F77DF91AE
:101F9000CF91FF90EF90DF90CF90BF90AF909F9048
:101FA0008F9008958F929F92AF92BF92CF92DF92BF
:101FB000EF92FF9260910001709101018091020106
:101FC00090910301611571058105910521F464E289
:101FD00079ED8BE597E02DE133EF41E050E00E9491
:101FE000400F49015A019B01AC01A7EAB1E40E94EC
:101FF0006B136B017C01ACEEB4EFA50194010E9460
:102000007913DC01CB018C0D9D1DAE1DBF1DB7FFEB
:1020100003C00197A109B04880930001909301018A
:10202000A0930201B0930301BC01CD019F77FF9003
:10203000EF90DF90CF90BF90AF909F908F900895DA
:10204000609300017093010180930201909303015A
:102050000895CF93DF93EC012B8120FF33C026FF3F
:102060000AC02F7B2B838E819F8101969F838E8355
:102070008A8190E029C022FF0FC0E881F981808128
:10208000082E000C990B009719F420622B831AC0BC
:102090003196F983E8830EC0EA85FB85099597FFA1
:1020A00009C02B81019611F080E201C080E1822BF2
:1020B0008B8308C02E813F812F5F3F4F3F832E834C
:1020C000992702C08FEF9FEFDF91CF910895A0E095
:1020D000B0E0EDE6F0E10C948E13AE014B5F5F4F84
:1020E000FA0161917191AF01809162039091630354
:1020F0000E94DA10E2E00C94AA13A0E0B0E0E3E85A
:10210000F0E10C948C13AE01495F5F4FDA016D91E1
:102110007D91AD0100E613E0F80182819381DC013D
:1021200013962C911397286013962C930E94DA1023
:10213000D8011296ED91FC9113972381277F238379
:10214000E4E00C94A81360916203709163030E9411
:10215000D11208950F931F93CF93DF93E091620301
:10216000F0916303238121FF1BC08C01D0E0C0E00C
:10217000F80181918F016091620370916303DB012B
:102180001896ED91FC911997882331F00995892BC8
:1021900079F3DFEFCFEFECCF8AE00995892B19F0C7
:1021A0008FEF9FEF02C08D2F9C2FDF91CF911F915A
:1021B0000F910895ABE0B0E0E0EEF0E10C947E13F7
:1021C0006C017B018A01FC0117821682838181FFE9
:1021D000CCC1CE0101963C01F6019381F70193FD3C
:1021E000859193FF81917F01882309F4BAC18532DB
:1021F00039F493FD859193FF81917F01853229F414
:10220000B60190E00E94D112E7CF912C212C312C05
:10221000FFE1F315D8F08B3279F038F4803279F0A1
:102220008332A1F4232D20611DC08D3261F08033F3
:1022300069F4232D216016C0832D8260382EE32D92
:10224000E4603E2E2AC0F32DF8601DC037FC2DC07F
:1022500020ED280F2A3040F08E32B9F436FC81C1CF
:10226000232D2064322E19C036FE06C08AE0989EC7
:10227000200D1124922E11C0EAE02E9E200D112473
:10228000222EF32DF0623F2E08C08C3621F4832DD0
:102290008068382E02C0883641F4F70193FD85919D
:1022A00093FF81917F018111B3CF982F9F7D95542A
:1022B000933028F40C5F1F4F9FE399830DC0833642
:1022C00031F0833771F0833509F059C021C0F8012E
:1022D000808189830E5F1F4F88248394912C530142
:1022E00013C02801F2E04F0E511CF801A080B1800C
:1022F00036FE03C0692D70E002C06FEF7FEFC501AD
:102300000E94C6124C018201F32DFF773F2E16C0AA
:10231000280122E0420E511CF801A080B18036FE57
:1023200003C0692D70E002C06FEF7FEFC5010E940E
:10233000BB124C01F32DF0683F2E820133FC1BC011
:10234000822D90E088169906B0F4B60180E290E004
:102350000E94D1122A94F4CFF50137FC859137FE03
:1023600081915F01B60190E00E94D11221102A9460
:1023700021E0821A91088114910471F7E8C0843633
:1023800011F0893641F5F80137FE07C0608171818F
:10239000828193810C5F1F4F08C060817181072E7D
:1023A000000C880B990B0E5F1F4FF32DFF763F2E0D
:1023B00097FF09C090958095709561957F4F8F4FDD
:1023C0009F4FF0683F2E2AE030E0A3010E940D13DA
:1023D000882E861845C0853731F4232D2F7EB22EE6
:1023E0002AE030E025C0932D997FB92E8F36C1F0B9
:1023F00018F4883579F0B5C0803719F0883721F0A6
:10240000B0C0E92FE061BE2EB4FE0DC0FB2DF4601C
:10241000BF2E09C034FE0AC0292F2660B22E06C086
:1024200028E030E005C020E130E002C020E132E0E9
:10243000F801B7FE07C060817181828193810C5FD2
:102440001F4F06C06081718180E090E00E5F1F4FDA
:10245000A3010E940D13882E8618FB2DFF773F2EB7
:1024600036FE0DC0232D2E7FA22E891458F434FE83
:102470000BC032FC09C0832D8E7EA82E05C0B82C5F
:10248000A32C03C0B82C01C0B92CA4FE0FC0FE01C0
:10249000E80DF11D8081803321F49A2D997EA92EBB
:1024A00009C0A2FE06C0B394B39404C08A2D8678F6
:1024B00009F0B394A3FC11C0A0FE06C0B21488F4C6
:1024C000280C922C9B180EC0B21460F4B60180E266
:1024D00090E00E94D112B394F7CFB21418F42B18E5
:1024E00002C0982C212CA4FE10C0B60180E390E01D
:1024F0000E94D112A2FE17C0A1FC03C088E790E0A1
:1025000002C088E590E0B6010CC08A2D867859F0AB
:10251000A1FE02C08BE201C080E2A7FC8DE2B60101
:1025200090E00E94D112891438F4B60180E390E063
:102530000E94D1129A94F7CF8A94F301E80DF11D0D
:102540008081B60190E00E94D1128110F5CF222047
:1025500009F442CEB60180E290E00E94D1122A94A2
:10256000F6CFF6018681978102C08FEF9FEF2B9601
:10257000E2E10C949A13FC01059061507040011047
:10258000D8F7809590958E0F9F1F0895FC0161509C
:10259000704001900110D8F7809590958E0F9F1F85
:1025A00008950F931F93CF93DF93FB01238121FDA8
:1025B00003C08FEF9FEF2CC022FF16C046815781CA
:1025C000248135814217530744F4A081B1819D01D4
:1025D0002F5F3F4F318320838C93268137812F5F7C
:1025E0003F4F3783268314C08B01EC01FB0100842D
:1025F000F185E02D0995892BE1F6D80116968D918C
:102600009C911797019617969C938E931697CE01DF
:10261000DF91CF911F910F910895FA01AA272830D9
:1026200051F1203181F1E8946F936E7F6E5F7F4F9F
:102630008F4F9F4FAF4FB1E03ED0B4E03CD0670F1B
:10264000781F891F9A1FA11D680F791F8A1F911D6E
:10265000A11D6A0F711D811D911DA11D20D009F4BE
:1026600068943F912AE0269F11243019305D319300
:10267000DEF6CF010895462F4770405D4193B3E0E9
:102680000FD0C9F7F6CF462F4F70405D4A3318F090
:10269000495D31FD4052419302D0A9F7EACFB4E041
:1026A000A6959795879577956795BA95C9F70097F9
:1026B0006105710508959B01AC010A2E069457959A
:1026C000479537952795BA95C9F7620F731F841FF1
:1026D000951FA01D08950E94B513A59F900DB49F4E
:1026E000900DA49F800D911D11240895B7FF0C94A7
:1026F0006B130E946B13821B930B08952F923F92D2
:102700004F925F926F927F928F929F92AF92BF9201
:10271000CF92DF92EF92FF920F931F93CF93DF93AD
:10272000CDB7DEB7CA1BDB0B0FB6F894DEBF0FBE0A
:10273000CDBF09942A88398848885F846E847D8457
:102740008C849B84AA84B984C884DF80EE80FD8059
:102750000C811B81AA81B981CE0FD11D0FB6F894CF
:10276000DEBF0FBECDBFED010895A29FB001B39FA4
:10277000C001A39F700D811D1124911DB29F700D8A
:0C278000811D1124911D0895F894FFCFD5
:10278C00010000000F0000000300000000400D7865
:10279C000D0000257300E2948000E2948200E29424
:1027AC008C00E2949000E2949400E2949800E294FD
:1027BC009C00E294A400E294B400E294AC00E29495
:1027CC00BC0053636F72653A200A002531337300E5
:1027DC002531316C750A00486967682053636F7244
:1027EC00653A002531316C7500506163646F747308
:1027FC002052656D61696E696E673A20256400E14F
:10280C0097A400E197A200E197A700E197A3007FAE
:10281C0001830187018B01292A2E2D343433313762
:04282C003936320007
:00000001FF
