S00E00007061636D616E2E73726563A6
S11300000C9449030C9466030C9466030C946603E5
S11300100C9466030C94A3030C9466030C9466037B
S11300200C9466030C9466030C9466030C946603A8
S11300300C9466030C9466030C9466030C94660398
S11300400C947E100C9466030C9466030C94660363
S11300500C949E0F0C945C0F0C9466030C94660332
S11300600C9466030C9466030C9466030C94660368
S11300700C9466030C9466030C9466031906280614
S113008028062806280628062806280628062806FC
S113009028060E062806960523062806280628069E
S11300A028062806280628062806B705280628064E
S11300B028062806E7052806DA052806280628065D
S11300C02806280628062806AC0528062806280639
S11300D0CD052806C2052806280628061E06280679
S11300E0280628062806280628062806280628069C
S11300F02806280628062806F405280628062806C1
S1130100280628062806280628062806280628067B
S1130110280628062806280628062806280628066B
S11301202806280628062806010628062806280682
S113013028062806A105462D2D2D2D2D2D2D2D2DDE
S11301402D2D2D2D762D762D2D2D2D2D2D2D2D2D49
S11301502D2D2D2D377C2E2E2E2E2E2E2E2E2E2E68
S11301602E2E2E7C207C2E2E2E2E2E2E2E2E2E2E1D
S11301702E2E2E7C7C2E462D2D2D372E462D2D2DCC
S1130180372E7C207C2E462D2D2D372E462D2D2DC1
S1130190372E7C7C2E7C2020207C2E4C2D2D2D4A2D
S11301A02E4C2D4A2E4C2D2D2D4A2E7C2020207C89
S11301B02E7C7C2E7C2020207C2E2E2E2E2E2E2E4D
S11301C02E2E2E2E2E2E2E2E2E2E7C2020207C2ED9
S11301D07C7C2E7C2020207C2E462D2D2D372E46F7
S11301E02D372E462D2D2D372E7C2020207C2E7C45
S11301F07C504C2D2D2D4A2E4C2D2D2D4A2E4C2D20
S11302004A2E4C2D2D2D4A2E4C2D2D2D4A507C7CC2
S11302102E2E2E2E2E2E2E2E2E2E2E2E2E2E2E2EFA
S11302202E2E2E2E2E2E2E2E2E2E2E2E2E7C7C2E4E
S1130230462D2D2D372E46372E462D2D2D2D2D2D89
S11302402D372E46372E462D2D2D372E7C7C2E4CC9
S11302502D2D2D4A2E7C7C2E4C2D2D3720462D2DD8
S11302604A2E7C7C2E4C2D2D2D4A2E7C7C2E2E2E1F
S11302702E2E2E2E7C7C2E2E2E2E7C207C2E2E2E70
S11302802E7C7C2E2E2E2E2E2E2E7C4C2D2D2D2D86
S11302902D372E7C4C2D2D37207C207C20462D2D77
S11302A04A7C2E462D2D2D2D2D4A20202020202025
S11302B07C2E7C462D2D4A204C2D4A204C2D2D374A
S11302C07C2E7C2020202020202020202020207C08
S11302D02E7C7C20202020202020202020207C7C9C
S11302E02E7C2020202020202D2D2D2D2D2D4A2E1A
S11302F04C4A20462D2D2020202D2D37204C4A2ECF
S11303004C2D2D2D2D2D2D202020202020202E2061
S113031020207C202020202020207C2020202E2013
S11303202020202020202D2D2D2D2D2D372E463719
S1130330204C2D2D2D2D2D2D2D4A2046372E462D8A
S11303402D2D2D2D2D2020202020207C2E7C7C2046
S1130350202020202020202020207C7C2E7C202077
S1130360202020202020202020207C2E7C7C204641
S11303702D2D2D2D2D2D2D37207C7C2E7C202020E5
S1130380202020462D2D2D2D2D4A2E4C4A204C2D3B
S11303902D3720462D2D4A204C4A2E4C2D2D2D2D07
S11303A02D377C2E2E2E2E2E2E2E2E2E2E2E2E2E13
S11303B07C207C2E2E2E2E2E2E2E2E2E2E2E2E2ECB
S11303C07C7C2E462D2D2D372E462D2D2D372E7C23
S11303D0207C2E462D2D2D372E462D2D2D372E7C6F
S11303E07C2E4C2D37207C2E4C2D2D2D4A2E4C2D21
S11303F04A2E4C2D2D2D4A2E7C20462D4A2E7C7CB7
S1130400502E2E7C207C2E2E2E2E2E2E2E2E202E66
S11304102E2E2E2E2E2E2E7C207C2E2E507C3E2DEB
S1130420372E7C207C2E46372E462D2D2D2D2D2D1E
S11304302D372E46372E7C207C2E462D3C3E2D4AD1
S11304402E4C2D4A2E7C7C2E4C2D2D3720462D2DC6
S11304504A2E7C7C2E4C2D4A2E4C2D3C7C2E2E2E4E
S11304602E2E2E2E7C7C2E2E2E2E7C207C2E2E2E7E
S11304702E7C7C2E2E2E2E2E2E2E7C7C2E462D2D4A
S11304802D2D2D4A4C2D2D372E7C207C2E462D2DA6
S11304904A4C2D2D2D2D2D372E7C7C2E4C2D2D2D83
S11304A02D2D2D2D2D2D4A2E4C2D4A2E4C2D2D2DFE
S11304B02D2D2D2D2D2D4A2E7C7C2E2E2E2E2E2EA6
S11304C02E2E2E2E2E2E2E2E2E2E2E2E2E2E2E2E48
S11304D02E2E2E2E2E2E2E7C4C2D2D2D2D2D2D2DD3
S11304E02D2D2D2D2D2D2D2D2D2D2D2D2D2D2D2D38
S11304F02D2D2D2D2D2D4A005072657373206120F2
S1130500627574746F6E20746F20737461727420DA
S1130510616761696E0047414D45204F5645520061
S113052050757368206120627574746F6E206F72E9
S1130530206B657920746F20636F6E74696E7565C6
S1130540004C6576656C20636F6D706C6574650036
S113055053747564656E74204E756D6265723A20CD
S11305603434333137393632004353534532303122
S1130570302070726F6A656374206279203C4A751A
S1130580616E20457370617265733E005061632D26
S11305904D616E00FF05FC05F805F405F005EC055A
S11305A0E805E405E005DC056E066A0666066206F3
S11305B05E065A06560652064F064B064706430683
S11305C03E063A06360632062D062906250620067C
S11305D01C06170612060D06080603066492927D91
S11305E06C92926D809EA0C17C92924DE4A2A29DD9
S11305F0182848FF4492926D468A926342FE037C17
S113060092A27D868A92A2C3E0100E10E1C6281041
S113061028C7FC021C02FDF8040204F9FC0202FDD6
S11306208080FE80816492924DFE9098677C828ADD
S11306307C03FE9090617C82827DFE2010FFFE4050
S11306403040FFFE020203FE1028C7040202FD82AE
S1130650FE83FE1010FF7C82925DFE909081FE92DC
S11306609283FE82827D7C828245FE92926D7E9090
S1130670907F1B5B3F32356C001B5B25646D001B58
S11306805B324A001B5B306D001B5B25643B2564B9
S1130690480011241FBECFEFD8E0DEBFCDBF11E06C
S11306A0A0E0B1E0EAE7FAE202C005900D92A23CB4
S11306B0B107D9F723E0A2ECB1E001C01D92AF3835
S11306C0B207E1F70E948B0D0C943B150C940000CB
S11306D0E8E6F0E0808182608083D99AECE6F0E07D
S11306E080818F6080831092C20108958091C2013D
S11306F018163CF58091C3016FB7F8949091C2012C
S11307009230B4F021E030E091E0F901ED53FE4F76
S11307104081F901EE53FE4F40839F5F292F30E063
S11307204091C201042E000C550B241735076CF3BD
S11307309091C20191509093C20166231CF4789465
S113074008958FEF08951F920F920FB60F92112400
S11307502F933F934F935F936F937F938F939F93C5
S1130760EF93FF9343B14F7080E090E0642F70E00B
S11307702091C201243004F59B01082E02C0359556
S113078027950A94E2F720FF17C02091C70130E0B3
S1130790082E02C0359527950A94E2F720FD0CC077
S11307A0E091C20121E02E0F2093C2010E2E000C15
S11307B0FF0BED53FE4F8083019684309105C1F603
S11307C04093C701FF91EF919F918F917F916F911A
S11307D05F914F913F912F910F900FBE0F901F90FB
S11307E018956F3039F494EF980F81E0973060F0EA
S11307F080E008956E3039F492EF980F81E09330E1
S113080018F080E0089580E00895CF92DF92EF928F
S1130810FF92413091F028F0423049F0433099F092
S11308205EC0882309F45DC020E09FEF11C08E31C3
S113083009F459C020E091E00BC0662309F455C0C7
S11308402FEF90E005C06E3109F451C021E090E033
S1130850620F890F9091D701891305C09091D60139
S1130860691709F446C0A1EDB1E0EDECF1E090E0C8
S11308702D91821304C02081621709F43CC09F5F4C
S113088031969430A9F7462F50E0282F30E0FA0132
S1130890EE0FFF1FEE0FFF1FE552FE4FC080D18009
S11308A0E280F380082E04C0F694E794D794C794AA
S11308B00A94D2F7C0FC21C09FE1949FF001959F58
S11308C0F00D1124E20FF31FEA5CFE4FE491E032D5
S11308D0C1F0EE32B1F0E035A1F08EEF17C08EEF2B
S11308E015C08EEF13C08EEF11C08EEF0FC08EEFC8
S11308F00DC08DEF0BC0892F09C08CEF07C08FEF9F
S113090005C00E94F1038111FACF8BEFFF90EF90A5
S1130910DF90CF900895CF92DF92EF92FF920F93E2
S11309201F93CF93DF93082FF62E0E94F103E82E36
S1130930C0E0D0E010E0CC24C394D12C4C2F6F2D18
S1130940802F0E9405048E3F4CF4C6010C2E02C079
S1130950880F991F0A94E2F7182B0CC0EE2051F06F
S11309608F3F41F4C6010C2E02C0880F991F0A94D0
S1130970E2F7182B2196C430D10501F7812FDF91BE
S1130980CF911F910F91FF90EF90DF90CF9008953A
S113099070E06F5F7F4F90E001960E941F1081E22C
S11309A00E944210E091D501F0E0EE0FFF1FEA56DD
S11309B0FE4F81818F9380818F9383E191E09F9398
S11309C08F930E94DE110E9430100F900F900F90B1
S11309D00F9008950F931F93CF93DF93182F062F33
S11309E0C42FD0E0862F90E0BE016F5F7F4F019649
S11309F00E941F10E12FF0E0E256FE4F80810E941A
S1130A004210CC0FDD1FCC0FDD1FC552DE4F888195
S1130A109981AA81BB8104C0B695A79597958795BE
S1130A200A95D2F780FF05C08EE290E00E941A1268
S1130A3004C080E290E00E941A120E943010DF91FC
S1130A40CF911F910F9108951F93CF93DF93182F88
S1130A50C62FD0E090E0BE016F5F7F4F01960E94E9
S1130A601F10CC0FDD1FCC0FDD1FC552DE4F888158
S1130A709981AA81BB8104C0B695A795979587955E
S1130A801A95D2F780FF05C08EE290E00E941A12F8
S1130A9004C080E290E00E941A12DF91CF911F916E
S1130AA008958091D801089583E08093D801089532
S1130AB02F923F924F925F926F927F928F929F926A
S1130AC0AF92BF92CF92DF92EF92FF920F931F9358
S1130AD0CF93DF930E9439100E9430100E944F1070
S1130AE061E070E081E090E00E941F100F2EF5E5B8
S1130AF06F2EF1E07F2EF02D0F2EFEE32F2EF1E06E
S1130B003F2EF02D0F2EF3E14F2EF1E05F2EF02D4E
S1130B10B6C0F601849190E0FC01B097ED35F10583
S1130B2008F096C0E25CFF4F0C94D6109F928F920F
S1130B305F924F920E94DE110F900F900F900F90D2
S1130B408BC0BF92AF925F924F920E94DE110F90C2
S1130B500F900F900F9080C0DF93CF935F924F92CE
S1130B600E94DE110F900F900F900F9075C01F938D
S1130B700F935F924F920E94DE110F900F900F908F
S1130B800F906AC0FF92EF925F924F920E94DE1123
S1130B900F900F900F900F905FC08AE291E09F93A7
S1130BA08F935F924F920E94DE110F900F900F90DF
S1130BB00F9052C08EE291E09F938F935F924F9279
S1130BC00E94DE110F900F900F900F9045C082E3AA
S1130BD091E09F938F935F924F920E94DE110F904A
S1130BE00F900F900F9038C086E391E09F938F93FE
S1130BF05F924F920E94DE110F900F900F900F9012
S1130C002BC08AE391E09F938F935F924F920E944F
S1130C10DE110F900F900F900F901EC03F922F92F5
S1130C205F924F920E94DE110F900F900F900F90E1
S1130C3013C080E290E00E941A120EC08EE290E08F
S1130C400E941A1209C08EE290E00E941A1204C097
S1130C5088E790E00E941A12FFEFCF1ADF0A6C14A3
S1130C607D0409F056CF8AE090E00E941A122FE129
S1130C70620E711C86E195E086159705D9F0630133
S1130C809FE1C91AD1080F2EF6E2EF2EF1E0FF2EF4
S1130C90F02D02E211E0CEE1D1E00F2EFAE1AF2E09
S1130CA0F1E0BF2EF02D0F2EF6E18F2EF1E09F2EF6
S1130CB0F02D2FCFCBEDD1E040E050E020E030E04C
S1130CC0812C912C54018394DE01188219821A829A
S1130CD01B8280E090E0FC01E20FF31FEA5CFE4F10
S1130CE0E491EE3211F0E035D1F44D905D906D90C9
S1130CF07C90139775016401082E04C0CC0CDD1C94
S1130D00EE1CFF1C0A94D2F7C428D528E628F7283D
S1130D10CD92DD92ED92FC9213974F5F5F4F019657
S1130D208F319105C1F6215E3F4F2496213CE3E0CB
S1130D303E0751F65093DA014093D9018FE0809336
S1130D40D70187E18093D60182E08093D50167E1E2
S1130D508FE00E94C8040F2EF1EDAF2EF1E0BF2EFC
S1130D60F02D0F2EFDECCF2EF1E0DF2EF02D0F2E07
S1130D70F9ECEF2EF1E0FF2EF02DDCE0C0E01FE0F7
S1130D8002E0F501D1935F01F60111936F01F701C0
S1130D9001937F01412F6D2F8C2F0E94EA04CF5FB6
S1130DA0DE5FC43071F7DF91CF911F910F91FF90F7
S1130DB0EF90DF90CF90BF90AF909F908F907F90F7
S1130DC06F905F904F903F902F9008950E94580528
S1130DD081E08093C8010895CF92DF92EF92FF9251
S1130DE00F931F93CF93DF938091C801882309F455
S1130DF023C11091D601D091D7014091D501612F23
S1130E008D2F0E940504C82F8E3F09F417C1612F4E
S1130E108D2F0E9424058091D50181110FC08091EE
S1130E20D70181508093D701811125C08091D601CB
S1130E308F3009F58EE18093D7011DC0823071F4A3
S1130E408091D7018F5F8093D7018E31A1F4809177
S1130E50D6018F3081F41092D7010DC0813031F466
S1130E608091D60181508093D60105C08091D6012E
S1130E708F5F8093D601CC230CF10C2F0C2E000C29
S1130E80110BF801E256FE4F80810E9442106091DE
S1130E90D6018091D7010E94C804F801EF52FE4F99
S1130EA08CE08083F801E353FE4F8FE080834FE0B2
S1130EB06CE08C2F0E94EA0481E0C1C0CC3F09F0B1
S1130EC0B3C0E091D601F0E0EE0FFF1FEE0FFF1F5D
S1130ED0E552FE4F81E090E0A0E0B0E00090D70141
S1130EE004C0880F991FAA1FBB1F0A94D2F78095CC
S1130EF09095A095B095408151816281738184233E
S1130F009523A623B72380839183A283B3838091FF
S1130F10D9019091DA0101979093DA018093D90174
S1130F208AE090E00E94A20D68E070E085E290E023
S1130F300E941F1082E491E09F938F938BE491E0D1
S1130F409F938F930E94DE1169E070E085E290E048
S1130F500E941F100E94B70D9F938F937F936F93EE
S1130F6080E591E09F938F930E94DE110E94B70D5C
S1130F706B017C010E94C90D2DB73EB7265F3F4F20
S1130F800FB6F8943EBF0FBE2DBF6C157D058E05C0
S1130F909F0520F40E94B70D0E94C00D6AE070E026
S1130FA085E290E00E941F1087E591E00E942112E3
S1130FB06BE070E085E290E00E941F100E94C90D72
S1130FC09F938F937F936F9380E591E09F938F938B
S1130FD00E94DE116DE070E085E290E00E941F1037
S1130FE08091DA018F938091D9018F9383E691E008
S1130FF09F938F930E94DE1165E070E085E290E09C
S11310000E941F108091D8011F928F938BE791E06B
S11310109F938F930E94DE118DB79EB70E960FB6E5
S1131020F8949EBF0FBE8DBF6091D6018091D70109
S11310300E94C80481E003C080E001C080E0DF9129
S1131040CF911F910F91FF90EF90DF90CF90089573
S11310501F93CF93DF939091C8019923A1F0C82FD8
S11310601091D601D091D701482F612F8D2F0E9466
S113107005048E3F51F0C093D501612F8D2F0E943E
S1131080C80481E003C080E001C080E0DF91CF911B
S11310901F910895EF92FF920F931F93CF93DF93C5
S11310A09091C801992309F406C2C82F90E0FC016D
S11310B0EF52FE4F1081FC01E353FE4FF080FC0120
S11310C0E753FE4FD0816F2D812F0E948B04082F90
S11310D0882309F4F0C16F2D812F0E94F103882326
S11310E009F445C101FF43C1BEC10091D701011BF1
S11310F0D091D601DF196F2D812F0E948B04882394
S113110009F4D9C1402F002E000C550B55231CF4B3
S11311105195419551092D2F0D2E000C330B33237E
S11311201CF4319521953109421753074CF4DD2302
S11311301CF481FF05C097C11D1614F483FDA7C1DB
S1131140002354F480FD68C1DD231CF481FF60C1D9
S11311508AC183FD9CC15CC182FD71C1DD231CF485
S113116081FF14C180C183FD92C110C181E090E070
S1131170AB01082E02C0559547950A94E2F740FD4D
S1131180A0C001968430910599F795C1002E000CFA
S1131190110B4D2F50E0C8010D2E02C09595879577
S11311A00A94E2F780FD94C0DC0FD3702D2F0D2E2E
S11311B0000C330BC8010D2E02C0959587950A9437
S11311C0E2F780FD85C02E5F3F4F237030783323D4
S11311D034F4215031092C6F3F6F2F5F3F4F022EA3
S11311E002C0159507950A94E2F700FD6CC09A01B8
S11311F02E5F3F4F23703078332334F4215031096C
S11312002C6F3F6F2F5F3F4FD22F62C0002E000C18
S1131210110B2091D501C801022E02C09595879526
S11312200A94E2F780FF02C0D22F52C00E944911F3
S1131230DC01CB0183709927AA27B078BB2354F42F
S11312400197A109B1098C6F9F6FAF6FBF6F0196B2
S1131250A11DB11D482F682F880F770B9B012370A8
S11312603078332334F4215031092C6F3F6F2F5FD2
S11312703F4FC801022E02C0959587950A94E2F764
S113128080FD23C06F5F7F4F042E000C550B4C5F15
S11312905F4FCB0183709078992324F401978C6F6E
S11312A09F6F0196282FF80102C0F595E7958A955E
S11312B0E2F7E0FD0CC06F5F7F4F6417750749F7D5
S11312C0FAC0D82F05C0D22F03C0D22F01C0D22F0D
S11312D0DD230CF4F0C00C2F0C2E000C110BD801E4
S11312E0A353BE4FF801EF52FE4F6C9180810E94D0
S11312F02405F801E753FE4FD083D130B9F01CF434
S1131300DD2331F020C0D23051F0D330B1F01BC016
S1131310F801EF52FE4F80818150808314C0F801A0
S1131320EF52FE4F80818F5F80830DC0F801E3533D
S1131330FE4F80818150808306C0F801E353FE4F45
S113134080818F5F8083F801E353FE4F4081F80171
S1131350EF52FE4F60818091D701681355C0809190
S1131360D601481351C019C00E943010A4C0C13026
S113137009F40CCF24F4CC2309F4B7CE9CC0C230BA
S113138009F444CFC33009F401CF95C0682F082E67
S1131390000C770B80FFEACE3FC08091D8018150CA
S11313A08093D80165E070E085E290E00E941F1010
S11313B08091D8011F928F938BE791E09F938F9335
S11313C00E94DE11F801E256FE4F80810E94421015
S11313D0C80183539E4F7C010F521E4FFC01608154
S11313E0F80180810E94C8048CE0F80180838FE0BA
S11313F0F70180834FE06CE08C2F0E94EA040F9089
S11314000F900F900F90B0CF8C2F0E94EA04ACCFB6
S1131410682F880F770BAACE0C2F0C2E000C110B03
S1131420D801A353BE4FF801EF52FE4F6C91808157
S11314300E942405F801E753FE4F108269CF0C2F58
S11314400C2E000C110BD801A353BE4FF801EF5220
S1131450FE4F6C9180810E942405F801E753FE4FF2
S113146082E080835CCF0C2F0C2E000C110BD80172
S1131470A353BE4FF801EF52FE4F6C9180810E943E
S11314802405F801E753FE4F81E080834FCF0C2FF2
S11314900C2E000C110BD801A353BE4FF801EF52D0
S11314A0FE4F6C9180810E942405F801E753FE4FA2
S11314B083E0808342CFDF91CF911F910F91FF9002
S11314C0EF90089581E09091C801911180E0089512
S11314D081E02091D9013091DA01232B09F080E0D9
S11314E0089580E480937C0086E880937A000895D0
S11314F0CF93DF93ECE7F0E080818E7F8083EAE78F
S1131500F0E0808180648083808186FDFDCF8091BE
S113151078009091790090935F0280935E02ECE7EB
S1131520F0E0808181608083EAE7F0E0808180647C
S113153080839081892F807496FDFBCF4091780041
S11315405091790050935D0240935C0220915E02B9
S113155030915F02213093E0390708F059C02130FF
S113156091E0390708F456C0413093E0590708F078
S113157053C0413091E0590708F450C0D0915B0248
S1131580D33031F42238314008F451C0CFEF30C0A9
S1131590D13031F44238524008F049C0CFEF28C06E
S11315A0D23031F44238514008F441C0CFEF20C06A
S11315B0D430D1F522383240D0F5CFEF19C00E9493
S11315C07010AB01BC01552766277727809157021D
S11315D090915802A0915902B0915A02845D9E4F95
S11315E0AF4FBF4F481759076A077B0778F0CD2FD5
S11315F00E947010609357027093580280935902AE
S113160090935A02C0935B028C2F14C08FEF12C0C8
S1131610C4E005C0C3E003C0C1E001C0C2E0D09192
S11316205B02CD13E5CFCBCFDD2321F0C8CFD09122
S11316305B02C5CFDF91CF91089580E80E94F10F3E
S113164008950F931F93CF93DF93803190F48B0110
S1131650C82F83E00E9419108C2F8F700E941910DC
S1131660E801085F1F4F89910E941910C017D10724
S1131670D1F7DF91CF911F910F91089584E00E94DB
S1131680191082E00E94191008958FE00E94191029
S113169008950E941D0B0E94710A0E94680340E095
S11316A060E07BE480E090E00E94090F0E94581003
S11316B0789408950E9439106AE070E08AE090E01E
S11316C00E941F108CE895E09F938F930E94F41161
S11316D06CE070E08AE090E00E941F1089E695E0DB
S11316E09F938F930E94F4116EE070E08AE090E083
S11316F00E941F1080E595E09F938F930E94F41140
S11317000E94450B0F900F900F900F900F900F9029
S113171060EF82EA91E00E94D20D10C02FE789EABF
S113172093E0215080409040E1F700C000000E9407
S113173076038F3F19F00E94450B08950E94E10D36
S11317408111ECCFE5CF6AE070E083E290E00E9483
S11317501F1081E495E09F938F930E94F4116BE036
S113176070E083E290E00E941F1080E295E09F9376
S11317708F930E94F4110E94570F0F900F900F90B7
S11317800F900E9476038F3F21F40E94500F88230C
S1131790C1F30E94570F08950E94510518B8813073
S11317A011F488B90895823019F483E088B9089552
S11317B0833011F487E088B908950E94CC0B6EE061
S11317C070E083E290E00E941F1086E195E09F9311
S11317D08F930E94F41160E170E083E290E00E9434
S11317E01F1088EF94E09F938F930E94F4110F9041
S11317F00F900F900F900E9476038F3FE1F30895AE
S1131800109260020E94E6060E94990D0E945405FF
S11318100E94CC0B0E9476030E94570F08952F92CA
S11318203F924F925F926F927F928F929F92AF926C
S1131830BF92CF92DF92EF92FF920F931F93CF93B9
S1131840DF93CDB7DEB760970FB6F894DEBF0FBE57
S1131850CDBF0E9470102B013C016D877E878F875E
S1131860988B69877A878B879C876D837E838F8328
S1131870988769837A838B839C83912C0F2EF9E854
S11318802F2EF3E03F2EF02D882483940F2EF4EBBB
S1131890AF2EF1E0BF2EF02D0EC10E947603182F5B
S11318A00E94CC0B1F3F09F00FC10E94500F8823E8
S11318B009F40CC1F101808191810E94A011082FCB
S11318C0911003C08B3159F403C1F1E09F1203C09E
S11318D08B3529F400C122E0921609F401C1802F4E
S11318E08F7D8E3429F40E94000C912C0FEF2EC0B2
S11318F00F7D003549F580916002982D811190E0AB
S113190090936002811111C064E070E085E290E080
S11319100E941F108BEA91E09F938F930E94DE1127
S11319200F900F90912C0FEF11C064E070E085E2EE
S113193090E00E941F10BF92AF920E94DE110F90A0
S11319400F90912C0FEF02C0912C0FEF8091600249
S11319508111B1C00E94780A133021F0013411F0D2
S1131960833021F480E00E9428081DC0123021F049
S1131970073511F0813021F4882D0E94280813C006
S1131980113021F0033511F0823021F483E00E94FC
S1131990280809C0112321F0043411F0843019F40B
S11319A082E00E9428080E9470106B017C010E9452
S11319B0620A811120C0D301C20180579E4FAF4FEC
S11319C0BF4FC816D906EA06FB06A8F00E94EC062B
S11319D00E94680A882369F00E94A30B0E9458059C
S11319E00E9470102B013C0169837A838B839C8352
S11319F002C0260137010E94620A811114C0898144
S1131A009A81AB81BC818C559E4FAF4FBF4FC81696
S1131A10D906EA06FB0638F080E00E944A08C9822B
S1131A20DA82EB82FC820E94620A811114C08D81E9
S1131A309E81AF81B8858E539E4FAF4FBF4FC8165E
S1131A40D906EA06FB0638F0882D0E944A08CD82A2
S1131A50DE82EF82F8860E94620A811114C08985B1
S1131A609A85AB85BC858C509E4FAF4FBF4FC8162F
S1131A70D906EA06FB0638F082E00E944A08C986C5
S1131A80DA86EB86FC860E94620A811114C08D8579
S1131A909E85AF85B889865C9D4FAF4FBF4FC816F2
S1131AA0D906EA06FB0638F083E00E944A08CD8690
S1131AB0DE86EF86F88A0E94620A811113C00E94B2
S1131AC051058111EACE0EC00FEF40CF0FEF3ECF8C
S1131AD0982C0FEF3BCF6894992491F80FEF36CFF1
S1131AE0912C34CF60960FB6F894DEBF0FBECDBFF5
S1131AF0DF91CF911F910F91FF90EF90DF90CF90E6
S1131B00BF90AF909F908F907F906F905F904F9019
S1131B103F902F9008950E94490B0E945A0B0E94F7
S1131B20000C0E940F0C0E94DD0BF9CF8091600223
S1131B300895109271021092720210927302109220
S1131B40740208954091710250917202609173027F
S1131B5070917402480F591F611D711D40937102E9
S1131B6050937202609373027093740208956091AB
S1131B7071027091720280917302909174020895BF
S1131B8060936D0270936E0280936F029093700263
S1131B90089560916D0270916E0280916F02909130
S1131BA07002089560930401909365028093640227
S1131BB010926702109266021092630210926202FF
S1131BC008950F931F93CF93DF93CDB7DEB7289774
S1131BD00FB6F894DEBF0FBECDBFE0916602F09160
S1131BE06702309781F0149110FF06C010926702CB
S1131BF01092660200E06BC03196F0936702E093A6
S1131C00660200E064C0E0916202F09163023097E2
S1131C1009F449C0CF010196909363028093620254
S1131C20E081E1110AC0109263021092620280E125
S1131C308093610200E010E04AC08FE98E0F8A3180
S1131C4070F4F0E0EE0FFF1FEA51FB4F8591949181
S1131C50909367028093660200E010E038C08FEB37
S1131C608E0F8A3170F4F0E0EE0FFF1FEA5DFA4F39
S1131C7085919491909367028093660200E010E04E
S1131C8026C080ED8E0F8A3000F5F0E0EE0FFF1FC6
S1131C90EC5CFA4F8591949190936702809366026D
S1131CA000E010E014C0809164029091650201E0AC
S1131CB0009709F000E0909363028093620210920F
S1131CC065021092640210E002C000E010E00E947D
S1131CD03E0B20910401FE013896CE01019611239A
S1131CE014F4208301C01082110F3197E817F9070B
S1131CF0B1F71982BE016F5F7F4F8FE00E94210B05
S1131D0080916102882389F08150809361020023CD
S1131D1011F0882311F090E003C091E001C091E03C
S1131D2081E0992329F080E003C00023A1F3F7CFD9
S1131D3028960FB6F894DEBF0FBECDBFDF91CF91CA
S1131D401F910F910895CF93C82F8A3019F48DE015
S1131D500E94A30E9FB7907802C0992329F1809125
S1131D6076028F3FD1F3F894E091750281E08E0FF3
S1131D7080937502F0E0E958FD4FC08380917602AC
S1131D808F5F80937602809175028F3F11F41092D9
S1131D907502E1ECF0E0808180628083992339F060
S1131DA0789480E090E005C081E090E002C080E09B
S1131DB090E0CF910895809188038823E1F32FB7B1
S1131DC02078F894809176033091880390E0831B07
S1131DD091095AF4E091760380918803F0E0E81BBE
S1131DE0F109E957FC4F80810AC0E09176038091A4
S1131DF08803F0E0E81BF109E958FC4F80819091D9
S1131E008803915090938803222309F0789490E0FA
S1131E100895109275021092760210927603109231
S1131E2088031092870340936802DC01CB01880F7A
S1131E30991FAA1FBB1F880F991FAA1FBB1F9C01B4
S1131E40AD01220F331F441F551F60E072E18AE782
S1131E5090E00E94B710BA01A9014F5F5F4F6F4F26
S1131E607F4FDB01CA011AF40196A11DB11DB5957E
S1131E70A7959795879501979093C5008093C40083
S1131E80E1ECF0E088E18083808180688083E9E888
S1131E90F3E085E091E093838283918380830895C6
S1131EA09091880381E0911101C080E0089510921F
S1131EB076031092880308951F920F920FB60F9223
S1131EC011242F938F939F93EF93FF938091760226
S1131ED0882329F1809175022091760290E0821B7B
S1131EE091095AF4E091750280917602F0E0E81BC2
S1131EF0F109EA58FC4F90810AC0E0917502809183
S1131F007602F0E0E81BF109E958FD4F90818091D9
S1131F1076028150809376029093C60005C0E1EC6E
S1131F20F0E080818F7D8083FF91EF919F918F916D
S1131F302F910F900FBE0F901F9018951F920F9224
S1131F400FB60F9211242F933F934F935F936F9388
S1131F507F938F939F93AF93BF93CF93EF93FF930D
S1131F60C091C60080916802882349F0809176026E
S1131F708F3F29F060E070E08C2F0E94A30E8091C7
S1131F808803803120F081E08093870318C0CD302E
S1131F9009F4CAE0E091760381E08E0F8093760322
S1131FA0F0E0E958FC4FC083809188038F5F8093F1
S1131FB0880380917603803111F410927603FF91A7
S1131FC0EF91CF91BF91AF919F918F917F916F913D
S1131FD05F914F913F912F910F900FBE0F901F90E3
S1131FE0189594B1906B94B92C9A90E59CBD883067
S1131FF021F0803211F0823019F491E09DBD01C0CE
S11320001DBC803269F028F4883071F0803161F0B1
S11320100EC0803429F0803851F48CB581608CBDB9
S11320208CB582608CBD03C08CB581608CBD2C984E
S113203008958EBD0DB407FEFDCF8EB508959F9310
S11320408F937F936F9389E896E09F938F930E9479
S1132050F4110F900F900F900F900F900F90089520
S113206084E896E09F938F930E94F4110F900F9051
S113207008958FE796E09F938F930E94F4110F9039
S11320800F9008951F928F9389E796E09F938F9303
S11320900E94F4110F900F900F900F90089582E713
S11320A096E09F938F930E94F4110F900F900895E0
S11320B01092690210926A0210926B0210926C02E2
S11320C016BC8CE787BD82E084BD83E085BDEEE667
S11320D0F0E080818260808385B3827085BB08953F
S11320E02FB7F8946091690270916A0280916B0233
S11320F090916C0222230CF4789408951F920F920D
S11321000FB60F9211242F933F934F935F936F93C6
S11321107F938F939F93AF93BF93EF93FF930E940B
S1132120960D811113C08091690290916A02A09169
S11321306B02B0916C020196A11DB11D80936902DE
S113214090936A02A0936B02B0936C02FF91EF919B
S1132150BF91AF919F918F917F916F915F914F91BB
S11321603F912F910F900FBE0F901F901895052E41
S113217097FB1EF400940E94CE1057FD07D00E94D6
S1132180DC1007FC03D04EF40C94CE10509540950F
S1132190309521953F4F4F4F5F4F0895909580950F
S11321A0709561957F4F8F4F9F4F0895EE0FFF1FDE
S11321B00590F491E02D0994A1E21A2EAA1BBB1BF1
S11321C0FD010DC0AA1FBB1FEE1FFF1FA217B307FF
S11321D0E407F50720F0A21BB30BE40BF50B661F15
S11321E0771F881F991F1A9469F7609570958095D9
S11321F090959B01AC01BD01CF0108958F929F92F0
S1132200AF92BF92CF92DF92EF92FF92CF93DF9380
S1132210EC01688179818A819B8161157105810551
S1132220910521F464E279ED8BE597E02DE133EF3C
S113223041E050E00E94B71049015A019B01AC01F2
S1132240A7EAB1E40E94E2146B017C01ACEEB4EFA6
S1132250A50194010E94F014DC01CB018C0D9D1D9D
S1132260AE1DBF1DB7FF03C00197A109B048888305
S11322709983AA83BB83BC01CD019F77DF91CF9162
S1132280FF90EF90DF90CF90BF90AF909F908F9092
S113229008958F929F92AF92BF92CF92DF92EF9266
S11322A0FF9260910001709101018091020190916F
S11322B00301611571058105910521F464E279ED4D
S11322C08BE597E02DE133EF41E050E00E94B71039
S11322D049015A019B01AC01A7EAB1E40E94E2144E
S11322E06B017C01ACEEB4EFA50194010E94F014E3
S11322F0DC01CB018C0D9D1DAE1DBF1DB7FF03C0BE
S11323000197A109B0488093000190930101A09323
S11323100201B0930301BC01CD019F77FF90EF90C0
S1132320DF90CF90BF90AF909F908F90089560936F
S113233000017093010180930201909303010895B9
S1132340CF93DF93EC012B8120FF33C026FF0AC01B
S11323502F7B2B838E819F8101969F838E838A811D
S113236090E029C022FF0FC0E881F9818081082E06
S1132370000C990B009719F420622B831AC0319634
S1132380F983E8830EC0EA85FB85099597FF09C0A8
S11323902B81019611F080E201C080E1822B8B83B6
S11323A008C02E813F812F5F3F4F3F832E839927A3
S11323B002C08FEF9FEFDF91CF910895A0E0B0E0CE
S11323C0E4EEF1E10C940515AE014B5F5F4FFA01A9
S11323D061917191AF0180918B0390918C030E9464
S11323E05112E2E00C942115A0E0B0E0EAEFF1E133
S11323F00C940315AE01495F5F4FDA016D917D9135
S1132400AD0109E813E0F80182819381DC011396A0
S11324102C911397286013962C930E945112D80183
S11324201296ED91FC9113972381277F2383E4E097
S11324300C941F1560918B0370918C030E944814B7
S113244008950F931F93CF93DF93E0918B03F09143
S11324508C03238121FF1BC08C01D0E0C0E0F80174
S113246081918F0160918B0370918C03DB0118962D
S1132470ED91FC911997882331F00995892B79F313
S1132480DFEFCFEFECCF8AE00995892B19F08FEFBE
S11324909FEF02C08D2F9C2FDF91CF911F910F9141
S11324A00895ABE0B0E0E7E5F2E10C94F5146C01BB
S11324B07B018A01FC0117821682838181FFCCC1D2
S11324C0CE0101963C01F6019381F70193FD8591BC
S11324D093FF81917F01882309F4BAC1853239F4CD
S11324E093FD859193FF81917F01853229F4B60193
S11324F090E00E944814E7CF912C212C312CFFE16D
S1132500F315D8F08B3279F038F4803279F08332D5
S1132510A1F4232D20611DC08D3261F0803369F454
S1132520232D216016C0832D8260382EE32DE460B4
S11325303E2E2AC0F32DF8601DC037FC2DC020EDBF
S1132540280F2A3040F08E32B9F436FC81C1232D95
S11325502064322E19C036FE06C08AE0989E200DF3
S11325601124922E11C0EAE02E9E200D1124222E59
S1132570F32DF0623F2E08C08C3621F4832D806841
S1132580382E02C0883641F4F70193FD859193FFFC
S113259081917F018111B3CF982F9F7D9554933002
S11325A028F40C5F1F4F9FE399830DC0833631F0ED
S11325B0833771F0833509F059C021C0F801808157
S11325C089830E5F1F4F88248394912C530113C079
S11325D02801F2E04F0E511CF801A080B18036FEB4
S11325E003C0692D70E002C06FEF7FEFC5010E9448
S11325F03D144C018201F32DFF773F2E16C02801B4
S113260022E0420E511CF801A080B18036FE03C0C6
S1132610692D70E002C06FEF7FEFC5010E94321494
S11326204C01F32DF0683F2E820133FC1BC0822D38
S113263090E088169906B0F4B60180E290E00E941A
S113264048142A94F4CFF50137FC859137FE819123
S11326505F01B60190E00E94481421102A9421E001
S1132660821A91088114910471F7E8C0843611F03C
S1132670893641F5F80137FE07C060817181828196
S113268093810C5F1F4F08C060817181072E000C7D
S1132690880B990B0E5F1F4FF32DFF763F2E97FF8C
S11326A009C090958095709561957F4F8F4F9F4F8E
S11326B0F0683F2E2AE030E0A3010E948414882EA3
S11326C0861845C0853731F4232D2F7EB22E2AE09B
S11326D030E025C0932D997FB92E8F36C1F018F4C0
S11326E0883579F0B5C0803719F0883721F0B0C04B
S11326F0E92FE061BE2EB4FE0DC0FB2DF460BF2EA9
S113270009C034FE0AC0292F2660B22E06C028E074
S113271030E005C020E130E002C020E132E0F80101
S1132720B7FE07C060817181828193810C5F1F4F66
S113273006C06081718180E090E00E5F1F4FA301AD
S11327400E948414882E8618FB2DFF773F2E36FEB8
S11327500DC0232D2E7FA22E891458F434FE0BC0F5
S113276032FC09C0832D8E7EA82E05C0B82CA32C64
S113277003C0B82C01C0B92CA4FE0FC0FE01E80DA3
S1132780F11D8081803321F49A2D997EA92E09C0F0
S1132790A2FE06C0B394B39404C08A2D867809F0CF
S11327A0B394A3FC11C0A0FE06C0B21488F4280C94
S11327B0922C9B180EC0B21460F4B60180E290E033
S11327C00E944814B394F7CFB21418F42B1802C023
S11327D0982C212CA4FE10C0B60180E390E00E9446
S11327E04814A2FE17C0A1FC03C088E790E002C011
S11327F088E590E0B6010CC08A2D867859F0A1FED8
S113280002C08BE201C080E2A7FC8DE2B60190E039
S11328100E944814891438F4B60180E390E00E94C1
S113282048149A94F7CF8A94F301E80DF11D80813E
S1132830B60190E00E9448148110F5CF222009F4DB
S113284042CEB60180E290E00E9448142A94F6CF6A
S1132850F6018681978102C08FEF9FEF2B96E2E10C
S11328600C941115FC010590615070400110D8F7CB
S1132870809590958E0F9F1F0895FC0161507040C4
S113288001900110D8F7809590958E0F9F1F0895A1
S11328900F931F93CF93DF93FB01238121FD03C08B
S11328A08FEF9FEF2CC022FF16C0468157812481F1
S11328B035814217530744F4A081B1819D012F5FF4
S11328C03F4F318320838C93268137812F5F3F4F85
S11328D03783268314C08B01EC01FB010084F1854E
S11328E0E02D0995892BE1F6D80116968D919C91DE
S11328F01797019617969C938E931697CE01DF91A6
S1132900CF911F910F910895FA01AA27283051F110
S1132910203181F1E8946F936E7F6E5F7F4F8F4F0C
S11329209F4FAF4FB1E03ED0B4E03CD0670F781F6B
S1132930891F9A1FA11D680F791F8A1F911DA11D50
S11329406A0F711D811D911DA11D20D009F4689489
S11329503F912AE0269F11243019305D3193DEF631
S1132960CF010895462F4770405D4193B3E00FD0E7
S1132970C9F7F6CF462F4F70405D4A3318F0495DD2
S113298031FD4052419302D0A9F7EACFB4E0A695B5
S11329909795879577956795BA95C9F700976105D7
S11329A0710508959B01AC010A2E0694579547952D
S11329B037952795BA95C9F7620F731F841F951F22
S11329C0A01D08950E942C15A59F900DB49F900DF5
S11329D0A49F800D911D11240895B7FF0C94E21457
S11329E00E94E214821B930B08952F923F924F9200
S11329F05F926F927F928F929F92AF92BF92CF928B
S1132A00DF92EF92FF920F931F93CF93DF93CDB793
S1132A10DEB7CA1BDB0B0FB6F894DEBF0FBECDBF0B
S1132A2009942A88398848885F846E847D848C84DC
S1132A309B84AA84B984C884DF80EE80FD800C81E5
S1132A401B81AA81B981CE0FD11D0FB6F894DEBFC8
S1132A500FBECDBFED010895A29FB001B39FC00189
S1132A60A39F700D811D1124911DB29F700D811DB6
S10D2A701124911D0895F894FFCF7E
S1132A7A010000000F0000000300000000A30EDBA9
S1132A8A0E0000257300E2948000E2948200E2942E
S1132A9A8C00E2949000E2949400E2949800E29408
S1132AAA9C00E294A400E294B400E294AC00E294A0
S1132ABABC0053636F72653A200A002531337300F0
S1132ACA2531316C750A00486967682053636F724F
S1132ADA653A00506163646F74732052656D61696D
S1132AEA6E696E673A2025313164004C69766573E4
S1132AFA3A2025356400E197A400E197A200E19702
S1132B0AA700E197A30086018A018E019201292A6E
S1132B1A2E2D3434333137393632005061757365AA
S1132B2A207C7C00202020202020202020202020FF
S1052B3A200075
S9030000FC
